{
	".deps/npm/@openzeppelin/contracts/token/ERC1155/ERC1155.sol": {
		"ERC1155": {
			"abi": [
				{
					"inputs": [
						{
							"internalType": "string",
							"name": "uri_",
							"type": "string"
						}
					],
					"stateMutability": "nonpayable",
					"type": "constructor"
				},
				{
					"anonymous": false,
					"inputs": [
						{
							"indexed": true,
							"internalType": "address",
							"name": "account",
							"type": "address"
						},
						{
							"indexed": true,
							"internalType": "address",
							"name": "operator",
							"type": "address"
						},
						{
							"indexed": false,
							"internalType": "bool",
							"name": "approved",
							"type": "bool"
						}
					],
					"name": "ApprovalForAll",
					"type": "event"
				},
				{
					"anonymous": false,
					"inputs": [
						{
							"indexed": true,
							"internalType": "address",
							"name": "operator",
							"type": "address"
						},
						{
							"indexed": true,
							"internalType": "address",
							"name": "from",
							"type": "address"
						},
						{
							"indexed": true,
							"internalType": "address",
							"name": "to",
							"type": "address"
						},
						{
							"indexed": false,
							"internalType": "uint256[]",
							"name": "ids",
							"type": "uint256[]"
						},
						{
							"indexed": false,
							"internalType": "uint256[]",
							"name": "values",
							"type": "uint256[]"
						}
					],
					"name": "TransferBatch",
					"type": "event"
				},
				{
					"anonymous": false,
					"inputs": [
						{
							"indexed": true,
							"internalType": "address",
							"name": "operator",
							"type": "address"
						},
						{
							"indexed": true,
							"internalType": "address",
							"name": "from",
							"type": "address"
						},
						{
							"indexed": true,
							"internalType": "address",
							"name": "to",
							"type": "address"
						},
						{
							"indexed": false,
							"internalType": "uint256",
							"name": "id",
							"type": "uint256"
						},
						{
							"indexed": false,
							"internalType": "uint256",
							"name": "value",
							"type": "uint256"
						}
					],
					"name": "TransferSingle",
					"type": "event"
				},
				{
					"anonymous": false,
					"inputs": [
						{
							"indexed": false,
							"internalType": "string",
							"name": "value",
							"type": "string"
						},
						{
							"indexed": true,
							"internalType": "uint256",
							"name": "id",
							"type": "uint256"
						}
					],
					"name": "URI",
					"type": "event"
				},
				{
					"inputs": [
						{
							"internalType": "address",
							"name": "account",
							"type": "address"
						},
						{
							"internalType": "uint256",
							"name": "id",
							"type": "uint256"
						}
					],
					"name": "balanceOf",
					"outputs": [
						{
							"internalType": "uint256",
							"name": "",
							"type": "uint256"
						}
					],
					"stateMutability": "view",
					"type": "function"
				},
				{
					"inputs": [
						{
							"internalType": "address[]",
							"name": "accounts",
							"type": "address[]"
						},
						{
							"internalType": "uint256[]",
							"name": "ids",
							"type": "uint256[]"
						}
					],
					"name": "balanceOfBatch",
					"outputs": [
						{
							"internalType": "uint256[]",
							"name": "",
							"type": "uint256[]"
						}
					],
					"stateMutability": "view",
					"type": "function"
				},
				{
					"inputs": [
						{
							"internalType": "address",
							"name": "account",
							"type": "address"
						},
						{
							"internalType": "address",
							"name": "operator",
							"type": "address"
						}
					],
					"name": "isApprovedForAll",
					"outputs": [
						{
							"internalType": "bool",
							"name": "",
							"type": "bool"
						}
					],
					"stateMutability": "view",
					"type": "function"
				},
				{
					"inputs": [
						{
							"internalType": "address",
							"name": "from",
							"type": "address"
						},
						{
							"internalType": "address",
							"name": "to",
							"type": "address"
						},
						{
							"internalType": "uint256[]",
							"name": "ids",
							"type": "uint256[]"
						},
						{
							"internalType": "uint256[]",
							"name": "amounts",
							"type": "uint256[]"
						},
						{
							"internalType": "bytes",
							"name": "data",
							"type": "bytes"
						}
					],
					"name": "safeBatchTransferFrom",
					"outputs": [],
					"stateMutability": "nonpayable",
					"type": "function"
				},
				{
					"inputs": [
						{
							"internalType": "address",
							"name": "from",
							"type": "address"
						},
						{
							"internalType": "address",
							"name": "to",
							"type": "address"
						},
						{
							"internalType": "uint256",
							"name": "id",
							"type": "uint256"
						},
						{
							"internalType": "uint256",
							"name": "amount",
							"type": "uint256"
						},
						{
							"internalType": "bytes",
							"name": "data",
							"type": "bytes"
						}
					],
					"name": "safeTransferFrom",
					"outputs": [],
					"stateMutability": "nonpayable",
					"type": "function"
				},
				{
					"inputs": [
						{
							"internalType": "address",
							"name": "operator",
							"type": "address"
						},
						{
							"internalType": "bool",
							"name": "approved",
							"type": "bool"
						}
					],
					"name": "setApprovalForAll",
					"outputs": [],
					"stateMutability": "nonpayable",
					"type": "function"
				},
				{
					"inputs": [
						{
							"internalType": "bytes4",
							"name": "interfaceId",
							"type": "bytes4"
						}
					],
					"name": "supportsInterface",
					"outputs": [
						{
							"internalType": "bool",
							"name": "",
							"type": "bool"
						}
					],
					"stateMutability": "view",
					"type": "function"
				},
				{
					"inputs": [
						{
							"internalType": "uint256",
							"name": "",
							"type": "uint256"
						}
					],
					"name": "uri",
					"outputs": [
						{
							"internalType": "string",
							"name": "",
							"type": "string"
						}
					],
					"stateMutability": "view",
					"type": "function"
				}
			],
			"devdoc": {
				"details": "Implementation of the basic standard multi-token. See https://eips.ethereum.org/EIPS/eip-1155 Originally based on code by Enjin: https://github.com/enjin/erc-1155 _Available since v3.1._",
				"kind": "dev",
				"methods": {
					"balanceOf(address,uint256)": {
						"details": "See {IERC1155-balanceOf}. Requirements: - `account` cannot be the zero address."
					},
					"balanceOfBatch(address[],uint256[])": {
						"details": "See {IERC1155-balanceOfBatch}. Requirements: - `accounts` and `ids` must have the same length."
					},
					"constructor": {
						"details": "See {_setURI}."
					},
					"isApprovedForAll(address,address)": {
						"details": "See {IERC1155-isApprovedForAll}."
					},
					"safeBatchTransferFrom(address,address,uint256[],uint256[],bytes)": {
						"details": "See {IERC1155-safeBatchTransferFrom}."
					},
					"safeTransferFrom(address,address,uint256,uint256,bytes)": {
						"details": "See {IERC1155-safeTransferFrom}."
					},
					"setApprovalForAll(address,bool)": {
						"details": "See {IERC1155-setApprovalForAll}."
					},
					"supportsInterface(bytes4)": {
						"details": "See {IERC165-supportsInterface}."
					},
					"uri(uint256)": {
						"details": "See {IERC1155MetadataURI-uri}. This implementation returns the same URI for *all* token types. It relies on the token type ID substitution mechanism https://eips.ethereum.org/EIPS/eip-1155#metadata[defined in the EIP]. Clients calling this function must replace the `\\{id\\}` substring with the actual token type ID."
					}
				},
				"version": 1
			},
			"evm": {
				"assembly": "    /* \".deps/npm/@openzeppelin/contracts/token/ERC1155/ERC1155.sol\":570:17259  contract ERC1155 is Context, ERC165, IERC1155, IERC1155MetadataURI {... */\n  mstore(0x40, 0x80)\n    /* \".deps/npm/@openzeppelin/contracts/token/ERC1155/ERC1155.sol\":1107:1169  constructor(string memory uri_) {... */\n  callvalue\n  dup1\n  iszero\n  tag_1\n  jumpi\n  0x00\n  dup1\n  revert\ntag_1:\n  pop\n  mload(0x40)\n  sub(codesize, bytecodeSize)\n  dup1\n  bytecodeSize\n  dup4\n  codecopy\n  dup2\n  add\n  0x40\n  dup2\n  swap1\n  mstore\n  tag_2\n  swap2\n  tag_3\n  jump\t// in\ntag_2:\n    /* \".deps/npm/@openzeppelin/contracts/token/ERC1155/ERC1155.sol\":1149:1162  _setURI(uri_) */\n  tag_6\n    /* \".deps/npm/@openzeppelin/contracts/token/ERC1155/ERC1155.sol\":1157:1161  uri_ */\n  dup2\n    /* \".deps/npm/@openzeppelin/contracts/token/ERC1155/ERC1155.sol\":1149:1156  _setURI */\n  tag_7\n    /* \".deps/npm/@openzeppelin/contracts/token/ERC1155/ERC1155.sol\":1149:1162  _setURI(uri_) */\n  jump\t// in\ntag_6:\n    /* \".deps/npm/@openzeppelin/contracts/token/ERC1155/ERC1155.sol\":1107:1169  constructor(string memory uri_) {... */\n  pop\n    /* \".deps/npm/@openzeppelin/contracts/token/ERC1155/ERC1155.sol\":570:17259  contract ERC1155 is Context, ERC165, IERC1155, IERC1155MetadataURI {... */\n  jump(tag_17)\n    /* \".deps/npm/@openzeppelin/contracts/token/ERC1155/ERC1155.sol\":8171:8257  function _setURI(string memory newuri) internal virtual {... */\ntag_7:\n    /* \".deps/npm/@openzeppelin/contracts/token/ERC1155/ERC1155.sol\":8237:8241  _uri */\n  0x02\n    /* \".deps/npm/@openzeppelin/contracts/token/ERC1155/ERC1155.sol\":8237:8250  _uri = newuri */\n  tag_10\n    /* \".deps/npm/@openzeppelin/contracts/token/ERC1155/ERC1155.sol\":8244:8250  newuri */\n  dup3\n    /* \".deps/npm/@openzeppelin/contracts/token/ERC1155/ERC1155.sol\":8237:8241  _uri */\n  dup3\n    /* \".deps/npm/@openzeppelin/contracts/token/ERC1155/ERC1155.sol\":8237:8250  _uri = newuri */\n  tag_11\n  jump\t// in\ntag_10:\n  pop\n    /* \".deps/npm/@openzeppelin/contracts/token/ERC1155/ERC1155.sol\":8171:8257  function _setURI(string memory newuri) internal virtual {... */\n  pop\n  jump\t// out\n    /* \"#utility.yul\":14:141   */\ntag_12:\n    /* \"#utility.yul\":75:85   */\n  0x4e487b71\n    /* \"#utility.yul\":70:73   */\n  0xe0\n    /* \"#utility.yul\":66:86   */\n  shl\n    /* \"#utility.yul\":63:64   */\n  0x00\n    /* \"#utility.yul\":56:87   */\n  mstore\n    /* \"#utility.yul\":106:110   */\n  0x41\n    /* \"#utility.yul\":103:104   */\n  0x04\n    /* \"#utility.yul\":96:111   */\n  mstore\n    /* \"#utility.yul\":130:134   */\n  0x24\n    /* \"#utility.yul\":127:128   */\n  0x00\n    /* \"#utility.yul\":120:135   */\n  revert\n    /* \"#utility.yul\":146:1188   */\ntag_3:\n    /* \"#utility.yul\":226:232   */\n  0x00\n    /* \"#utility.yul\":257:259   */\n  0x20\n    /* \"#utility.yul\":300:302   */\n  dup1\n    /* \"#utility.yul\":288:297   */\n  dup4\n    /* \"#utility.yul\":279:286   */\n  dup6\n    /* \"#utility.yul\":275:298   */\n  sub\n    /* \"#utility.yul\":271:303   */\n  slt\n    /* \"#utility.yul\":268:320   */\n  iszero\n  tag_20\n  jumpi\n    /* \"#utility.yul\":316:317   */\n  0x00\n    /* \"#utility.yul\":313:314   */\n  dup1\n    /* \"#utility.yul\":306:318   */\n  revert\n    /* \"#utility.yul\":268:320   */\ntag_20:\n    /* \"#utility.yul\":343:359   */\n  dup3\n  mload\n  sub(shl(0x40, 0x01), 0x01)\n    /* \"#utility.yul\":408:422   */\n  dup1\n  dup3\n  gt\n    /* \"#utility.yul\":405:439   */\n  iszero\n  tag_21\n  jumpi\n    /* \"#utility.yul\":435:436   */\n  0x00\n    /* \"#utility.yul\":432:433   */\n  dup1\n    /* \"#utility.yul\":425:437   */\n  revert\n    /* \"#utility.yul\":405:439   */\ntag_21:\n    /* \"#utility.yul\":473:479   */\n  dup2\n    /* \"#utility.yul\":462:471   */\n  dup6\n    /* \"#utility.yul\":458:480   */\n  add\n    /* \"#utility.yul\":448:480   */\n  swap2\n  pop\n    /* \"#utility.yul\":518:525   */\n  dup6\n    /* \"#utility.yul\":511:515   */\n  0x1f\n    /* \"#utility.yul\":507:509   */\n  dup4\n    /* \"#utility.yul\":503:516   */\n  add\n    /* \"#utility.yul\":499:526   */\n  slt\n    /* \"#utility.yul\":489:544   */\n  tag_22\n  jumpi\n    /* \"#utility.yul\":540:541   */\n  0x00\n    /* \"#utility.yul\":537:538   */\n  dup1\n    /* \"#utility.yul\":530:542   */\n  revert\n    /* \"#utility.yul\":489:544   */\ntag_22:\n    /* \"#utility.yul\":569:571   */\n  dup2\n    /* \"#utility.yul\":563:572   */\n  mload\n    /* \"#utility.yul\":591:593   */\n  dup2\n    /* \"#utility.yul\":587:589   */\n  dup2\n    /* \"#utility.yul\":584:594   */\n  gt\n    /* \"#utility.yul\":581:617   */\n  iszero\n  tag_24\n  jumpi\n    /* \"#utility.yul\":597:615   */\n  tag_24\n  tag_12\n  jump\t// in\ntag_24:\n    /* \"#utility.yul\":672:674   */\n  0x40\n    /* \"#utility.yul\":666:675   */\n  mload\n    /* \"#utility.yul\":640:642   */\n  0x1f\n    /* \"#utility.yul\":726:739   */\n  dup3\n  add\n  not(0x1f)\n    /* \"#utility.yul\":722:744   */\n  swap1\n  dup2\n  and\n    /* \"#utility.yul\":746:748   */\n  0x3f\n    /* \"#utility.yul\":718:749   */\n  add\n    /* \"#utility.yul\":714:754   */\n  and\n    /* \"#utility.yul\":702:755   */\n  dup2\n  add\n  swap1\n    /* \"#utility.yul\":770:788   */\n  dup4\n  dup3\n  gt\n    /* \"#utility.yul\":790:812   */\n  dup2\n  dup4\n  lt\n    /* \"#utility.yul\":767:813   */\n  or\n    /* \"#utility.yul\":764:836   */\n  iszero\n  tag_26\n  jumpi\n    /* \"#utility.yul\":816:834   */\n  tag_26\n  tag_12\n  jump\t// in\ntag_26:\n    /* \"#utility.yul\":856:866   */\n  dup2\n    /* \"#utility.yul\":852:854   */\n  0x40\n    /* \"#utility.yul\":845:867   */\n  mstore\n    /* \"#utility.yul\":891:893   */\n  dup3\n    /* \"#utility.yul\":883:889   */\n  dup2\n    /* \"#utility.yul\":876:894   */\n  mstore\n    /* \"#utility.yul\":931:938   */\n  dup9\n    /* \"#utility.yul\":926:928   */\n  dup7\n    /* \"#utility.yul\":921:923   */\n  dup5\n    /* \"#utility.yul\":917:919   */\n  dup8\n    /* \"#utility.yul\":913:924   */\n  add\n    /* \"#utility.yul\":909:929   */\n  add\n    /* \"#utility.yul\":906:939   */\n  gt\n    /* \"#utility.yul\":903:956   */\n  iszero\n  tag_27\n  jumpi\n    /* \"#utility.yul\":952:953   */\n  0x00\n    /* \"#utility.yul\":949:950   */\n  dup1\n    /* \"#utility.yul\":942:954   */\n  revert\n    /* \"#utility.yul\":903:956   */\ntag_27:\n    /* \"#utility.yul\":974:975   */\n  0x00\n    /* \"#utility.yul\":965:975   */\n  swap4\n  pop\n    /* \"#utility.yul\":984:1113   */\ntag_28:\n    /* \"#utility.yul\":998:1000   */\n  dup3\n    /* \"#utility.yul\":995:996   */\n  dup5\n    /* \"#utility.yul\":992:1001   */\n  lt\n    /* \"#utility.yul\":984:1113   */\n  iszero\n  tag_30\n  jumpi\n    /* \"#utility.yul\":1086:1096   */\n  dup5\n  dup5\n  add\n    /* \"#utility.yul\":1082:1101   */\n  dup7\n  add\n    /* \"#utility.yul\":1076:1102   */\n  mload\n    /* \"#utility.yul\":1055:1069   */\n  dup2\n  dup6\n  add\n    /* \"#utility.yul\":1051:1074   */\n  dup8\n  add\n    /* \"#utility.yul\":1044:1103   */\n  mstore\n    /* \"#utility.yul\":1009:1019   */\n  swap3\n  dup6\n  add\n  swap3\n    /* \"#utility.yul\":984:1113   */\n  jump(tag_28)\ntag_30:\n    /* \"#utility.yul\":1155:1156   */\n  0x00\n    /* \"#utility.yul\":1150:1152   */\n  dup7\n    /* \"#utility.yul\":1145:1147   */\n  dup5\n    /* \"#utility.yul\":1137:1143   */\n  dup4\n    /* \"#utility.yul\":1133:1148   */\n  add\n    /* \"#utility.yul\":1129:1153   */\n  add\n    /* \"#utility.yul\":1122:1157   */\n  mstore\n    /* \"#utility.yul\":1176:1182   */\n  dup1\n    /* \"#utility.yul\":1166:1182   */\n  swap7\n  pop\n  pop\n  pop\n  pop\n  pop\n  pop\n  pop\n    /* \"#utility.yul\":146:1188   */\n  swap3\n  swap2\n  pop\n  pop\n  jump\t// out\n    /* \"#utility.yul\":1193:1573   */\ntag_13:\n    /* \"#utility.yul\":1272:1273   */\n  0x01\n    /* \"#utility.yul\":1268:1280   */\n  dup2\n  dup2\n  shr\n  swap1\n    /* \"#utility.yul\":1315:1327   */\n  dup3\n  and\n  dup1\n    /* \"#utility.yul\":1336:1397   */\n  tag_32\n  jumpi\n    /* \"#utility.yul\":1390:1394   */\n  0x7f\n    /* \"#utility.yul\":1382:1388   */\n  dup3\n    /* \"#utility.yul\":1378:1395   */\n  and\n    /* \"#utility.yul\":1368:1395   */\n  swap2\n  pop\n    /* \"#utility.yul\":1336:1397   */\ntag_32:\n    /* \"#utility.yul\":1443:1445   */\n  0x20\n    /* \"#utility.yul\":1435:1441   */\n  dup3\n    /* \"#utility.yul\":1432:1446   */\n  lt\n    /* \"#utility.yul\":1412:1430   */\n  dup2\n    /* \"#utility.yul\":1409:1447   */\n  sub\n    /* \"#utility.yul\":1406:1567   */\n  tag_33\n  jumpi\n    /* \"#utility.yul\":1489:1499   */\n  0x4e487b71\n    /* \"#utility.yul\":1484:1487   */\n  0xe0\n    /* \"#utility.yul\":1480:1500   */\n  shl\n    /* \"#utility.yul\":1477:1478   */\n  0x00\n    /* \"#utility.yul\":1470:1501   */\n  mstore\n    /* \"#utility.yul\":1524:1528   */\n  0x22\n    /* \"#utility.yul\":1521:1522   */\n  0x04\n    /* \"#utility.yul\":1514:1529   */\n  mstore\n    /* \"#utility.yul\":1552:1556   */\n  0x24\n    /* \"#utility.yul\":1549:1550   */\n  0x00\n    /* \"#utility.yul\":1542:1557   */\n  revert\n    /* \"#utility.yul\":1406:1567   */\ntag_33:\n  pop\n    /* \"#utility.yul\":1193:1573   */\n  swap2\n  swap1\n  pop\n  jump\t// out\n    /* \"#utility.yul\":1704:2249   */\ntag_15:\n    /* \"#utility.yul\":1806:1808   */\n  0x1f\n    /* \"#utility.yul\":1801:1804   */\n  dup3\n    /* \"#utility.yul\":1798:1809   */\n  gt\n    /* \"#utility.yul\":1795:2243   */\n  iszero\n  tag_36\n  jumpi\n    /* \"#utility.yul\":1842:1843   */\n  0x00\n    /* \"#utility.yul\":1867:1872   */\n  dup2\n    /* \"#utility.yul\":1863:1865   */\n  dup2\n    /* \"#utility.yul\":1856:1873   */\n  mstore\n    /* \"#utility.yul\":1912:1916   */\n  0x20\n    /* \"#utility.yul\":1908:1910   */\n  dup2\n    /* \"#utility.yul\":1898:1917   */\n  keccak256\n    /* \"#utility.yul\":1982:1984   */\n  0x1f\n    /* \"#utility.yul\":1970:1980   */\n  dup6\n    /* \"#utility.yul\":1966:1985   */\n  add\n    /* \"#utility.yul\":1963:1964   */\n  0x05\n    /* \"#utility.yul\":1959:1986   */\n  shr\n    /* \"#utility.yul\":1953:1957   */\n  dup2\n    /* \"#utility.yul\":1949:1987   */\n  add\n    /* \"#utility.yul\":2018:2022   */\n  0x20\n    /* \"#utility.yul\":2006:2016   */\n  dup7\n    /* \"#utility.yul\":2003:2023   */\n  lt\n    /* \"#utility.yul\":2000:2047   */\n  iszero\n  tag_37\n  jumpi\n  pop\n    /* \"#utility.yul\":2041:2045   */\n  dup1\n    /* \"#utility.yul\":2000:2047   */\ntag_37:\n    /* \"#utility.yul\":2096:2098   */\n  0x1f\n    /* \"#utility.yul\":2091:2094   */\n  dup6\n    /* \"#utility.yul\":2087:2099   */\n  add\n    /* \"#utility.yul\":2084:2085   */\n  0x05\n    /* \"#utility.yul\":2080:2100   */\n  shr\n    /* \"#utility.yul\":2074:2078   */\n  dup3\n    /* \"#utility.yul\":2070:2101   */\n  add\n    /* \"#utility.yul\":2060:2101   */\n  swap2\n  pop\n    /* \"#utility.yul\":2151:2233   */\ntag_38:\n    /* \"#utility.yul\":2169:2171   */\n  dup2\n    /* \"#utility.yul\":2162:2167   */\n  dup2\n    /* \"#utility.yul\":2159:2172   */\n  lt\n    /* \"#utility.yul\":2151:2233   */\n  iszero\n  tag_40\n  jumpi\n    /* \"#utility.yul\":2214:2231   */\n  dup3\n  dup2\n  sstore\n    /* \"#utility.yul\":2195:2196   */\n  0x01\n    /* \"#utility.yul\":2184:2197   */\n  add\n    /* \"#utility.yul\":2151:2233   */\n  jump(tag_38)\ntag_40:\n    /* \"#utility.yul\":2155:2158   */\n  pop\n  pop\n  pop\n    /* \"#utility.yul\":1795:2243   */\ntag_36:\n    /* \"#utility.yul\":1704:2249   */\n  pop\n  pop\n  pop\n  jump\t// out\n    /* \"#utility.yul\":2425:3777   */\ntag_11:\n    /* \"#utility.yul\":2545:2555   */\n  dup2\n  mload\n  sub(shl(0x40, 0x01), 0x01)\n    /* \"#utility.yul\":2567:2597   */\n  dup2\n  gt\n    /* \"#utility.yul\":2564:2620   */\n  iszero\n  tag_44\n  jumpi\n    /* \"#utility.yul\":2600:2618   */\n  tag_44\n  tag_12\n  jump\t// in\ntag_44:\n    /* \"#utility.yul\":2629:2726   */\n  tag_45\n    /* \"#utility.yul\":2719:2725   */\n  dup2\n    /* \"#utility.yul\":2679:2717   */\n  tag_46\n    /* \"#utility.yul\":2711:2715   */\n  dup5\n    /* \"#utility.yul\":2705:2716   */\n  sload\n    /* \"#utility.yul\":2679:2717   */\n  tag_13\n  jump\t// in\ntag_46:\n    /* \"#utility.yul\":2673:2677   */\n  dup5\n    /* \"#utility.yul\":2629:2726   */\n  tag_15\n  jump\t// in\ntag_45:\n    /* \"#utility.yul\":2781:2785   */\n  0x20\n  dup1\n    /* \"#utility.yul\":2845:2847   */\n  0x1f\n    /* \"#utility.yul\":2834:2848   */\n  dup4\n  gt\n    /* \"#utility.yul\":2862:2863   */\n  0x01\n    /* \"#utility.yul\":2857:3520   */\n  dup2\n  eq\n  tag_48\n  jumpi\n    /* \"#utility.yul\":3564:3565   */\n  0x00\n    /* \"#utility.yul\":3581:3587   */\n  dup5\n    /* \"#utility.yul\":3578:3667   */\n  iszero\n  tag_49\n  jumpi\n  pop\n    /* \"#utility.yul\":3633:3652   */\n  dup6\n  dup4\n  add\n    /* \"#utility.yul\":3627:3653   */\n  mload\n    /* \"#utility.yul\":3578:3667   */\ntag_49:\n  not(0x00)\n    /* \"#utility.yul\":2382:2383   */\n  0x03\n    /* \"#utility.yul\":2378:2389   */\n  dup7\n  swap1\n  shl\n    /* \"#utility.yul\":2374:2398   */\n  shr\n    /* \"#utility.yul\":2370:2399   */\n  not\n    /* \"#utility.yul\":2360:2400   */\n  and\n    /* \"#utility.yul\":2406:2407   */\n  0x01\n    /* \"#utility.yul\":2402:2413   */\n  dup6\n  swap1\n  shl\n    /* \"#utility.yul\":2357:2414   */\n  or\n    /* \"#utility.yul\":3680:3761   */\n  dup6\n  sstore\n    /* \"#utility.yul\":2827:3771   */\n  jump(tag_40)\n    /* \"#utility.yul\":2857:3520   */\ntag_48:\n    /* \"#utility.yul\":1651:1652   */\n  0x00\n    /* \"#utility.yul\":1644:1658   */\n  dup6\n  dup2\n  mstore\n    /* \"#utility.yul\":1688:1692   */\n  0x20\n    /* \"#utility.yul\":1675:1693   */\n  dup2\n  keccak256\n  not(0x1f)\n    /* \"#utility.yul\":2893:2913   */\n  dup7\n  and\n  swap2\n    /* \"#utility.yul\":3011:3247   */\ntag_52:\n    /* \"#utility.yul\":3025:3032   */\n  dup3\n    /* \"#utility.yul\":3022:3023   */\n  dup2\n    /* \"#utility.yul\":3019:3033   */\n  lt\n    /* \"#utility.yul\":3011:3247   */\n  iszero\n  tag_54\n  jumpi\n    /* \"#utility.yul\":3114:3133   */\n  dup9\n  dup7\n  add\n    /* \"#utility.yul\":3108:3134   */\n  mload\n    /* \"#utility.yul\":3093:3135   */\n  dup3\n  sstore\n    /* \"#utility.yul\":3206:3233   */\n  swap5\n  dup5\n  add\n  swap5\n    /* \"#utility.yul\":3174:3175   */\n  0x01\n    /* \"#utility.yul\":3162:3176   */\n  swap1\n  swap2\n  add\n  swap1\n    /* \"#utility.yul\":3041:3060   */\n  dup5\n  add\n    /* \"#utility.yul\":3011:3247   */\n  jump(tag_52)\ntag_54:\n    /* \"#utility.yul\":3015:3018   */\n  pop\n    /* \"#utility.yul\":3275:3281   */\n  dup6\n    /* \"#utility.yul\":3266:3273   */\n  dup3\n    /* \"#utility.yul\":3263:3282   */\n  lt\n    /* \"#utility.yul\":3260:3461   */\n  iszero\n  tag_55\n  jumpi\n    /* \"#utility.yul\":3336:3355   */\n  dup8\n  dup6\n  add\n    /* \"#utility.yul\":3330:3356   */\n  mload\n  not(0x00)\n    /* \"#utility.yul\":3419:3420   */\n  0x03\n    /* \"#utility.yul\":3415:3429   */\n  dup9\n  swap1\n  shl\n    /* \"#utility.yul\":3431:3434   */\n  0xf8\n    /* \"#utility.yul\":3411:3435   */\n  and\n    /* \"#utility.yul\":3407:3444   */\n  shr\n    /* \"#utility.yul\":3403:3445   */\n  not\n    /* \"#utility.yul\":3388:3446   */\n  and\n    /* \"#utility.yul\":3373:3447   */\n  dup2\n  sstore\n    /* \"#utility.yul\":3260:3461   */\ntag_55:\n  pop\n  pop\n  pop\n  pop\n  pop\n    /* \"#utility.yul\":3507:3508   */\n  0x01\n    /* \"#utility.yul\":3491:3505   */\n  swap1\n  dup2\n  shl\n    /* \"#utility.yul\":3487:3509   */\n  add\n    /* \"#utility.yul\":3474:3510   */\n  swap1\n  sstore\n  pop\n    /* \"#utility.yul\":2425:3777   */\n  jump\t// out\ntag_17:\n    /* \".deps/npm/@openzeppelin/contracts/token/ERC1155/ERC1155.sol\":570:17259  contract ERC1155 is Context, ERC165, IERC1155, IERC1155MetadataURI {... */\n  dataSize(sub_0)\n  dup1\n  dataOffset(sub_0)\n  0x00\n  codecopy\n  0x00\n  return\nstop\n\nsub_0: assembly {\n        /* \".deps/npm/@openzeppelin/contracts/token/ERC1155/ERC1155.sol\":570:17259  contract ERC1155 is Context, ERC165, IERC1155, IERC1155MetadataURI {... */\n      mstore(0x40, 0x80)\n      callvalue\n      dup1\n      iszero\n      tag_1\n      jumpi\n      0x00\n      dup1\n      revert\n    tag_1:\n      pop\n      jumpi(tag_2, lt(calldatasize, 0x04))\n      shr(0xe0, calldataload(0x00))\n      dup1\n      0x4e1273f4\n      gt\n      tag_11\n      jumpi\n      dup1\n      0x4e1273f4\n      eq\n      tag_7\n      jumpi\n      dup1\n      0xa22cb465\n      eq\n      tag_8\n      jumpi\n      dup1\n      0xe985e9c5\n      eq\n      tag_9\n      jumpi\n      dup1\n      0xf242432a\n      eq\n      tag_10\n      jumpi\n      0x00\n      dup1\n      revert\n    tag_11:\n      dup1\n      0xfdd58e\n      eq\n      tag_3\n      jumpi\n      dup1\n      0x01ffc9a7\n      eq\n      tag_4\n      jumpi\n      dup1\n      0x0e89341c\n      eq\n      tag_5\n      jumpi\n      dup1\n      0x2eb2c2d6\n      eq\n      tag_6\n      jumpi\n    tag_2:\n      0x00\n      dup1\n      revert\n        /* \".deps/npm/@openzeppelin/contracts/token/ERC1155/ERC1155.sol\":2185:2412  function balanceOf(address account, uint256 id) public view virtual override returns (uint256) {... */\n    tag_3:\n      tag_12\n      tag_13\n      calldatasize\n      0x04\n      tag_14\n      jump\t// in\n    tag_13:\n      tag_15\n      jump\t// in\n    tag_12:\n      mload(0x40)\n        /* \"#utility.yul\":620:645   */\n      swap1\n      dup2\n      mstore\n        /* \"#utility.yul\":608:610   */\n      0x20\n        /* \"#utility.yul\":593:611   */\n      add\n        /* \".deps/npm/@openzeppelin/contracts/token/ERC1155/ERC1155.sol\":2185:2412  function balanceOf(address account, uint256 id) public view virtual override returns (uint256) {... */\n    tag_16:\n      mload(0x40)\n      dup1\n      swap2\n      sub\n      swap1\n      return\n        /* \".deps/npm/@openzeppelin/contracts/token/ERC1155/ERC1155.sol\":1236:1541  function supportsInterface(bytes4 interfaceId) public view virtual override(ERC165, IERC165) returns (bool) {... */\n    tag_4:\n      tag_18\n      tag_19\n      calldatasize\n      0x04\n      tag_20\n      jump\t// in\n    tag_19:\n      tag_21\n      jump\t// in\n    tag_18:\n      mload(0x40)\n        /* \"#utility.yul\":1253:1267   */\n      swap1\n      iszero\n        /* \"#utility.yul\":1246:1268   */\n      iszero\n        /* \"#utility.yul\":1228:1269   */\n      dup2\n      mstore\n        /* \"#utility.yul\":1216:1218   */\n      0x20\n        /* \"#utility.yul\":1201:1219   */\n      add\n        /* \".deps/npm/@openzeppelin/contracts/token/ERC1155/ERC1155.sol\":1236:1541  function supportsInterface(bytes4 interfaceId) public view virtual override(ERC165, IERC165) returns (bool) {... */\n      tag_16\n        /* \"#utility.yul\":1088:1275   */\n      jump\n        /* \".deps/npm/@openzeppelin/contracts/token/ERC1155/ERC1155.sol\":1940:2043  function uri(uint256) public view virtual override returns (string memory) {... */\n    tag_5:\n      tag_24\n      tag_25\n      calldatasize\n      0x04\n      tag_26\n      jump\t// in\n    tag_25:\n      tag_27\n      jump\t// in\n    tag_24:\n      mload(0x40)\n      tag_16\n      swap2\n      swap1\n      tag_29\n      jump\t// in\n        /* \".deps/npm/@openzeppelin/contracts/token/ERC1155/ERC1155.sol\":4064:4490  function safeBatchTransferFrom(... */\n    tag_6:\n      tag_30\n      tag_31\n      calldatasize\n      0x04\n      tag_32\n      jump\t// in\n    tag_31:\n      tag_33\n      jump\t// in\n    tag_30:\n      stop\n        /* \".deps/npm/@openzeppelin/contracts/token/ERC1155/ERC1155.sol\":2569:3077  function balanceOfBatch(address[] memory accounts, uint256[] memory ids)... */\n    tag_7:\n      tag_34\n      tag_35\n      calldatasize\n      0x04\n      tag_36\n      jump\t// in\n    tag_35:\n      tag_37\n      jump\t// in\n    tag_34:\n      mload(0x40)\n      tag_16\n      swap2\n      swap1\n      tag_39\n      jump\t// in\n        /* \".deps/npm/@openzeppelin/contracts/token/ERC1155/ERC1155.sol\":3145:3298  function setApprovalForAll(address operator, bool approved) public virtual override {... */\n    tag_8:\n      tag_30\n      tag_41\n      calldatasize\n      0x04\n      tag_42\n      jump\t// in\n    tag_41:\n      tag_43\n      jump\t// in\n        /* \".deps/npm/@openzeppelin/contracts/token/ERC1155/ERC1155.sol\":3365:3531  function isApprovedForAll(address account, address operator) public view virtual override returns (bool) {... */\n    tag_9:\n      tag_18\n      tag_45\n      calldatasize\n      0x04\n      tag_46\n      jump\t// in\n    tag_45:\n        /* \".deps/npm/@openzeppelin/contracts/token/ERC1155/ERC1155.sol\":3487:3514  _operatorApprovals[account] */\n      0xffffffffffffffffffffffffffffffffffffffff\n      swap2\n      dup3\n      and\n        /* \".deps/npm/@openzeppelin/contracts/token/ERC1155/ERC1155.sol\":3464:3468  bool */\n      0x00\n        /* \".deps/npm/@openzeppelin/contracts/token/ERC1155/ERC1155.sol\":3487:3514  _operatorApprovals[account] */\n      swap1\n      dup2\n      mstore\n        /* \".deps/npm/@openzeppelin/contracts/token/ERC1155/ERC1155.sol\":3487:3505  _operatorApprovals */\n      0x01\n        /* \".deps/npm/@openzeppelin/contracts/token/ERC1155/ERC1155.sol\":3487:3514  _operatorApprovals[account] */\n      0x20\n      swap1\n      dup2\n      mstore\n      0x40\n      dup1\n      dup4\n      keccak256\n        /* \".deps/npm/@openzeppelin/contracts/token/ERC1155/ERC1155.sol\":3487:3524  _operatorApprovals[account][operator] */\n      swap4\n      swap1\n      swap5\n      and\n      dup3\n      mstore\n      swap2\n      swap1\n      swap2\n      mstore\n      keccak256\n      sload\n      0xff\n      and\n      swap1\n        /* \".deps/npm/@openzeppelin/contracts/token/ERC1155/ERC1155.sol\":3365:3531  function isApprovedForAll(address account, address operator) public view virtual override returns (bool) {... */\n      jump\n        /* \".deps/npm/@openzeppelin/contracts/token/ERC1155/ERC1155.sol\":3598:3992  function safeTransferFrom(... */\n    tag_10:\n      tag_30\n      tag_50\n      calldatasize\n      0x04\n      tag_51\n      jump\t// in\n    tag_50:\n      tag_52\n      jump\t// in\n        /* \".deps/npm/@openzeppelin/contracts/token/ERC1155/ERC1155.sol\":2185:2412  function balanceOf(address account, uint256 id) public view virtual override returns (uint256) {... */\n    tag_15:\n        /* \".deps/npm/@openzeppelin/contracts/token/ERC1155/ERC1155.sol\":2271:2278  uint256 */\n      0x00\n        /* \".deps/npm/@openzeppelin/contracts/token/ERC1155/ERC1155.sol\":2298:2319  account != address(0) */\n      0xffffffffffffffffffffffffffffffffffffffff\n      dup4\n      and\n        /* \".deps/npm/@openzeppelin/contracts/token/ERC1155/ERC1155.sol\":2290:2366  require(account != address(0), \"ERC1155: address zero is not a valid owner\") */\n      tag_54\n      jumpi\n      mload(0x40)\n      shl(0xe5, 0x461bcd)\n      dup2\n      mstore\n        /* \"#utility.yul\":8512:8514   */\n      0x20\n        /* \".deps/npm/@openzeppelin/contracts/token/ERC1155/ERC1155.sol\":2290:2366  require(account != address(0), \"ERC1155: address zero is not a valid owner\") */\n      0x04\n      dup3\n      add\n        /* \"#utility.yul\":8494:8515   */\n      mstore\n        /* \"#utility.yul\":8551:8553   */\n      0x2a\n        /* \"#utility.yul\":8531:8549   */\n      0x24\n      dup3\n      add\n        /* \"#utility.yul\":8524:8554   */\n      mstore\n        /* \"#utility.yul\":8590:8624   */\n      0x455243313135353a2061646472657373207a65726f206973206e6f7420612076\n        /* \"#utility.yul\":8570:8588   */\n      0x44\n      dup3\n      add\n        /* \"#utility.yul\":8563:8625   */\n      mstore\n        /* \"#utility.yul\":8661:8673   */\n      0x616c6964206f776e657200000000000000000000000000000000000000000000\n        /* \"#utility.yul\":8641:8659   */\n      0x64\n      dup3\n      add\n        /* \"#utility.yul\":8634:8674   */\n      mstore\n        /* \"#utility.yul\":8691:8710   */\n      0x84\n      add\n        /* \".deps/npm/@openzeppelin/contracts/token/ERC1155/ERC1155.sol\":2290:2366  require(account != address(0), \"ERC1155: address zero is not a valid owner\") */\n    tag_55:\n      mload(0x40)\n      dup1\n      swap2\n      sub\n      swap1\n      revert\n    tag_54:\n      pop\n        /* \".deps/npm/@openzeppelin/contracts/token/ERC1155/ERC1155.sol\":2383:2392  _balances */\n      0x00\n        /* \".deps/npm/@openzeppelin/contracts/token/ERC1155/ERC1155.sol\":2383:2396  _balances[id] */\n      dup2\n      dup2\n      mstore\n      0x20\n      dup2\n      dup2\n      mstore\n      0x40\n      dup1\n      dup4\n      keccak256\n        /* \".deps/npm/@openzeppelin/contracts/token/ERC1155/ERC1155.sol\":2383:2405  _balances[id][account] */\n      0xffffffffffffffffffffffffffffffffffffffff\n      dup7\n      and\n      dup5\n      mstore\n      swap1\n      swap2\n      mstore\n      swap1\n      keccak256\n      sload\n        /* \".deps/npm/@openzeppelin/contracts/token/ERC1155/ERC1155.sol\":2185:2412  function balanceOf(address account, uint256 id) public view virtual override returns (uint256) {... */\n    tag_53:\n      swap3\n      swap2\n      pop\n      pop\n      jump\t// out\n        /* \".deps/npm/@openzeppelin/contracts/token/ERC1155/ERC1155.sol\":1236:1541  function supportsInterface(bytes4 interfaceId) public view virtual override(ERC165, IERC165) returns (bool) {... */\n    tag_21:\n        /* \".deps/npm/@openzeppelin/contracts/token/ERC1155/ERC1155.sol\":1338:1342  bool */\n      0x00\n        /* \".deps/npm/@openzeppelin/contracts/token/ERC1155/ERC1155.sol\":1373:1414  interfaceId == type(IERC1155).interfaceId */\n      0xffffffff00000000000000000000000000000000000000000000000000000000\n      dup3\n      and\n        /* \".deps/npm/@openzeppelin/contracts/token/ERC1155/ERC1155.sol\":1388:1414  type(IERC1155).interfaceId */\n      0xd9b67a2600000000000000000000000000000000000000000000000000000000\n        /* \".deps/npm/@openzeppelin/contracts/token/ERC1155/ERC1155.sol\":1373:1414  interfaceId == type(IERC1155).interfaceId */\n      eq\n      dup1\n        /* \".deps/npm/@openzeppelin/contracts/token/ERC1155/ERC1155.sol\":1373:1482  interfaceId == type(IERC1155).interfaceId ||... */\n      tag_58\n      jumpi\n      pop\n        /* \".deps/npm/@openzeppelin/contracts/token/ERC1155/ERC1155.sol\":1430:1482  interfaceId == type(IERC1155MetadataURI).interfaceId */\n      0xffffffff00000000000000000000000000000000000000000000000000000000\n      dup3\n      and\n        /* \".deps/npm/@openzeppelin/contracts/token/ERC1155/ERC1155.sol\":1445:1482  type(IERC1155MetadataURI).interfaceId */\n      0x0e89341c00000000000000000000000000000000000000000000000000000000\n        /* \".deps/npm/@openzeppelin/contracts/token/ERC1155/ERC1155.sol\":1430:1482  interfaceId == type(IERC1155MetadataURI).interfaceId */\n      eq\n        /* \".deps/npm/@openzeppelin/contracts/token/ERC1155/ERC1155.sol\":1373:1482  interfaceId == type(IERC1155).interfaceId ||... */\n    tag_58:\n        /* \".deps/npm/@openzeppelin/contracts/token/ERC1155/ERC1155.sol\":1373:1534  interfaceId == type(IERC1155).interfaceId ||... */\n      dup1\n      tag_53\n      jumpi\n      pop\n        /* \".deps/npm/@openzeppelin/contracts/utils/introspection/ERC165.sol\":952:977  type(IERC165).interfaceId */\n      0x01ffc9a700000000000000000000000000000000000000000000000000000000\n        /* \".deps/npm/@openzeppelin/contracts/utils/introspection/ERC165.sol\":937:977  interfaceId == type(IERC165).interfaceId */\n      0xffffffff00000000000000000000000000000000000000000000000000000000\n      dup4\n      and\n      eq\n        /* \".deps/npm/@openzeppelin/contracts/token/ERC1155/ERC1155.sol\":1498:1534  super.supportsInterface(interfaceId) */\n      tag_53\n        /* \".deps/npm/@openzeppelin/contracts/utils/introspection/ERC165.sol\":829:984  function supportsInterface(bytes4 interfaceId) public view virtual override returns (bool) {... */\n      jump\n        /* \".deps/npm/@openzeppelin/contracts/token/ERC1155/ERC1155.sol\":1940:2043  function uri(uint256) public view virtual override returns (string memory) {... */\n    tag_27:\n        /* \".deps/npm/@openzeppelin/contracts/token/ERC1155/ERC1155.sol\":2000:2013  string memory */\n      0x60\n        /* \".deps/npm/@openzeppelin/contracts/token/ERC1155/ERC1155.sol\":2032:2036  _uri */\n      0x02\n        /* \".deps/npm/@openzeppelin/contracts/token/ERC1155/ERC1155.sol\":2025:2036  return _uri */\n      dup1\n      sload\n      tag_63\n      swap1\n      tag_64\n      jump\t// in\n    tag_63:\n      dup1\n      0x1f\n      add\n      0x20\n      dup1\n      swap2\n      div\n      mul\n      0x20\n      add\n      mload(0x40)\n      swap1\n      dup2\n      add\n      0x40\n      mstore\n      dup1\n      swap3\n      swap2\n      swap1\n      dup2\n      dup2\n      mstore\n      0x20\n      add\n      dup3\n      dup1\n      sload\n      tag_65\n      swap1\n      tag_64\n      jump\t// in\n    tag_65:\n      dup1\n      iszero\n      tag_66\n      jumpi\n      dup1\n      0x1f\n      lt\n      tag_67\n      jumpi\n      0x0100\n      dup1\n      dup4\n      sload\n      div\n      mul\n      dup4\n      mstore\n      swap2\n      0x20\n      add\n      swap2\n      jump(tag_66)\n    tag_67:\n      dup3\n      add\n      swap2\n      swap1\n      0x00\n      mstore\n      keccak256(0x00, 0x20)\n      swap1\n    tag_68:\n      dup2\n      sload\n      dup2\n      mstore\n      swap1\n      0x01\n      add\n      swap1\n      0x20\n      add\n      dup1\n      dup4\n      gt\n      tag_68\n      jumpi\n      dup3\n      swap1\n      sub\n      0x1f\n      and\n      dup3\n      add\n      swap2\n    tag_66:\n      pop\n      pop\n      pop\n      pop\n      pop\n      swap1\n      pop\n        /* \".deps/npm/@openzeppelin/contracts/token/ERC1155/ERC1155.sol\":1940:2043  function uri(uint256) public view virtual override returns (string memory) {... */\n      swap2\n      swap1\n      pop\n      jump\t// out\n        /* \".deps/npm/@openzeppelin/contracts/token/ERC1155/ERC1155.sol\":4064:4490  function safeBatchTransferFrom(... */\n    tag_33:\n        /* \".deps/npm/@openzeppelin/contracts/token/ERC1155/ERC1155.sol\":4289:4309  from == _msgSender() */\n      0xffffffffffffffffffffffffffffffffffffffff\n      dup6\n      and\n        /* \".deps/npm/@openzeppelin/contracts/utils/Context.sol\":719:729  msg.sender */\n      caller\n        /* \".deps/npm/@openzeppelin/contracts/token/ERC1155/ERC1155.sol\":4289:4309  from == _msgSender() */\n      eq\n      dup1\n        /* \".deps/npm/@openzeppelin/contracts/token/ERC1155/ERC1155.sol\":4289:4349  from == _msgSender() || isApprovedForAll(from, _msgSender()) */\n      tag_73\n      jumpi\n      pop\n        /* \".deps/npm/@openzeppelin/contracts/token/ERC1155/ERC1155.sol\":4313:4349  isApprovedForAll(from, _msgSender()) */\n      tag_73\n        /* \".deps/npm/@openzeppelin/contracts/token/ERC1155/ERC1155.sol\":4330:4334  from */\n      dup6\n        /* \".deps/npm/@openzeppelin/contracts/utils/Context.sol\":719:729  msg.sender */\n      caller\n        /* \".deps/npm/@openzeppelin/contracts/token/ERC1155/ERC1155.sol\":3365:3531  function isApprovedForAll(address account, address operator) public view virtual override returns (bool) {... */\n      tag_45\n      jump\t// in\n        /* \".deps/npm/@openzeppelin/contracts/token/ERC1155/ERC1155.sol\":4313:4349  isApprovedForAll(from, _msgSender()) */\n    tag_73:\n        /* \".deps/npm/@openzeppelin/contracts/token/ERC1155/ERC1155.sol\":4268:4421  require(... */\n      tag_75\n      jumpi\n      mload(0x40)\n      shl(0xe5, 0x461bcd)\n      dup2\n      mstore\n        /* \"#utility.yul\":9365:9367   */\n      0x20\n        /* \".deps/npm/@openzeppelin/contracts/token/ERC1155/ERC1155.sol\":4268:4421  require(... */\n      0x04\n      dup3\n      add\n        /* \"#utility.yul\":9347:9368   */\n      mstore\n        /* \"#utility.yul\":9404:9406   */\n      0x2e\n        /* \"#utility.yul\":9384:9402   */\n      0x24\n      dup3\n      add\n        /* \"#utility.yul\":9377:9407   */\n      mstore\n        /* \"#utility.yul\":9443:9477   */\n      0x455243313135353a2063616c6c6572206973206e6f7420746f6b656e206f776e\n        /* \"#utility.yul\":9423:9441   */\n      0x44\n      dup3\n      add\n        /* \"#utility.yul\":9416:9478   */\n      mstore\n        /* \"#utility.yul\":9514:9530   */\n      0x6572206f7220617070726f766564000000000000000000000000000000000000\n        /* \"#utility.yul\":9494:9512   */\n      0x64\n      dup3\n      add\n        /* \"#utility.yul\":9487:9531   */\n      mstore\n        /* \"#utility.yul\":9548:9567   */\n      0x84\n      add\n        /* \".deps/npm/@openzeppelin/contracts/token/ERC1155/ERC1155.sol\":4268:4421  require(... */\n      tag_55\n        /* \"#utility.yul\":9163:9573   */\n      jump\n        /* \".deps/npm/@openzeppelin/contracts/token/ERC1155/ERC1155.sol\":4268:4421  require(... */\n    tag_75:\n        /* \".deps/npm/@openzeppelin/contracts/token/ERC1155/ERC1155.sol\":4431:4483  _safeBatchTransferFrom(from, to, ids, amounts, data) */\n      tag_78\n        /* \".deps/npm/@openzeppelin/contracts/token/ERC1155/ERC1155.sol\":4454:4458  from */\n      dup6\n        /* \".deps/npm/@openzeppelin/contracts/token/ERC1155/ERC1155.sol\":4460:4462  to */\n      dup6\n        /* \".deps/npm/@openzeppelin/contracts/token/ERC1155/ERC1155.sol\":4464:4467  ids */\n      dup6\n        /* \".deps/npm/@openzeppelin/contracts/token/ERC1155/ERC1155.sol\":4469:4476  amounts */\n      dup6\n        /* \".deps/npm/@openzeppelin/contracts/token/ERC1155/ERC1155.sol\":4478:4482  data */\n      dup6\n        /* \".deps/npm/@openzeppelin/contracts/token/ERC1155/ERC1155.sol\":4431:4453  _safeBatchTransferFrom */\n      tag_79\n        /* \".deps/npm/@openzeppelin/contracts/token/ERC1155/ERC1155.sol\":4431:4483  _safeBatchTransferFrom(from, to, ids, amounts, data) */\n      jump\t// in\n    tag_78:\n        /* \".deps/npm/@openzeppelin/contracts/token/ERC1155/ERC1155.sol\":4064:4490  function safeBatchTransferFrom(... */\n      pop\n      pop\n      pop\n      pop\n      pop\n      jump\t// out\n        /* \".deps/npm/@openzeppelin/contracts/token/ERC1155/ERC1155.sol\":2569:3077  function balanceOfBatch(address[] memory accounts, uint256[] memory ids)... */\n    tag_37:\n        /* \".deps/npm/@openzeppelin/contracts/token/ERC1155/ERC1155.sol\":2720:2736  uint256[] memory */\n      0x60\n        /* \".deps/npm/@openzeppelin/contracts/token/ERC1155/ERC1155.sol\":2779:2782  ids */\n      dup2\n        /* \".deps/npm/@openzeppelin/contracts/token/ERC1155/ERC1155.sol\":2779:2789  ids.length */\n      mload\n        /* \".deps/npm/@openzeppelin/contracts/token/ERC1155/ERC1155.sol\":2760:2768  accounts */\n      dup4\n        /* \".deps/npm/@openzeppelin/contracts/token/ERC1155/ERC1155.sol\":2760:2775  accounts.length */\n      mload\n        /* \".deps/npm/@openzeppelin/contracts/token/ERC1155/ERC1155.sol\":2760:2789  accounts.length == ids.length */\n      eq\n        /* \".deps/npm/@openzeppelin/contracts/token/ERC1155/ERC1155.sol\":2752:2835  require(accounts.length == ids.length, \"ERC1155: accounts and ids length mismatch\") */\n      tag_81\n      jumpi\n      mload(0x40)\n      shl(0xe5, 0x461bcd)\n      dup2\n      mstore\n        /* \"#utility.yul\":9780:9782   */\n      0x20\n        /* \".deps/npm/@openzeppelin/contracts/token/ERC1155/ERC1155.sol\":2752:2835  require(accounts.length == ids.length, \"ERC1155: accounts and ids length mismatch\") */\n      0x04\n      dup3\n      add\n        /* \"#utility.yul\":9762:9783   */\n      mstore\n        /* \"#utility.yul\":9819:9821   */\n      0x29\n        /* \"#utility.yul\":9799:9817   */\n      0x24\n      dup3\n      add\n        /* \"#utility.yul\":9792:9822   */\n      mstore\n        /* \"#utility.yul\":9858:9892   */\n      0x455243313135353a206163636f756e747320616e6420696473206c656e677468\n        /* \"#utility.yul\":9838:9856   */\n      0x44\n      dup3\n      add\n        /* \"#utility.yul\":9831:9893   */\n      mstore\n        /* \"#utility.yul\":9929:9940   */\n      0x206d69736d617463680000000000000000000000000000000000000000000000\n        /* \"#utility.yul\":9909:9927   */\n      0x64\n      dup3\n      add\n        /* \"#utility.yul\":9902:9941   */\n      mstore\n        /* \"#utility.yul\":9958:9977   */\n      0x84\n      add\n        /* \".deps/npm/@openzeppelin/contracts/token/ERC1155/ERC1155.sol\":2752:2835  require(accounts.length == ids.length, \"ERC1155: accounts and ids length mismatch\") */\n      tag_55\n        /* \"#utility.yul\":9578:9983   */\n      jump\n        /* \".deps/npm/@openzeppelin/contracts/token/ERC1155/ERC1155.sol\":2752:2835  require(accounts.length == ids.length, \"ERC1155: accounts and ids length mismatch\") */\n    tag_81:\n        /* \".deps/npm/@openzeppelin/contracts/token/ERC1155/ERC1155.sol\":2846:2876  uint256[] memory batchBalances */\n      0x00\n        /* \".deps/npm/@openzeppelin/contracts/token/ERC1155/ERC1155.sol\":2893:2901  accounts */\n      dup4\n        /* \".deps/npm/@openzeppelin/contracts/token/ERC1155/ERC1155.sol\":2893:2908  accounts.length */\n      mload\n        /* \".deps/npm/@openzeppelin/contracts/token/ERC1155/ERC1155.sol\":2879:2909  new uint256[](accounts.length) */\n      0xffffffffffffffff\n      dup2\n      gt\n      iszero\n      tag_85\n      jumpi\n      tag_85\n      tag_86\n      jump\t// in\n    tag_85:\n      mload(0x40)\n      swap1\n      dup1\n      dup3\n      mstore\n      dup1\n      0x20\n      mul\n      0x20\n      add\n      dup3\n      add\n      0x40\n      mstore\n      dup1\n      iszero\n      tag_87\n      jumpi\n      dup2\n      0x20\n      add\n      0x20\n      dup3\n      mul\n      dup1\n      calldatasize\n      dup4\n      calldatacopy\n      add\n      swap1\n      pop\n    tag_87:\n      pop\n        /* \".deps/npm/@openzeppelin/contracts/token/ERC1155/ERC1155.sol\":2846:2909  uint256[] memory batchBalances = new uint256[](accounts.length) */\n      swap1\n      pop\n        /* \".deps/npm/@openzeppelin/contracts/token/ERC1155/ERC1155.sol\":2925:2934  uint256 i */\n      0x00\n        /* \".deps/npm/@openzeppelin/contracts/token/ERC1155/ERC1155.sol\":2920:3040  for (uint256 i = 0; i < accounts.length; ++i) {... */\n    tag_88:\n        /* \".deps/npm/@openzeppelin/contracts/token/ERC1155/ERC1155.sol\":2944:2952  accounts */\n      dup5\n        /* \".deps/npm/@openzeppelin/contracts/token/ERC1155/ERC1155.sol\":2944:2959  accounts.length */\n      mload\n        /* \".deps/npm/@openzeppelin/contracts/token/ERC1155/ERC1155.sol\":2940:2941  i */\n      dup2\n        /* \".deps/npm/@openzeppelin/contracts/token/ERC1155/ERC1155.sol\":2940:2959  i < accounts.length */\n      lt\n        /* \".deps/npm/@openzeppelin/contracts/token/ERC1155/ERC1155.sol\":2920:3040  for (uint256 i = 0; i < accounts.length; ++i) {... */\n      iszero\n      tag_89\n      jumpi\n        /* \".deps/npm/@openzeppelin/contracts/token/ERC1155/ERC1155.sol\":2999:3029  balanceOf(accounts[i], ids[i]) */\n      tag_91\n        /* \".deps/npm/@openzeppelin/contracts/token/ERC1155/ERC1155.sol\":3009:3017  accounts */\n      dup6\n        /* \".deps/npm/@openzeppelin/contracts/token/ERC1155/ERC1155.sol\":3018:3019  i */\n      dup3\n        /* \".deps/npm/@openzeppelin/contracts/token/ERC1155/ERC1155.sol\":3009:3020  accounts[i] */\n      dup2\n      mload\n      dup2\n      lt\n      tag_93\n      jumpi\n      tag_93\n      tag_94\n      jump\t// in\n    tag_93:\n      0x20\n      mul\n      0x20\n      add\n      add\n      mload\n        /* \".deps/npm/@openzeppelin/contracts/token/ERC1155/ERC1155.sol\":3022:3025  ids */\n      dup6\n        /* \".deps/npm/@openzeppelin/contracts/token/ERC1155/ERC1155.sol\":3026:3027  i */\n      dup4\n        /* \".deps/npm/@openzeppelin/contracts/token/ERC1155/ERC1155.sol\":3022:3028  ids[i] */\n      dup2\n      mload\n      dup2\n      lt\n      tag_96\n      jumpi\n      tag_96\n      tag_94\n      jump\t// in\n    tag_96:\n      0x20\n      mul\n      0x20\n      add\n      add\n      mload\n        /* \".deps/npm/@openzeppelin/contracts/token/ERC1155/ERC1155.sol\":2999:3008  balanceOf */\n      tag_15\n        /* \".deps/npm/@openzeppelin/contracts/token/ERC1155/ERC1155.sol\":2999:3029  balanceOf(accounts[i], ids[i]) */\n      jump\t// in\n    tag_91:\n        /* \".deps/npm/@openzeppelin/contracts/token/ERC1155/ERC1155.sol\":2980:2993  batchBalances */\n      dup3\n        /* \".deps/npm/@openzeppelin/contracts/token/ERC1155/ERC1155.sol\":2994:2995  i */\n      dup3\n        /* \".deps/npm/@openzeppelin/contracts/token/ERC1155/ERC1155.sol\":2980:2996  batchBalances[i] */\n      dup2\n      mload\n      dup2\n      lt\n      tag_98\n      jumpi\n      tag_98\n      tag_94\n      jump\t// in\n    tag_98:\n      0x20\n      swap1\n      dup2\n      mul\n      swap2\n      swap1\n      swap2\n      add\n      add\n        /* \".deps/npm/@openzeppelin/contracts/token/ERC1155/ERC1155.sol\":2980:3029  batchBalances[i] = balanceOf(accounts[i], ids[i]) */\n      mstore\n        /* \".deps/npm/@openzeppelin/contracts/token/ERC1155/ERC1155.sol\":2961:2964  ++i */\n      tag_99\n      dup2\n      tag_100\n      jump\t// in\n    tag_99:\n      swap1\n      pop\n        /* \".deps/npm/@openzeppelin/contracts/token/ERC1155/ERC1155.sol\":2920:3040  for (uint256 i = 0; i < accounts.length; ++i) {... */\n      jump(tag_88)\n    tag_89:\n      pop\n        /* \".deps/npm/@openzeppelin/contracts/token/ERC1155/ERC1155.sol\":3057:3070  batchBalances */\n      swap4\n        /* \".deps/npm/@openzeppelin/contracts/token/ERC1155/ERC1155.sol\":2569:3077  function balanceOfBatch(address[] memory accounts, uint256[] memory ids)... */\n      swap3\n      pop\n      pop\n      pop\n      jump\t// out\n        /* \".deps/npm/@openzeppelin/contracts/token/ERC1155/ERC1155.sol\":3145:3298  function setApprovalForAll(address operator, bool approved) public virtual override {... */\n    tag_43:\n        /* \".deps/npm/@openzeppelin/contracts/token/ERC1155/ERC1155.sol\":3239:3291  _setApprovalForAll(_msgSender(), operator, approved) */\n      tag_102\n        /* \".deps/npm/@openzeppelin/contracts/utils/Context.sol\":719:729  msg.sender */\n      caller\n        /* \".deps/npm/@openzeppelin/contracts/token/ERC1155/ERC1155.sol\":3272:3280  operator */\n      dup4\n        /* \".deps/npm/@openzeppelin/contracts/token/ERC1155/ERC1155.sol\":3282:3290  approved */\n      dup4\n        /* \".deps/npm/@openzeppelin/contracts/token/ERC1155/ERC1155.sol\":3239:3257  _setApprovalForAll */\n      tag_104\n        /* \".deps/npm/@openzeppelin/contracts/token/ERC1155/ERC1155.sol\":3239:3291  _setApprovalForAll(_msgSender(), operator, approved) */\n      jump\t// in\n    tag_102:\n        /* \".deps/npm/@openzeppelin/contracts/token/ERC1155/ERC1155.sol\":3145:3298  function setApprovalForAll(address operator, bool approved) public virtual override {... */\n      pop\n      pop\n      jump\t// out\n        /* \".deps/npm/@openzeppelin/contracts/token/ERC1155/ERC1155.sol\":3598:3992  function safeTransferFrom(... */\n    tag_52:\n        /* \".deps/npm/@openzeppelin/contracts/token/ERC1155/ERC1155.sol\":3798:3818  from == _msgSender() */\n      0xffffffffffffffffffffffffffffffffffffffff\n      dup6\n      and\n        /* \".deps/npm/@openzeppelin/contracts/utils/Context.sol\":719:729  msg.sender */\n      caller\n        /* \".deps/npm/@openzeppelin/contracts/token/ERC1155/ERC1155.sol\":3798:3818  from == _msgSender() */\n      eq\n      dup1\n        /* \".deps/npm/@openzeppelin/contracts/token/ERC1155/ERC1155.sol\":3798:3858  from == _msgSender() || isApprovedForAll(from, _msgSender()) */\n      tag_109\n      jumpi\n      pop\n        /* \".deps/npm/@openzeppelin/contracts/token/ERC1155/ERC1155.sol\":3822:3858  isApprovedForAll(from, _msgSender()) */\n      tag_109\n        /* \".deps/npm/@openzeppelin/contracts/token/ERC1155/ERC1155.sol\":3839:3843  from */\n      dup6\n        /* \".deps/npm/@openzeppelin/contracts/utils/Context.sol\":719:729  msg.sender */\n      caller\n        /* \".deps/npm/@openzeppelin/contracts/token/ERC1155/ERC1155.sol\":3365:3531  function isApprovedForAll(address account, address operator) public view virtual override returns (bool) {... */\n      tag_45\n      jump\t// in\n        /* \".deps/npm/@openzeppelin/contracts/token/ERC1155/ERC1155.sol\":3822:3858  isApprovedForAll(from, _msgSender()) */\n    tag_109:\n        /* \".deps/npm/@openzeppelin/contracts/token/ERC1155/ERC1155.sol\":3777:3930  require(... */\n      tag_111\n      jumpi\n      mload(0x40)\n      shl(0xe5, 0x461bcd)\n      dup2\n      mstore\n        /* \"#utility.yul\":9365:9367   */\n      0x20\n        /* \".deps/npm/@openzeppelin/contracts/token/ERC1155/ERC1155.sol\":3777:3930  require(... */\n      0x04\n      dup3\n      add\n        /* \"#utility.yul\":9347:9368   */\n      mstore\n        /* \"#utility.yul\":9404:9406   */\n      0x2e\n        /* \"#utility.yul\":9384:9402   */\n      0x24\n      dup3\n      add\n        /* \"#utility.yul\":9377:9407   */\n      mstore\n        /* \"#utility.yul\":9443:9477   */\n      0x455243313135353a2063616c6c6572206973206e6f7420746f6b656e206f776e\n        /* \"#utility.yul\":9423:9441   */\n      0x44\n      dup3\n      add\n        /* \"#utility.yul\":9416:9478   */\n      mstore\n        /* \"#utility.yul\":9514:9530   */\n      0x6572206f7220617070726f766564000000000000000000000000000000000000\n        /* \"#utility.yul\":9494:9512   */\n      0x64\n      dup3\n      add\n        /* \"#utility.yul\":9487:9531   */\n      mstore\n        /* \"#utility.yul\":9548:9567   */\n      0x84\n      add\n        /* \".deps/npm/@openzeppelin/contracts/token/ERC1155/ERC1155.sol\":3777:3930  require(... */\n      tag_55\n        /* \"#utility.yul\":9163:9573   */\n      jump\n        /* \".deps/npm/@openzeppelin/contracts/token/ERC1155/ERC1155.sol\":3777:3930  require(... */\n    tag_111:\n        /* \".deps/npm/@openzeppelin/contracts/token/ERC1155/ERC1155.sol\":3940:3985  _safeTransferFrom(from, to, id, amount, data) */\n      tag_78\n        /* \".deps/npm/@openzeppelin/contracts/token/ERC1155/ERC1155.sol\":3958:3962  from */\n      dup6\n        /* \".deps/npm/@openzeppelin/contracts/token/ERC1155/ERC1155.sol\":3964:3966  to */\n      dup6\n        /* \".deps/npm/@openzeppelin/contracts/token/ERC1155/ERC1155.sol\":3968:3970  id */\n      dup6\n        /* \".deps/npm/@openzeppelin/contracts/token/ERC1155/ERC1155.sol\":3972:3978  amount */\n      dup6\n        /* \".deps/npm/@openzeppelin/contracts/token/ERC1155/ERC1155.sol\":3980:3984  data */\n      dup6\n        /* \".deps/npm/@openzeppelin/contracts/token/ERC1155/ERC1155.sol\":3940:3957  _safeTransferFrom */\n      tag_114\n        /* \".deps/npm/@openzeppelin/contracts/token/ERC1155/ERC1155.sol\":3940:3985  _safeTransferFrom(from, to, id, amount, data) */\n      jump\t// in\n        /* \".deps/npm/@openzeppelin/contracts/token/ERC1155/ERC1155.sol\":6233:7348  function _safeBatchTransferFrom(... */\n    tag_79:\n        /* \".deps/npm/@openzeppelin/contracts/token/ERC1155/ERC1155.sol\":6453:6460  amounts */\n      dup2\n        /* \".deps/npm/@openzeppelin/contracts/token/ERC1155/ERC1155.sol\":6453:6467  amounts.length */\n      mload\n        /* \".deps/npm/@openzeppelin/contracts/token/ERC1155/ERC1155.sol\":6439:6442  ids */\n      dup4\n        /* \".deps/npm/@openzeppelin/contracts/token/ERC1155/ERC1155.sol\":6439:6449  ids.length */\n      mload\n        /* \".deps/npm/@openzeppelin/contracts/token/ERC1155/ERC1155.sol\":6439:6467  ids.length == amounts.length */\n      eq\n        /* \".deps/npm/@openzeppelin/contracts/token/ERC1155/ERC1155.sol\":6431:6512  require(ids.length == amounts.length, \"ERC1155: ids and amounts length mismatch\") */\n      tag_118\n      jumpi\n      mload(0x40)\n      shl(0xe5, 0x461bcd)\n      dup2\n      mstore\n        /* \"#utility.yul\":10768:10770   */\n      0x20\n        /* \".deps/npm/@openzeppelin/contracts/token/ERC1155/ERC1155.sol\":6431:6512  require(ids.length == amounts.length, \"ERC1155: ids and amounts length mismatch\") */\n      0x04\n      dup3\n      add\n        /* \"#utility.yul\":10750:10771   */\n      mstore\n        /* \"#utility.yul\":10807:10809   */\n      0x28\n        /* \"#utility.yul\":10787:10805   */\n      0x24\n      dup3\n      add\n        /* \"#utility.yul\":10780:10810   */\n      mstore\n        /* \"#utility.yul\":10846:10880   */\n      0x455243313135353a2069647320616e6420616d6f756e7473206c656e67746820\n        /* \"#utility.yul\":10826:10844   */\n      0x44\n      dup3\n      add\n        /* \"#utility.yul\":10819:10881   */\n      mstore\n        /* \"#utility.yul\":10917:10927   */\n      0x6d69736d61746368000000000000000000000000000000000000000000000000\n        /* \"#utility.yul\":10897:10915   */\n      0x64\n      dup3\n      add\n        /* \"#utility.yul\":10890:10928   */\n      mstore\n        /* \"#utility.yul\":10945:10964   */\n      0x84\n      add\n        /* \".deps/npm/@openzeppelin/contracts/token/ERC1155/ERC1155.sol\":6431:6512  require(ids.length == amounts.length, \"ERC1155: ids and amounts length mismatch\") */\n      tag_55\n        /* \"#utility.yul\":10566:10970   */\n      jump\n        /* \".deps/npm/@openzeppelin/contracts/token/ERC1155/ERC1155.sol\":6431:6512  require(ids.length == amounts.length, \"ERC1155: ids and amounts length mismatch\") */\n    tag_118:\n        /* \".deps/npm/@openzeppelin/contracts/token/ERC1155/ERC1155.sol\":6530:6546  to != address(0) */\n      0xffffffffffffffffffffffffffffffffffffffff\n      dup5\n      and\n        /* \".deps/npm/@openzeppelin/contracts/token/ERC1155/ERC1155.sol\":6522:6588  require(to != address(0), \"ERC1155: transfer to the zero address\") */\n      tag_121\n      jumpi\n      mload(0x40)\n      shl(0xe5, 0x461bcd)\n      dup2\n      mstore\n        /* \"#utility.yul\":11177:11179   */\n      0x20\n        /* \".deps/npm/@openzeppelin/contracts/token/ERC1155/ERC1155.sol\":6522:6588  require(to != address(0), \"ERC1155: transfer to the zero address\") */\n      0x04\n      dup3\n      add\n        /* \"#utility.yul\":11159:11180   */\n      mstore\n        /* \"#utility.yul\":11216:11218   */\n      0x25\n        /* \"#utility.yul\":11196:11214   */\n      0x24\n      dup3\n      add\n        /* \"#utility.yul\":11189:11219   */\n      mstore\n        /* \"#utility.yul\":11255:11289   */\n      0x455243313135353a207472616e7366657220746f20746865207a65726f206164\n        /* \"#utility.yul\":11235:11253   */\n      0x44\n      dup3\n      add\n        /* \"#utility.yul\":11228:11290   */\n      mstore\n        /* \"#utility.yul\":11326:11333   */\n      0x6472657373000000000000000000000000000000000000000000000000000000\n        /* \"#utility.yul\":11306:11324   */\n      0x64\n      dup3\n      add\n        /* \"#utility.yul\":11299:11334   */\n      mstore\n        /* \"#utility.yul\":11351:11370   */\n      0x84\n      add\n        /* \".deps/npm/@openzeppelin/contracts/token/ERC1155/ERC1155.sol\":6522:6588  require(to != address(0), \"ERC1155: transfer to the zero address\") */\n      tag_55\n        /* \"#utility.yul\":10975:11376   */\n      jump\n        /* \".deps/npm/@openzeppelin/contracts/token/ERC1155/ERC1155.sol\":6522:6588  require(to != address(0), \"ERC1155: transfer to the zero address\") */\n    tag_121:\n        /* \".deps/npm/@openzeppelin/contracts/utils/Context.sol\":719:729  msg.sender */\n      caller\n        /* \".deps/npm/@openzeppelin/contracts/token/ERC1155/ERC1155.sol\":6599:6615  address operator */\n      0x00\n        /* \".deps/npm/@openzeppelin/contracts/token/ERC1155/ERC1155.sol\":6712:7123  for (uint256 i = 0; i < ids.length; ++i) {... */\n    tag_127:\n        /* \".deps/npm/@openzeppelin/contracts/token/ERC1155/ERC1155.sol\":6736:6739  ids */\n      dup5\n        /* \".deps/npm/@openzeppelin/contracts/token/ERC1155/ERC1155.sol\":6736:6746  ids.length */\n      mload\n        /* \".deps/npm/@openzeppelin/contracts/token/ERC1155/ERC1155.sol\":6732:6733  i */\n      dup2\n        /* \".deps/npm/@openzeppelin/contracts/token/ERC1155/ERC1155.sol\":6732:6746  i < ids.length */\n      lt\n        /* \".deps/npm/@openzeppelin/contracts/token/ERC1155/ERC1155.sol\":6712:7123  for (uint256 i = 0; i < ids.length; ++i) {... */\n      iszero\n      tag_128\n      jumpi\n        /* \".deps/npm/@openzeppelin/contracts/token/ERC1155/ERC1155.sol\":6767:6777  uint256 id */\n      0x00\n        /* \".deps/npm/@openzeppelin/contracts/token/ERC1155/ERC1155.sol\":6780:6783  ids */\n      dup6\n        /* \".deps/npm/@openzeppelin/contracts/token/ERC1155/ERC1155.sol\":6784:6785  i */\n      dup3\n        /* \".deps/npm/@openzeppelin/contracts/token/ERC1155/ERC1155.sol\":6780:6786  ids[i] */\n      dup2\n      mload\n      dup2\n      lt\n      tag_131\n      jumpi\n      tag_131\n      tag_94\n      jump\t// in\n    tag_131:\n      0x20\n      mul\n      0x20\n      add\n      add\n      mload\n        /* \".deps/npm/@openzeppelin/contracts/token/ERC1155/ERC1155.sol\":6767:6786  uint256 id = ids[i] */\n      swap1\n      pop\n        /* \".deps/npm/@openzeppelin/contracts/token/ERC1155/ERC1155.sol\":6800:6814  uint256 amount */\n      0x00\n        /* \".deps/npm/@openzeppelin/contracts/token/ERC1155/ERC1155.sol\":6817:6824  amounts */\n      dup6\n        /* \".deps/npm/@openzeppelin/contracts/token/ERC1155/ERC1155.sol\":6825:6826  i */\n      dup4\n        /* \".deps/npm/@openzeppelin/contracts/token/ERC1155/ERC1155.sol\":6817:6827  amounts[i] */\n      dup2\n      mload\n      dup2\n      lt\n      tag_133\n      jumpi\n      tag_133\n      tag_94\n      jump\t// in\n    tag_133:\n      0x20\n      swap1\n      dup2\n      mul\n      swap2\n      swap1\n      swap2\n      add\n      dup2\n      add\n      mload\n        /* \".deps/npm/@openzeppelin/contracts/token/ERC1155/ERC1155.sol\":6842:6861  uint256 fromBalance */\n      0x00\n        /* \".deps/npm/@openzeppelin/contracts/token/ERC1155/ERC1155.sol\":6864:6877  _balances[id] */\n      dup5\n      dup2\n      mstore\n      dup1\n      dup4\n      mstore\n      0x40\n      dup1\n      dup3\n      keccak256\n        /* \".deps/npm/@openzeppelin/contracts/token/ERC1155/ERC1155.sol\":6864:6883  _balances[id][from] */\n      0xffffffffffffffffffffffffffffffffffffffff\n      dup15\n      and\n      dup4\n      mstore\n      swap1\n      swap4\n      mstore\n      swap2\n      swap1\n      swap2\n      keccak256\n      sload\n        /* \".deps/npm/@openzeppelin/contracts/token/ERC1155/ERC1155.sol\":6817:6827  amounts[i] */\n      swap1\n      swap2\n      pop\n        /* \".deps/npm/@openzeppelin/contracts/token/ERC1155/ERC1155.sol\":6905:6926  fromBalance >= amount */\n      dup2\n      dup2\n      lt\n      iszero\n        /* \".deps/npm/@openzeppelin/contracts/token/ERC1155/ERC1155.sol\":6897:6973  require(fromBalance >= amount, \"ERC1155: insufficient balance for transfer\") */\n      tag_134\n      jumpi\n      mload(0x40)\n      shl(0xe5, 0x461bcd)\n      dup2\n      mstore\n        /* \"#utility.yul\":11583:11585   */\n      0x20\n        /* \".deps/npm/@openzeppelin/contracts/token/ERC1155/ERC1155.sol\":6897:6973  require(fromBalance >= amount, \"ERC1155: insufficient balance for transfer\") */\n      0x04\n      dup3\n      add\n        /* \"#utility.yul\":11565:11586   */\n      mstore\n        /* \"#utility.yul\":11622:11624   */\n      0x2a\n        /* \"#utility.yul\":11602:11620   */\n      0x24\n      dup3\n      add\n        /* \"#utility.yul\":11595:11625   */\n      mstore\n        /* \"#utility.yul\":11661:11695   */\n      0x455243313135353a20696e73756666696369656e742062616c616e636520666f\n        /* \"#utility.yul\":11641:11659   */\n      0x44\n      dup3\n      add\n        /* \"#utility.yul\":11634:11696   */\n      mstore\n        /* \"#utility.yul\":11732:11744   */\n      0x72207472616e7366657200000000000000000000000000000000000000000000\n        /* \"#utility.yul\":11712:11730   */\n      0x64\n      dup3\n      add\n        /* \"#utility.yul\":11705:11745   */\n      mstore\n        /* \"#utility.yul\":11762:11781   */\n      0x84\n      add\n        /* \".deps/npm/@openzeppelin/contracts/token/ERC1155/ERC1155.sol\":6897:6973  require(fromBalance >= amount, \"ERC1155: insufficient balance for transfer\") */\n      tag_55\n        /* \"#utility.yul\":11381:11787   */\n      jump\n        /* \".deps/npm/@openzeppelin/contracts/token/ERC1155/ERC1155.sol\":6897:6973  require(fromBalance >= amount, \"ERC1155: insufficient balance for transfer\") */\n    tag_134:\n        /* \".deps/npm/@openzeppelin/contracts/token/ERC1155/ERC1155.sol\":7015:7024  _balances */\n      0x00\n        /* \".deps/npm/@openzeppelin/contracts/token/ERC1155/ERC1155.sol\":7015:7028  _balances[id] */\n      dup4\n      dup2\n      mstore\n      0x20\n      dup2\n      dup2\n      mstore\n      0x40\n      dup1\n      dup4\n      keccak256\n        /* \".deps/npm/@openzeppelin/contracts/token/ERC1155/ERC1155.sol\":7015:7034  _balances[id][from] */\n      0xffffffffffffffffffffffffffffffffffffffff\n      dup15\n      dup2\n      and\n      dup6\n      mstore\n      swap3\n      mstore\n      dup1\n      dup4\n      keccak256\n        /* \".deps/npm/@openzeppelin/contracts/token/ERC1155/ERC1155.sol\":7037:7057  fromBalance - amount */\n      dup6\n      dup6\n      sub\n        /* \".deps/npm/@openzeppelin/contracts/token/ERC1155/ERC1155.sol\":7015:7057  _balances[id][from] = fromBalance - amount */\n      swap1\n      sstore\n        /* \".deps/npm/@openzeppelin/contracts/token/ERC1155/ERC1155.sol\":7085:7102  _balances[id][to] */\n      swap1\n      dup12\n      and\n      dup3\n      mstore\n      dup2\n      keccak256\n        /* \".deps/npm/@openzeppelin/contracts/token/ERC1155/ERC1155.sol\":7085:7112  _balances[id][to] += amount */\n      dup1\n      sload\n        /* \".deps/npm/@openzeppelin/contracts/token/ERC1155/ERC1155.sol\":7037:7057  fromBalance - amount */\n      dup5\n      swap3\n        /* \".deps/npm/@openzeppelin/contracts/token/ERC1155/ERC1155.sol\":7015:7024  _balances */\n      swap1\n        /* \".deps/npm/@openzeppelin/contracts/token/ERC1155/ERC1155.sol\":7085:7112  _balances[id][to] += amount */\n      tag_137\n      swap1\n        /* \".deps/npm/@openzeppelin/contracts/token/ERC1155/ERC1155.sol\":7037:7057  fromBalance - amount */\n      dup5\n      swap1\n        /* \".deps/npm/@openzeppelin/contracts/token/ERC1155/ERC1155.sol\":7085:7112  _balances[id][to] += amount */\n      tag_138\n      jump\t// in\n    tag_137:\n      swap3\n      pop\n      pop\n      dup2\n      swap1\n      sstore\n      pop\n        /* \".deps/npm/@openzeppelin/contracts/token/ERC1155/ERC1155.sol\":6753:7123  {... */\n      pop\n      pop\n      pop\n        /* \".deps/npm/@openzeppelin/contracts/token/ERC1155/ERC1155.sol\":6748:6751  ++i */\n      dup1\n      tag_139\n      swap1\n      tag_100\n      jump\t// in\n    tag_139:\n      swap1\n      pop\n        /* \".deps/npm/@openzeppelin/contracts/token/ERC1155/ERC1155.sol\":6712:7123  for (uint256 i = 0; i < ids.length; ++i) {... */\n      jump(tag_127)\n    tag_128:\n      pop\n        /* \".deps/npm/@openzeppelin/contracts/token/ERC1155/ERC1155.sol\":7168:7170  to */\n      dup5\n        /* \".deps/npm/@openzeppelin/contracts/token/ERC1155/ERC1155.sol\":7138:7185  TransferBatch(operator, from, to, ids, amounts) */\n      0xffffffffffffffffffffffffffffffffffffffff\n      and\n        /* \".deps/npm/@openzeppelin/contracts/token/ERC1155/ERC1155.sol\":7162:7166  from */\n      dup7\n        /* \".deps/npm/@openzeppelin/contracts/token/ERC1155/ERC1155.sol\":7138:7185  TransferBatch(operator, from, to, ids, amounts) */\n      0xffffffffffffffffffffffffffffffffffffffff\n      and\n        /* \".deps/npm/@openzeppelin/contracts/token/ERC1155/ERC1155.sol\":7152:7160  operator */\n      dup3\n        /* \".deps/npm/@openzeppelin/contracts/token/ERC1155/ERC1155.sol\":7138:7185  TransferBatch(operator, from, to, ids, amounts) */\n      0xffffffffffffffffffffffffffffffffffffffff\n      and\n      0x4a39dc06d4c0dbc64b70af90fd698a233a518aa5d07e595d983b8c0526c8f7fb\n        /* \".deps/npm/@openzeppelin/contracts/token/ERC1155/ERC1155.sol\":7172:7175  ids */\n      dup8\n        /* \".deps/npm/@openzeppelin/contracts/token/ERC1155/ERC1155.sol\":7177:7184  amounts */\n      dup8\n        /* \".deps/npm/@openzeppelin/contracts/token/ERC1155/ERC1155.sol\":7138:7185  TransferBatch(operator, from, to, ids, amounts) */\n      mload(0x40)\n      tag_140\n      swap3\n      swap2\n      swap1\n      tag_141\n      jump\t// in\n    tag_140:\n      mload(0x40)\n      dup1\n      swap2\n      sub\n      swap1\n      log4\n        /* \".deps/npm/@openzeppelin/contracts/token/ERC1155/ERC1155.sol\":7266:7341  _doSafeBatchTransferAcceptanceCheck(operator, from, to, ids, amounts, data) */\n      tag_144\n        /* \".deps/npm/@openzeppelin/contracts/token/ERC1155/ERC1155.sol\":7302:7310  operator */\n      dup2\n        /* \".deps/npm/@openzeppelin/contracts/token/ERC1155/ERC1155.sol\":7312:7316  from */\n      dup8\n        /* \".deps/npm/@openzeppelin/contracts/token/ERC1155/ERC1155.sol\":7318:7320  to */\n      dup8\n        /* \".deps/npm/@openzeppelin/contracts/token/ERC1155/ERC1155.sol\":7322:7325  ids */\n      dup8\n        /* \".deps/npm/@openzeppelin/contracts/token/ERC1155/ERC1155.sol\":7327:7334  amounts */\n      dup8\n        /* \".deps/npm/@openzeppelin/contracts/token/ERC1155/ERC1155.sol\":7336:7340  data */\n      dup8\n        /* \".deps/npm/@openzeppelin/contracts/token/ERC1155/ERC1155.sol\":7266:7301  _doSafeBatchTransferAcceptanceCheck */\n      tag_145\n        /* \".deps/npm/@openzeppelin/contracts/token/ERC1155/ERC1155.sol\":7266:7341  _doSafeBatchTransferAcceptanceCheck(operator, from, to, ids, amounts, data) */\n      jump\t// in\n    tag_144:\n        /* \".deps/npm/@openzeppelin/contracts/token/ERC1155/ERC1155.sol\":6421:7348  {... */\n      pop\n        /* \".deps/npm/@openzeppelin/contracts/token/ERC1155/ERC1155.sol\":6233:7348  function _safeBatchTransferFrom(... */\n      pop\n      pop\n      pop\n      pop\n      pop\n      jump\t// out\n        /* \".deps/npm/@openzeppelin/contracts/token/ERC1155/ERC1155.sol\":12910:13233  function _setApprovalForAll(... */\n    tag_104:\n        /* \".deps/npm/@openzeppelin/contracts/token/ERC1155/ERC1155.sol\":13060:13068  operator */\n      dup2\n        /* \".deps/npm/@openzeppelin/contracts/token/ERC1155/ERC1155.sol\":13051:13068  owner != operator */\n      0xffffffffffffffffffffffffffffffffffffffff\n      and\n        /* \".deps/npm/@openzeppelin/contracts/token/ERC1155/ERC1155.sol\":13051:13056  owner */\n      dup4\n        /* \".deps/npm/@openzeppelin/contracts/token/ERC1155/ERC1155.sol\":13051:13068  owner != operator */\n      0xffffffffffffffffffffffffffffffffffffffff\n      and\n      sub\n        /* \".deps/npm/@openzeppelin/contracts/token/ERC1155/ERC1155.sol\":13043:13114  require(owner != operator, \"ERC1155: setting approval status for self\") */\n      tag_147\n      jumpi\n      mload(0x40)\n      shl(0xe5, 0x461bcd)\n      dup2\n      mstore\n        /* \"#utility.yul\":12594:12596   */\n      0x20\n        /* \".deps/npm/@openzeppelin/contracts/token/ERC1155/ERC1155.sol\":13043:13114  require(owner != operator, \"ERC1155: setting approval status for self\") */\n      0x04\n      dup3\n      add\n        /* \"#utility.yul\":12576:12597   */\n      mstore\n        /* \"#utility.yul\":12633:12635   */\n      0x29\n        /* \"#utility.yul\":12613:12631   */\n      0x24\n      dup3\n      add\n        /* \"#utility.yul\":12606:12636   */\n      mstore\n        /* \"#utility.yul\":12672:12706   */\n      0x455243313135353a2073657474696e6720617070726f76616c20737461747573\n        /* \"#utility.yul\":12652:12670   */\n      0x44\n      dup3\n      add\n        /* \"#utility.yul\":12645:12707   */\n      mstore\n        /* \"#utility.yul\":12743:12754   */\n      0x20666f722073656c660000000000000000000000000000000000000000000000\n        /* \"#utility.yul\":12723:12741   */\n      0x64\n      dup3\n      add\n        /* \"#utility.yul\":12716:12755   */\n      mstore\n        /* \"#utility.yul\":12772:12791   */\n      0x84\n      add\n        /* \".deps/npm/@openzeppelin/contracts/token/ERC1155/ERC1155.sol\":13043:13114  require(owner != operator, \"ERC1155: setting approval status for self\") */\n      tag_55\n        /* \"#utility.yul\":12392:12797   */\n      jump\n        /* \".deps/npm/@openzeppelin/contracts/token/ERC1155/ERC1155.sol\":13043:13114  require(owner != operator, \"ERC1155: setting approval status for self\") */\n    tag_147:\n        /* \".deps/npm/@openzeppelin/contracts/token/ERC1155/ERC1155.sol\":13124:13149  _operatorApprovals[owner] */\n      0xffffffffffffffffffffffffffffffffffffffff\n      dup4\n      dup2\n      and\n      0x00\n      dup2\n      dup2\n      mstore\n        /* \".deps/npm/@openzeppelin/contracts/token/ERC1155/ERC1155.sol\":13124:13142  _operatorApprovals */\n      0x01\n        /* \".deps/npm/@openzeppelin/contracts/token/ERC1155/ERC1155.sol\":13124:13149  _operatorApprovals[owner] */\n      0x20\n      swap1\n      dup2\n      mstore\n      0x40\n      dup1\n      dup4\n      keccak256\n        /* \".deps/npm/@openzeppelin/contracts/token/ERC1155/ERC1155.sol\":13124:13159  _operatorApprovals[owner][operator] */\n      swap5\n      dup8\n      and\n      dup1\n      dup5\n      mstore\n      swap5\n      dup3\n      mstore\n      swap2\n      dup3\n      swap1\n      keccak256\n        /* \".deps/npm/@openzeppelin/contracts/token/ERC1155/ERC1155.sol\":13124:13170  _operatorApprovals[owner][operator] = approved */\n      dup1\n      sload\n      0xffffffffffffffffffffffffffffffffffffffffffffffffffffffffffffff00\n      and\n      dup7\n      iszero\n      iszero\n      swap1\n      dup2\n      or\n      swap1\n      swap2\n      sstore\n        /* \".deps/npm/@openzeppelin/contracts/token/ERC1155/ERC1155.sol\":13185:13226  ApprovalForAll(owner, operator, approved) */\n      swap2\n      mload\n        /* \"#utility.yul\":1228:1269   */\n      swap2\n      dup3\n      mstore\n        /* \".deps/npm/@openzeppelin/contracts/token/ERC1155/ERC1155.sol\":13185:13226  ApprovalForAll(owner, operator, approved) */\n      0x17307eab39ab6107e8899845ad3d59bd9653f200f220920489ca2b5937696c31\n      swap2\n        /* \"#utility.yul\":1201:1219   */\n      add\n        /* \".deps/npm/@openzeppelin/contracts/token/ERC1155/ERC1155.sol\":13185:13226  ApprovalForAll(owner, operator, approved) */\n      mload(0x40)\n      dup1\n      swap2\n      sub\n      swap1\n      log3\n        /* \".deps/npm/@openzeppelin/contracts/token/ERC1155/ERC1155.sol\":12910:13233  function _setApprovalForAll(... */\n      pop\n      pop\n      pop\n      jump\t// out\n        /* \".deps/npm/@openzeppelin/contracts/token/ERC1155/ERC1155.sol\":4940:5887  function _safeTransferFrom(... */\n    tag_114:\n        /* \".deps/npm/@openzeppelin/contracts/token/ERC1155/ERC1155.sol\":5121:5137  to != address(0) */\n      0xffffffffffffffffffffffffffffffffffffffff\n      dup5\n      and\n        /* \".deps/npm/@openzeppelin/contracts/token/ERC1155/ERC1155.sol\":5113:5179  require(to != address(0), \"ERC1155: transfer to the zero address\") */\n      tag_152\n      jumpi\n      mload(0x40)\n      shl(0xe5, 0x461bcd)\n      dup2\n      mstore\n        /* \"#utility.yul\":11177:11179   */\n      0x20\n        /* \".deps/npm/@openzeppelin/contracts/token/ERC1155/ERC1155.sol\":5113:5179  require(to != address(0), \"ERC1155: transfer to the zero address\") */\n      0x04\n      dup3\n      add\n        /* \"#utility.yul\":11159:11180   */\n      mstore\n        /* \"#utility.yul\":11216:11218   */\n      0x25\n        /* \"#utility.yul\":11196:11214   */\n      0x24\n      dup3\n      add\n        /* \"#utility.yul\":11189:11219   */\n      mstore\n        /* \"#utility.yul\":11255:11289   */\n      0x455243313135353a207472616e7366657220746f20746865207a65726f206164\n        /* \"#utility.yul\":11235:11253   */\n      0x44\n      dup3\n      add\n        /* \"#utility.yul\":11228:11290   */\n      mstore\n        /* \"#utility.yul\":11326:11333   */\n      0x6472657373000000000000000000000000000000000000000000000000000000\n        /* \"#utility.yul\":11306:11324   */\n      0x64\n      dup3\n      add\n        /* \"#utility.yul\":11299:11334   */\n      mstore\n        /* \"#utility.yul\":11351:11370   */\n      0x84\n      add\n        /* \".deps/npm/@openzeppelin/contracts/token/ERC1155/ERC1155.sol\":5113:5179  require(to != address(0), \"ERC1155: transfer to the zero address\") */\n      tag_55\n        /* \"#utility.yul\":10975:11376   */\n      jump\n        /* \".deps/npm/@openzeppelin/contracts/token/ERC1155/ERC1155.sol\":5113:5179  require(to != address(0), \"ERC1155: transfer to the zero address\") */\n    tag_152:\n        /* \".deps/npm/@openzeppelin/contracts/utils/Context.sol\":719:729  msg.sender */\n      caller\n        /* \".deps/npm/@openzeppelin/contracts/token/ERC1155/ERC1155.sol\":5190:5206  address operator */\n      0x00\n        /* \".deps/npm/@openzeppelin/contracts/token/ERC1155/ERC1155.sol\":5254:5275  _asSingletonArray(id) */\n      tag_155\n        /* \".deps/npm/@openzeppelin/contracts/token/ERC1155/ERC1155.sol\":5272:5274  id */\n      dup6\n        /* \".deps/npm/@openzeppelin/contracts/token/ERC1155/ERC1155.sol\":5254:5271  _asSingletonArray */\n      tag_156\n        /* \".deps/npm/@openzeppelin/contracts/token/ERC1155/ERC1155.sol\":5254:5275  _asSingletonArray(id) */\n      jump\t// in\n    tag_155:\n        /* \".deps/npm/@openzeppelin/contracts/token/ERC1155/ERC1155.sol\":5231:5275  uint256[] memory ids = _asSingletonArray(id) */\n      swap1\n      pop\n        /* \".deps/npm/@openzeppelin/contracts/token/ERC1155/ERC1155.sol\":5285:5309  uint256[] memory amounts */\n      0x00\n        /* \".deps/npm/@openzeppelin/contracts/token/ERC1155/ERC1155.sol\":5312:5337  _asSingletonArray(amount) */\n      tag_157\n        /* \".deps/npm/@openzeppelin/contracts/token/ERC1155/ERC1155.sol\":5330:5336  amount */\n      dup6\n        /* \".deps/npm/@openzeppelin/contracts/token/ERC1155/ERC1155.sol\":5312:5329  _asSingletonArray */\n      tag_156\n        /* \".deps/npm/@openzeppelin/contracts/token/ERC1155/ERC1155.sol\":5312:5337  _asSingletonArray(amount) */\n      jump\t// in\n    tag_157:\n        /* \".deps/npm/@openzeppelin/contracts/token/ERC1155/ERC1155.sol\":5285:5337  uint256[] memory amounts = _asSingletonArray(amount) */\n      swap1\n      pop\n        /* \".deps/npm/@openzeppelin/contracts/token/ERC1155/ERC1155.sol\":5419:5438  uint256 fromBalance */\n      0x00\n        /* \".deps/npm/@openzeppelin/contracts/token/ERC1155/ERC1155.sol\":5441:5454  _balances[id] */\n      dup7\n      dup2\n      mstore\n      0x20\n      dup2\n      dup2\n      mstore\n      0x40\n      dup1\n      dup4\n      keccak256\n        /* \".deps/npm/@openzeppelin/contracts/token/ERC1155/ERC1155.sol\":5441:5460  _balances[id][from] */\n      0xffffffffffffffffffffffffffffffffffffffff\n      dup13\n      and\n      dup5\n      mstore\n      swap1\n      swap2\n      mstore\n      swap1\n      keccak256\n      sload\n        /* \".deps/npm/@openzeppelin/contracts/token/ERC1155/ERC1155.sol\":5478:5499  fromBalance >= amount */\n      dup6\n      dup2\n      lt\n      iszero\n        /* \".deps/npm/@openzeppelin/contracts/token/ERC1155/ERC1155.sol\":5470:5546  require(fromBalance >= amount, \"ERC1155: insufficient balance for transfer\") */\n      tag_159\n      jumpi\n      mload(0x40)\n      shl(0xe5, 0x461bcd)\n      dup2\n      mstore\n        /* \"#utility.yul\":11583:11585   */\n      0x20\n        /* \".deps/npm/@openzeppelin/contracts/token/ERC1155/ERC1155.sol\":5470:5546  require(fromBalance >= amount, \"ERC1155: insufficient balance for transfer\") */\n      0x04\n      dup3\n      add\n        /* \"#utility.yul\":11565:11586   */\n      mstore\n        /* \"#utility.yul\":11622:11624   */\n      0x2a\n        /* \"#utility.yul\":11602:11620   */\n      0x24\n      dup3\n      add\n        /* \"#utility.yul\":11595:11625   */\n      mstore\n        /* \"#utility.yul\":11661:11695   */\n      0x455243313135353a20696e73756666696369656e742062616c616e636520666f\n        /* \"#utility.yul\":11641:11659   */\n      0x44\n      dup3\n      add\n        /* \"#utility.yul\":11634:11696   */\n      mstore\n        /* \"#utility.yul\":11732:11744   */\n      0x72207472616e7366657200000000000000000000000000000000000000000000\n        /* \"#utility.yul\":11712:11730   */\n      0x64\n      dup3\n      add\n        /* \"#utility.yul\":11705:11745   */\n      mstore\n        /* \"#utility.yul\":11762:11781   */\n      0x84\n      add\n        /* \".deps/npm/@openzeppelin/contracts/token/ERC1155/ERC1155.sol\":5470:5546  require(fromBalance >= amount, \"ERC1155: insufficient balance for transfer\") */\n      tag_55\n        /* \"#utility.yul\":11381:11787   */\n      jump\n        /* \".deps/npm/@openzeppelin/contracts/token/ERC1155/ERC1155.sol\":5470:5546  require(fromBalance >= amount, \"ERC1155: insufficient balance for transfer\") */\n    tag_159:\n        /* \".deps/npm/@openzeppelin/contracts/token/ERC1155/ERC1155.sol\":5580:5589  _balances */\n      0x00\n        /* \".deps/npm/@openzeppelin/contracts/token/ERC1155/ERC1155.sol\":5580:5593  _balances[id] */\n      dup8\n      dup2\n      mstore\n      0x20\n      dup2\n      dup2\n      mstore\n      0x40\n      dup1\n      dup4\n      keccak256\n        /* \".deps/npm/@openzeppelin/contracts/token/ERC1155/ERC1155.sol\":5580:5599  _balances[id][from] */\n      0xffffffffffffffffffffffffffffffffffffffff\n      dup14\n      dup2\n      and\n      dup6\n      mstore\n      swap3\n      mstore\n      dup1\n      dup4\n      keccak256\n        /* \".deps/npm/@openzeppelin/contracts/token/ERC1155/ERC1155.sol\":5602:5622  fromBalance - amount */\n      dup10\n      dup6\n      sub\n        /* \".deps/npm/@openzeppelin/contracts/token/ERC1155/ERC1155.sol\":5580:5622  _balances[id][from] = fromBalance - amount */\n      swap1\n      sstore\n        /* \".deps/npm/@openzeppelin/contracts/token/ERC1155/ERC1155.sol\":5642:5659  _balances[id][to] */\n      swap1\n      dup11\n      and\n      dup3\n      mstore\n      dup2\n      keccak256\n        /* \".deps/npm/@openzeppelin/contracts/token/ERC1155/ERC1155.sol\":5642:5669  _balances[id][to] += amount */\n      dup1\n      sload\n        /* \".deps/npm/@openzeppelin/contracts/token/ERC1155/ERC1155.sol\":5602:5622  fromBalance - amount */\n      dup9\n      swap3\n        /* \".deps/npm/@openzeppelin/contracts/token/ERC1155/ERC1155.sol\":5580:5589  _balances */\n      swap1\n        /* \".deps/npm/@openzeppelin/contracts/token/ERC1155/ERC1155.sol\":5642:5669  _balances[id][to] += amount */\n      tag_161\n      swap1\n        /* \".deps/npm/@openzeppelin/contracts/token/ERC1155/ERC1155.sol\":5602:5622  fromBalance - amount */\n      dup5\n      swap1\n        /* \".deps/npm/@openzeppelin/contracts/token/ERC1155/ERC1155.sol\":5642:5669  _balances[id][to] += amount */\n      tag_138\n      jump\t// in\n    tag_161:\n      swap1\n      swap2\n      sstore\n      pop\n      pop\n        /* \".deps/npm/@openzeppelin/contracts/token/ERC1155/ERC1155.sol\":5685:5731  TransferSingle(operator, from, to, id, amount) */\n      0x40\n      dup1\n      mload\n        /* \"#utility.yul\":12976:13001   */\n      dup9\n      dup2\n      mstore\n        /* \"#utility.yul\":13032:13034   */\n      0x20\n        /* \"#utility.yul\":13017:13035   */\n      dup2\n      add\n        /* \"#utility.yul\":13010:13044   */\n      dup9\n      swap1\n      mstore\n        /* \".deps/npm/@openzeppelin/contracts/token/ERC1155/ERC1155.sol\":5685:5731  TransferSingle(operator, from, to, id, amount) */\n      0xffffffffffffffffffffffffffffffffffffffff\n      dup1\n      dup12\n      and\n      swap3\n      dup13\n      dup3\n      and\n      swap3\n      swap2\n      dup9\n      and\n      swap2\n      0xc3d58168c5ae7397731d063d5bbf3d657854427343f4c083240f7aacaa2d0f62\n      swap2\n        /* \"#utility.yul\":12949:12967   */\n      add\n        /* \".deps/npm/@openzeppelin/contracts/token/ERC1155/ERC1155.sol\":5685:5731  TransferSingle(operator, from, to, id, amount) */\n      mload(0x40)\n      dup1\n      swap2\n      sub\n      swap1\n      log4\n        /* \".deps/npm/@openzeppelin/contracts/token/ERC1155/ERC1155.sol\":5812:5880  _doSafeTransferAcceptanceCheck(operator, from, to, id, amount, data) */\n      tag_165\n        /* \".deps/npm/@openzeppelin/contracts/token/ERC1155/ERC1155.sol\":5843:5851  operator */\n      dup5\n        /* \".deps/npm/@openzeppelin/contracts/token/ERC1155/ERC1155.sol\":5853:5857  from */\n      dup11\n        /* \".deps/npm/@openzeppelin/contracts/token/ERC1155/ERC1155.sol\":5859:5861  to */\n      dup11\n        /* \".deps/npm/@openzeppelin/contracts/token/ERC1155/ERC1155.sol\":5863:5865  id */\n      dup11\n        /* \".deps/npm/@openzeppelin/contracts/token/ERC1155/ERC1155.sol\":5867:5873  amount */\n      dup11\n        /* \".deps/npm/@openzeppelin/contracts/token/ERC1155/ERC1155.sol\":5875:5879  data */\n      dup11\n        /* \".deps/npm/@openzeppelin/contracts/token/ERC1155/ERC1155.sol\":5812:5842  _doSafeTransferAcceptanceCheck */\n      tag_166\n        /* \".deps/npm/@openzeppelin/contracts/token/ERC1155/ERC1155.sol\":5812:5880  _doSafeTransferAcceptanceCheck(operator, from, to, id, amount, data) */\n      jump\t// in\n    tag_165:\n        /* \".deps/npm/@openzeppelin/contracts/token/ERC1155/ERC1155.sol\":5103:5887  {... */\n      pop\n      pop\n      pop\n      pop\n        /* \".deps/npm/@openzeppelin/contracts/token/ERC1155/ERC1155.sol\":4940:5887  function _safeTransferFrom(... */\n      pop\n      pop\n      pop\n      pop\n      pop\n      jump\t// out\n        /* \".deps/npm/@openzeppelin/contracts/token/ERC1155/ERC1155.sol\":16266:17058  function _doSafeBatchTransferAcceptanceCheck(... */\n    tag_145:\n        /* \".deps/npm/@openzeppelin/contracts/token/ERC1155/ERC1155.sol\":16498:16511  to.isContract */\n      0xffffffffffffffffffffffffffffffffffffffff\n      dup5\n      and\n        /* \".deps/npm/@openzeppelin/contracts/utils/Address.sol\":1465:1484  account.code.length */\n      extcodesize\n        /* \".deps/npm/@openzeppelin/contracts/utils/Address.sol\":1465:1488  account.code.length > 0 */\n      iszero\n        /* \".deps/npm/@openzeppelin/contracts/token/ERC1155/ERC1155.sol\":16494:17052  if (to.isContract()) {... */\n      tag_144\n      jumpi\n        /* \".deps/npm/@openzeppelin/contracts/token/ERC1155/ERC1155.sol\":16533:16612  IERC1155Receiver(to).onERC1155BatchReceived(operator, from, ids, amounts, data) */\n      mload(0x40)\n      0xbc197c8100000000000000000000000000000000000000000000000000000000\n      dup2\n      mstore\n        /* \".deps/npm/@openzeppelin/contracts/token/ERC1155/ERC1155.sol\":16533:16576  IERC1155Receiver(to).onERC1155BatchReceived */\n      0xffffffffffffffffffffffffffffffffffffffff\n      dup6\n      and\n      swap1\n      0xbc197c81\n      swap1\n        /* \".deps/npm/@openzeppelin/contracts/token/ERC1155/ERC1155.sol\":16533:16612  IERC1155Receiver(to).onERC1155BatchReceived(operator, from, ids, amounts, data) */\n      tag_173\n      swap1\n        /* \".deps/npm/@openzeppelin/contracts/token/ERC1155/ERC1155.sol\":16577:16585  operator */\n      dup10\n      swap1\n        /* \".deps/npm/@openzeppelin/contracts/token/ERC1155/ERC1155.sol\":16587:16591  from */\n      dup10\n      swap1\n        /* \".deps/npm/@openzeppelin/contracts/token/ERC1155/ERC1155.sol\":16593:16596  ids */\n      dup9\n      swap1\n        /* \".deps/npm/@openzeppelin/contracts/token/ERC1155/ERC1155.sol\":16598:16605  amounts */\n      dup9\n      swap1\n        /* \".deps/npm/@openzeppelin/contracts/token/ERC1155/ERC1155.sol\":16607:16611  data */\n      dup9\n      swap1\n        /* \".deps/npm/@openzeppelin/contracts/token/ERC1155/ERC1155.sol\":16533:16612  IERC1155Receiver(to).onERC1155BatchReceived(operator, from, ids, amounts, data) */\n      0x04\n      add\n      tag_174\n      jump\t// in\n    tag_173:\n      0x20\n      mload(0x40)\n      dup1\n      dup4\n      sub\n      dup2\n      0x00\n      dup8\n      gas\n      call\n      swap3\n      pop\n      pop\n      pop\n      dup1\n      iszero\n      tag_175\n      jumpi\n      pop\n      0x40\n      dup1\n      mload\n      0x1f\n      returndatasize\n      swap1\n      dup2\n      add\n      0xffffffffffffffffffffffffffffffffffffffffffffffffffffffffffffffe0\n      and\n      dup3\n      add\n      swap1\n      swap3\n      mstore\n      tag_176\n      swap2\n      dup2\n      add\n      swap1\n      tag_177\n      jump\t// in\n    tag_176:\n      0x01\n    tag_175:\n        /* \".deps/npm/@openzeppelin/contracts/token/ERC1155/ERC1155.sol\":16529:17042  try IERC1155Receiver(to).onERC1155BatchReceived(operator, from, ids, amounts, data) returns (... */\n      tag_178\n      jumpi\n      tag_182\n      tag_183\n      jump\t// in\n    tag_182:\n      dup1\n      0x08c379a0\n      sub\n      tag_181\n      jumpi\n      pop\n      tag_184\n      tag_185\n      jump\t// in\n    tag_184:\n      dup1\n      tag_186\n      jumpi\n      pop\n      jump(tag_180)\n    tag_186:\n        /* \".deps/npm/@openzeppelin/contracts/token/ERC1155/ERC1155.sol\":16918:16924  reason */\n      dup1\n        /* \".deps/npm/@openzeppelin/contracts/token/ERC1155/ERC1155.sol\":16911:16925  revert(reason) */\n      mload(0x40)\n      shl(0xe5, 0x461bcd)\n      dup2\n      mstore\n      0x04\n      add\n      tag_55\n      swap2\n      swap1\n      tag_29\n      jump\t// in\n        /* \".deps/npm/@openzeppelin/contracts/token/ERC1155/ERC1155.sol\":16529:17042  try IERC1155Receiver(to).onERC1155BatchReceived(operator, from, ids, amounts, data) returns (... */\n    tag_181:\n      pop\n    tag_180:\n        /* \".deps/npm/@openzeppelin/contracts/token/ERC1155/ERC1155.sol\":16965:17027  revert(\"ERC1155: transfer to non-ERC1155Receiver implementer\") */\n      mload(0x40)\n      shl(0xe5, 0x461bcd)\n      dup2\n      mstore\n        /* \"#utility.yul\":15286:15288   */\n      0x20\n        /* \".deps/npm/@openzeppelin/contracts/token/ERC1155/ERC1155.sol\":16965:17027  revert(\"ERC1155: transfer to non-ERC1155Receiver implementer\") */\n      0x04\n      dup3\n      add\n        /* \"#utility.yul\":15268:15289   */\n      mstore\n        /* \"#utility.yul\":15325:15327   */\n      0x34\n        /* \"#utility.yul\":15305:15323   */\n      0x24\n      dup3\n      add\n        /* \"#utility.yul\":15298:15328   */\n      mstore\n        /* \"#utility.yul\":15364:15398   */\n      0x455243313135353a207472616e7366657220746f206e6f6e2d45524331313535\n        /* \"#utility.yul\":15344:15362   */\n      0x44\n      dup3\n      add\n        /* \"#utility.yul\":15337:15399   */\n      mstore\n        /* \"#utility.yul\":15435:15457   */\n      0x526563656976657220696d706c656d656e746572000000000000000000000000\n        /* \"#utility.yul\":15415:15433   */\n      0x64\n      dup3\n      add\n        /* \"#utility.yul\":15408:15458   */\n      mstore\n        /* \"#utility.yul\":15475:15494   */\n      0x84\n      add\n        /* \".deps/npm/@openzeppelin/contracts/token/ERC1155/ERC1155.sol\":16965:17027  revert(\"ERC1155: transfer to non-ERC1155Receiver implementer\") */\n      tag_55\n        /* \"#utility.yul\":15084:15500   */\n      jump\n        /* \".deps/npm/@openzeppelin/contracts/token/ERC1155/ERC1155.sol\":16529:17042  try IERC1155Receiver(to).onERC1155BatchReceived(operator, from, ids, amounts, data) returns (... */\n    tag_178:\n        /* \".deps/npm/@openzeppelin/contracts/token/ERC1155/ERC1155.sol\":16691:16751  response != IERC1155Receiver.onERC1155BatchReceived.selector */\n      0xffffffff00000000000000000000000000000000000000000000000000000000\n      dup2\n      and\n        /* \".deps/npm/@openzeppelin/contracts/token/ERC1155/ERC1155.sol\":16703:16751  IERC1155Receiver.onERC1155BatchReceived.selector */\n      0xbc197c8100000000000000000000000000000000000000000000000000000000\n        /* \".deps/npm/@openzeppelin/contracts/token/ERC1155/ERC1155.sol\":16691:16751  response != IERC1155Receiver.onERC1155BatchReceived.selector */\n      eq\n        /* \".deps/npm/@openzeppelin/contracts/token/ERC1155/ERC1155.sol\":16687:16844  if (response != IERC1155Receiver.onERC1155BatchReceived.selector) {... */\n      tag_191\n      jumpi\n        /* \".deps/npm/@openzeppelin/contracts/token/ERC1155/ERC1155.sol\":16775:16825  revert(\"ERC1155: ERC1155Receiver rejected tokens\") */\n      mload(0x40)\n      shl(0xe5, 0x461bcd)\n      dup2\n      mstore\n        /* \"#utility.yul\":15707:15709   */\n      0x20\n        /* \".deps/npm/@openzeppelin/contracts/token/ERC1155/ERC1155.sol\":16775:16825  revert(\"ERC1155: ERC1155Receiver rejected tokens\") */\n      0x04\n      dup3\n      add\n        /* \"#utility.yul\":15689:15710   */\n      mstore\n        /* \"#utility.yul\":15746:15748   */\n      0x28\n        /* \"#utility.yul\":15726:15744   */\n      0x24\n      dup3\n      add\n        /* \"#utility.yul\":15719:15749   */\n      mstore\n        /* \"#utility.yul\":15785:15819   */\n      0x455243313135353a204552433131353552656365697665722072656a65637465\n        /* \"#utility.yul\":15765:15783   */\n      0x44\n      dup3\n      add\n        /* \"#utility.yul\":15758:15820   */\n      mstore\n        /* \"#utility.yul\":15856:15866   */\n      0x6420746f6b656e73000000000000000000000000000000000000000000000000\n        /* \"#utility.yul\":15836:15854   */\n      0x64\n      dup3\n      add\n        /* \"#utility.yul\":15829:15867   */\n      mstore\n        /* \"#utility.yul\":15884:15903   */\n      0x84\n      add\n        /* \".deps/npm/@openzeppelin/contracts/token/ERC1155/ERC1155.sol\":16775:16825  revert(\"ERC1155: ERC1155Receiver rejected tokens\") */\n      tag_55\n        /* \"#utility.yul\":15505:15909   */\n      jump\n        /* \".deps/npm/@openzeppelin/contracts/token/ERC1155/ERC1155.sol\":16687:16844  if (response != IERC1155Receiver.onERC1155BatchReceived.selector) {... */\n    tag_191:\n        /* \".deps/npm/@openzeppelin/contracts/token/ERC1155/ERC1155.sol\":16613:16858  returns (... */\n      pop\n        /* \".deps/npm/@openzeppelin/contracts/token/ERC1155/ERC1155.sol\":16266:17058  function _doSafeBatchTransferAcceptanceCheck(... */\n      pop\n      pop\n      pop\n      pop\n      pop\n      pop\n      jump\t// out\n        /* \".deps/npm/@openzeppelin/contracts/token/ERC1155/ERC1155.sol\":17064:17257  function _asSingletonArray(uint256 element) private pure returns (uint256[] memory) {... */\n    tag_156:\n        /* \".deps/npm/@openzeppelin/contracts/token/ERC1155/ERC1155.sol\":17183:17199  new uint256[](1) */\n      0x40\n      dup1\n      mload\n        /* \".deps/npm/@openzeppelin/contracts/token/ERC1155/ERC1155.sol\":17197:17198  1 */\n      0x01\n        /* \".deps/npm/@openzeppelin/contracts/token/ERC1155/ERC1155.sol\":17183:17199  new uint256[](1) */\n      dup1\n      dup3\n      mstore\n      dup2\n      dup4\n      add\n      swap1\n      swap3\n      mstore\n        /* \".deps/npm/@openzeppelin/contracts/token/ERC1155/ERC1155.sol\":17130:17146  uint256[] memory */\n      0x60\n      swap2\n        /* \".deps/npm/@openzeppelin/contracts/token/ERC1155/ERC1155.sol\":17158:17180  uint256[] memory array */\n      0x00\n      swap2\n        /* \".deps/npm/@openzeppelin/contracts/token/ERC1155/ERC1155.sol\":17183:17199  new uint256[](1) */\n      swap1\n      0x20\n      dup1\n      dup4\n      add\n      swap1\n      dup1\n      calldatasize\n      dup4\n      calldatacopy\n      add\n      swap1\n      pop\n      pop\n        /* \".deps/npm/@openzeppelin/contracts/token/ERC1155/ERC1155.sol\":17158:17199  uint256[] memory array = new uint256[](1) */\n      swap1\n      pop\n        /* \".deps/npm/@openzeppelin/contracts/token/ERC1155/ERC1155.sol\":17220:17227  element */\n      dup3\n        /* \".deps/npm/@openzeppelin/contracts/token/ERC1155/ERC1155.sol\":17209:17214  array */\n      dup2\n        /* \".deps/npm/@openzeppelin/contracts/token/ERC1155/ERC1155.sol\":17215:17216  0 */\n      0x00\n        /* \".deps/npm/@openzeppelin/contracts/token/ERC1155/ERC1155.sol\":17209:17217  array[0] */\n      dup2\n      mload\n      dup2\n      lt\n      tag_199\n      jumpi\n      tag_199\n      tag_94\n      jump\t// in\n    tag_199:\n      0x20\n      swap1\n      dup2\n      mul\n      swap2\n      swap1\n      swap2\n      add\n      add\n        /* \".deps/npm/@openzeppelin/contracts/token/ERC1155/ERC1155.sol\":17209:17227  array[0] = element */\n      mstore\n        /* \".deps/npm/@openzeppelin/contracts/token/ERC1155/ERC1155.sol\":17245:17250  array */\n      swap3\n        /* \".deps/npm/@openzeppelin/contracts/token/ERC1155/ERC1155.sol\":17064:17257  function _asSingletonArray(uint256 element) private pure returns (uint256[] memory) {... */\n      swap2\n      pop\n      pop\n      jump\t// out\n        /* \".deps/npm/@openzeppelin/contracts/token/ERC1155/ERC1155.sol\":15535:16260  function _doSafeTransferAcceptanceCheck(... */\n    tag_166:\n        /* \".deps/npm/@openzeppelin/contracts/token/ERC1155/ERC1155.sol\":15742:15755  to.isContract */\n      0xffffffffffffffffffffffffffffffffffffffff\n      dup5\n      and\n        /* \".deps/npm/@openzeppelin/contracts/utils/Address.sol\":1465:1484  account.code.length */\n      extcodesize\n        /* \".deps/npm/@openzeppelin/contracts/utils/Address.sol\":1465:1488  account.code.length > 0 */\n      iszero\n        /* \".deps/npm/@openzeppelin/contracts/token/ERC1155/ERC1155.sol\":15738:16254  if (to.isContract()) {... */\n      tag_144\n      jumpi\n        /* \".deps/npm/@openzeppelin/contracts/token/ERC1155/ERC1155.sol\":15777:15849  IERC1155Receiver(to).onERC1155Received(operator, from, id, amount, data) */\n      mload(0x40)\n      0xf23a6e6100000000000000000000000000000000000000000000000000000000\n      dup2\n      mstore\n        /* \".deps/npm/@openzeppelin/contracts/token/ERC1155/ERC1155.sol\":15777:15815  IERC1155Receiver(to).onERC1155Received */\n      0xffffffffffffffffffffffffffffffffffffffff\n      dup6\n      and\n      swap1\n      0xf23a6e61\n      swap1\n        /* \".deps/npm/@openzeppelin/contracts/token/ERC1155/ERC1155.sol\":15777:15849  IERC1155Receiver(to).onERC1155Received(operator, from, id, amount, data) */\n      tag_203\n      swap1\n        /* \".deps/npm/@openzeppelin/contracts/token/ERC1155/ERC1155.sol\":15816:15824  operator */\n      dup10\n      swap1\n        /* \".deps/npm/@openzeppelin/contracts/token/ERC1155/ERC1155.sol\":15826:15830  from */\n      dup10\n      swap1\n        /* \".deps/npm/@openzeppelin/contracts/token/ERC1155/ERC1155.sol\":15832:15834  id */\n      dup9\n      swap1\n        /* \".deps/npm/@openzeppelin/contracts/token/ERC1155/ERC1155.sol\":15836:15842  amount */\n      dup9\n      swap1\n        /* \".deps/npm/@openzeppelin/contracts/token/ERC1155/ERC1155.sol\":15844:15848  data */\n      dup9\n      swap1\n        /* \".deps/npm/@openzeppelin/contracts/token/ERC1155/ERC1155.sol\":15777:15849  IERC1155Receiver(to).onERC1155Received(operator, from, id, amount, data) */\n      0x04\n      add\n      tag_204\n      jump\t// in\n    tag_203:\n      0x20\n      mload(0x40)\n      dup1\n      dup4\n      sub\n      dup2\n      0x00\n      dup8\n      gas\n      call\n      swap3\n      pop\n      pop\n      pop\n      dup1\n      iszero\n      tag_205\n      jumpi\n      pop\n      0x40\n      dup1\n      mload\n      0x1f\n      returndatasize\n      swap1\n      dup2\n      add\n      0xffffffffffffffffffffffffffffffffffffffffffffffffffffffffffffffe0\n      and\n      dup3\n      add\n      swap1\n      swap3\n      mstore\n      tag_206\n      swap2\n      dup2\n      add\n      swap1\n      tag_177\n      jump\t// in\n    tag_206:\n      0x01\n    tag_205:\n        /* \".deps/npm/@openzeppelin/contracts/token/ERC1155/ERC1155.sol\":15773:16244  try IERC1155Receiver(to).onERC1155Received(operator, from, id, amount, data) returns (bytes4 response) {... */\n      tag_207\n      jumpi\n      tag_182\n      tag_183\n      jump\t// in\n    tag_207:\n        /* \".deps/npm/@openzeppelin/contracts/token/ERC1155/ERC1155.sol\":15898:15953  response != IERC1155Receiver.onERC1155Received.selector */\n      0xffffffff00000000000000000000000000000000000000000000000000000000\n      dup2\n      and\n        /* \".deps/npm/@openzeppelin/contracts/token/ERC1155/ERC1155.sol\":15910:15953  IERC1155Receiver.onERC1155Received.selector */\n      0xf23a6e6100000000000000000000000000000000000000000000000000000000\n        /* \".deps/npm/@openzeppelin/contracts/token/ERC1155/ERC1155.sol\":15898:15953  response != IERC1155Receiver.onERC1155Received.selector */\n      eq\n        /* \".deps/npm/@openzeppelin/contracts/token/ERC1155/ERC1155.sol\":15894:16046  if (response != IERC1155Receiver.onERC1155Received.selector) {... */\n      tag_191\n      jumpi\n        /* \".deps/npm/@openzeppelin/contracts/token/ERC1155/ERC1155.sol\":15977:16027  revert(\"ERC1155: ERC1155Receiver rejected tokens\") */\n      mload(0x40)\n      shl(0xe5, 0x461bcd)\n      dup2\n      mstore\n        /* \"#utility.yul\":15707:15709   */\n      0x20\n        /* \".deps/npm/@openzeppelin/contracts/token/ERC1155/ERC1155.sol\":15977:16027  revert(\"ERC1155: ERC1155Receiver rejected tokens\") */\n      0x04\n      dup3\n      add\n        /* \"#utility.yul\":15689:15710   */\n      mstore\n        /* \"#utility.yul\":15746:15748   */\n      0x28\n        /* \"#utility.yul\":15726:15744   */\n      0x24\n      dup3\n      add\n        /* \"#utility.yul\":15719:15749   */\n      mstore\n        /* \"#utility.yul\":15785:15819   */\n      0x455243313135353a204552433131353552656365697665722072656a65637465\n        /* \"#utility.yul\":15765:15783   */\n      0x44\n      dup3\n      add\n        /* \"#utility.yul\":15758:15820   */\n      mstore\n        /* \"#utility.yul\":15856:15866   */\n      0x6420746f6b656e73000000000000000000000000000000000000000000000000\n        /* \"#utility.yul\":15836:15854   */\n      0x64\n      dup3\n      add\n        /* \"#utility.yul\":15829:15867   */\n      mstore\n        /* \"#utility.yul\":15884:15903   */\n      0x84\n      add\n        /* \".deps/npm/@openzeppelin/contracts/token/ERC1155/ERC1155.sol\":15977:16027  revert(\"ERC1155: ERC1155Receiver rejected tokens\") */\n      tag_55\n        /* \"#utility.yul\":15505:15909   */\n      jump\n        /* \"#utility.yul\":14:210   */\n    tag_220:\n        /* \"#utility.yul\":82:102   */\n      dup1\n      calldataload\n        /* \"#utility.yul\":142:184   */\n      0xffffffffffffffffffffffffffffffffffffffff\n        /* \"#utility.yul\":131:185   */\n      dup2\n      and\n        /* \"#utility.yul\":121:186   */\n      dup2\n      eq\n        /* \"#utility.yul\":111:204   */\n      tag_231\n      jumpi\n        /* \"#utility.yul\":200:201   */\n      0x00\n        /* \"#utility.yul\":197:198   */\n      dup1\n        /* \"#utility.yul\":190:202   */\n      revert\n        /* \"#utility.yul\":111:204   */\n    tag_231:\n        /* \"#utility.yul\":14:210   */\n      swap2\n      swap1\n      pop\n      jump\t// out\n        /* \"#utility.yul\":215:469   */\n    tag_14:\n        /* \"#utility.yul\":283:289   */\n      0x00\n        /* \"#utility.yul\":291:297   */\n      dup1\n        /* \"#utility.yul\":344:346   */\n      0x40\n        /* \"#utility.yul\":332:341   */\n      dup4\n        /* \"#utility.yul\":323:330   */\n      dup6\n        /* \"#utility.yul\":319:342   */\n      sub\n        /* \"#utility.yul\":315:347   */\n      slt\n        /* \"#utility.yul\":312:364   */\n      iszero\n      tag_233\n      jumpi\n        /* \"#utility.yul\":360:361   */\n      0x00\n        /* \"#utility.yul\":357:358   */\n      dup1\n        /* \"#utility.yul\":350:362   */\n      revert\n        /* \"#utility.yul\":312:364   */\n    tag_233:\n        /* \"#utility.yul\":383:412   */\n      tag_234\n        /* \"#utility.yul\":402:411   */\n      dup4\n        /* \"#utility.yul\":383:412   */\n      tag_220\n      jump\t// in\n    tag_234:\n        /* \"#utility.yul\":373:412   */\n      swap5\n        /* \"#utility.yul\":459:461   */\n      0x20\n        /* \"#utility.yul\":444:462   */\n      swap4\n      swap1\n      swap4\n      add\n        /* \"#utility.yul\":431:463   */\n      calldataload\n      swap4\n      pop\n      pop\n      pop\n        /* \"#utility.yul\":215:469   */\n      jump\t// out\n        /* \"#utility.yul\":656:833   */\n    tag_221:\n        /* \"#utility.yul\":741:807   */\n      0xffffffff00000000000000000000000000000000000000000000000000000000\n        /* \"#utility.yul\":734:739   */\n      dup2\n        /* \"#utility.yul\":730:808   */\n      and\n        /* \"#utility.yul\":723:728   */\n      dup2\n        /* \"#utility.yul\":720:809   */\n      eq\n        /* \"#utility.yul\":710:827   */\n      tag_237\n      jumpi\n        /* \"#utility.yul\":823:824   */\n      0x00\n        /* \"#utility.yul\":820:821   */\n      dup1\n        /* \"#utility.yul\":813:825   */\n      revert\n        /* \"#utility.yul\":710:827   */\n    tag_237:\n        /* \"#utility.yul\":656:833   */\n      pop\n      jump\t// out\n        /* \"#utility.yul\":838:1083   */\n    tag_20:\n        /* \"#utility.yul\":896:902   */\n      0x00\n        /* \"#utility.yul\":949:951   */\n      0x20\n        /* \"#utility.yul\":937:946   */\n      dup3\n        /* \"#utility.yul\":928:935   */\n      dup5\n        /* \"#utility.yul\":924:947   */\n      sub\n        /* \"#utility.yul\":920:952   */\n      slt\n        /* \"#utility.yul\":917:969   */\n      iszero\n      tag_239\n      jumpi\n        /* \"#utility.yul\":965:966   */\n      0x00\n        /* \"#utility.yul\":962:963   */\n      dup1\n        /* \"#utility.yul\":955:967   */\n      revert\n        /* \"#utility.yul\":917:969   */\n    tag_239:\n        /* \"#utility.yul\":1004:1013   */\n      dup2\n        /* \"#utility.yul\":991:1014   */\n      calldataload\n        /* \"#utility.yul\":1023:1053   */\n      tag_240\n        /* \"#utility.yul\":1047:1052   */\n      dup2\n        /* \"#utility.yul\":1023:1053   */\n      tag_221\n      jump\t// in\n    tag_240:\n        /* \"#utility.yul\":1072:1077   */\n      swap4\n        /* \"#utility.yul\":838:1083   */\n      swap3\n      pop\n      pop\n      pop\n      jump\t// out\n        /* \"#utility.yul\":1280:1460   */\n    tag_26:\n        /* \"#utility.yul\":1339:1345   */\n      0x00\n        /* \"#utility.yul\":1392:1394   */\n      0x20\n        /* \"#utility.yul\":1380:1389   */\n      dup3\n        /* \"#utility.yul\":1371:1378   */\n      dup5\n        /* \"#utility.yul\":1367:1390   */\n      sub\n        /* \"#utility.yul\":1363:1395   */\n      slt\n        /* \"#utility.yul\":1360:1412   */\n      iszero\n      tag_243\n      jumpi\n        /* \"#utility.yul\":1408:1409   */\n      0x00\n        /* \"#utility.yul\":1405:1406   */\n      dup1\n        /* \"#utility.yul\":1398:1410   */\n      revert\n        /* \"#utility.yul\":1360:1412   */\n    tag_243:\n      pop\n        /* \"#utility.yul\":1431:1454   */\n      calldataload\n      swap2\n        /* \"#utility.yul\":1280:1460   */\n      swap1\n      pop\n      jump\t// out\n        /* \"#utility.yul\":1465:1947   */\n    tag_222:\n        /* \"#utility.yul\":1507:1510   */\n      0x00\n        /* \"#utility.yul\":1545:1550   */\n      dup2\n        /* \"#utility.yul\":1539:1551   */\n      mload\n        /* \"#utility.yul\":1572:1578   */\n      dup1\n        /* \"#utility.yul\":1567:1570   */\n      dup5\n        /* \"#utility.yul\":1560:1579   */\n      mstore\n        /* \"#utility.yul\":1597:1598   */\n      0x00\n        /* \"#utility.yul\":1607:1769   */\n    tag_245:\n        /* \"#utility.yul\":1621:1627   */\n      dup2\n        /* \"#utility.yul\":1618:1619   */\n      dup2\n        /* \"#utility.yul\":1615:1628   */\n      lt\n        /* \"#utility.yul\":1607:1769   */\n      iszero\n      tag_247\n      jumpi\n        /* \"#utility.yul\":1683:1687   */\n      0x20\n        /* \"#utility.yul\":1739:1752   */\n      dup2\n      dup6\n      add\n        /* \"#utility.yul\":1735:1757   */\n      dup2\n      add\n        /* \"#utility.yul\":1729:1758   */\n      mload\n        /* \"#utility.yul\":1711:1722   */\n      dup7\n      dup4\n      add\n        /* \"#utility.yul\":1707:1727   */\n      dup3\n      add\n        /* \"#utility.yul\":1700:1759   */\n      mstore\n        /* \"#utility.yul\":1636:1648   */\n      add\n        /* \"#utility.yul\":1607:1769   */\n      jump(tag_245)\n    tag_247:\n        /* \"#utility.yul\":1611:1614   */\n      pop\n        /* \"#utility.yul\":1814:1815   */\n      0x00\n        /* \"#utility.yul\":1807:1811   */\n      0x20\n        /* \"#utility.yul\":1798:1804   */\n      dup3\n        /* \"#utility.yul\":1793:1796   */\n      dup7\n        /* \"#utility.yul\":1789:1805   */\n      add\n        /* \"#utility.yul\":1785:1812   */\n      add\n        /* \"#utility.yul\":1778:1816   */\n      mstore\n        /* \"#utility.yul\":1936:1940   */\n      0x20\n        /* \"#utility.yul\":1866:1932   */\n      0xffffffffffffffffffffffffffffffffffffffffffffffffffffffffffffffe0\n        /* \"#utility.yul\":1861:1863   */\n      0x1f\n        /* \"#utility.yul\":1853:1859   */\n      dup4\n        /* \"#utility.yul\":1849:1864   */\n      add\n        /* \"#utility.yul\":1845:1933   */\n      and\n        /* \"#utility.yul\":1840:1843   */\n      dup6\n        /* \"#utility.yul\":1836:1934   */\n      add\n        /* \"#utility.yul\":1832:1941   */\n      add\n        /* \"#utility.yul\":1825:1941   */\n      swap2\n      pop\n      pop\n        /* \"#utility.yul\":1465:1947   */\n      swap3\n      swap2\n      pop\n      pop\n      jump\t// out\n        /* \"#utility.yul\":1952:2172   */\n    tag_29:\n        /* \"#utility.yul\":2101:2103   */\n      0x20\n        /* \"#utility.yul\":2090:2099   */\n      dup2\n        /* \"#utility.yul\":2083:2104   */\n      mstore\n        /* \"#utility.yul\":2064:2068   */\n      0x00\n        /* \"#utility.yul\":2121:2166   */\n      tag_240\n        /* \"#utility.yul\":2162:2164   */\n      0x20\n        /* \"#utility.yul\":2151:2160   */\n      dup4\n        /* \"#utility.yul\":2147:2165   */\n      add\n        /* \"#utility.yul\":2139:2145   */\n      dup5\n        /* \"#utility.yul\":2121:2166   */\n      tag_222\n      jump\t// in\n        /* \"#utility.yul\":2177:2361   */\n    tag_86:\n        /* \"#utility.yul\":2229:2306   */\n      0x4e487b7100000000000000000000000000000000000000000000000000000000\n        /* \"#utility.yul\":2226:2227   */\n      0x00\n        /* \"#utility.yul\":2219:2307   */\n      mstore\n        /* \"#utility.yul\":2326:2330   */\n      0x41\n        /* \"#utility.yul\":2323:2324   */\n      0x04\n        /* \"#utility.yul\":2316:2331   */\n      mstore\n        /* \"#utility.yul\":2350:2354   */\n      0x24\n        /* \"#utility.yul\":2347:2348   */\n      0x00\n        /* \"#utility.yul\":2340:2355   */\n      revert\n        /* \"#utility.yul\":2366:2674   */\n    tag_223:\n        /* \"#utility.yul\":2472:2538   */\n      0xffffffffffffffffffffffffffffffffffffffffffffffffffffffffffffffe0\n        /* \"#utility.yul\":2467:2469   */\n      0x1f\n        /* \"#utility.yul\":2461:2465   */\n      dup4\n        /* \"#utility.yul\":2457:2470   */\n      add\n        /* \"#utility.yul\":2453:2539   */\n      and\n        /* \"#utility.yul\":2445:2451   */\n      dup2\n        /* \"#utility.yul\":2441:2540   */\n      add\n        /* \"#utility.yul\":2606:2612   */\n      dup2\n        /* \"#utility.yul\":2594:2604   */\n      dup2\n        /* \"#utility.yul\":2591:2613   */\n      lt\n        /* \"#utility.yul\":2570:2588   */\n      0xffffffffffffffff\n        /* \"#utility.yul\":2558:2568   */\n      dup3\n        /* \"#utility.yul\":2555:2589   */\n      gt\n        /* \"#utility.yul\":2552:2614   */\n      or\n        /* \"#utility.yul\":2549:2637   */\n      iszero\n      tag_253\n      jumpi\n        /* \"#utility.yul\":2617:2635   */\n      tag_253\n      tag_86\n      jump\t// in\n    tag_253:\n        /* \"#utility.yul\":2653:2655   */\n      0x40\n        /* \"#utility.yul\":2646:2668   */\n      mstore\n      pop\n      pop\n        /* \"#utility.yul\":2366:2674   */\n      jump\t// out\n        /* \"#utility.yul\":2679:2862   */\n    tag_224:\n        /* \"#utility.yul\":2739:2743   */\n      0x00\n        /* \"#utility.yul\":2772:2790   */\n      0xffffffffffffffff\n        /* \"#utility.yul\":2764:2770   */\n      dup3\n        /* \"#utility.yul\":2761:2791   */\n      gt\n        /* \"#utility.yul\":2758:2814   */\n      iszero\n      tag_256\n      jumpi\n        /* \"#utility.yul\":2794:2812   */\n      tag_256\n      tag_86\n      jump\t// in\n    tag_256:\n      pop\n        /* \"#utility.yul\":2839:2840   */\n      0x05\n        /* \"#utility.yul\":2835:2849   */\n      shl\n        /* \"#utility.yul\":2851:2855   */\n      0x20\n        /* \"#utility.yul\":2831:2856   */\n      add\n      swap1\n        /* \"#utility.yul\":2679:2862   */\n      jump\t// out\n        /* \"#utility.yul\":2867:3591   */\n    tag_225:\n        /* \"#utility.yul\":2921:2926   */\n      0x00\n        /* \"#utility.yul\":2974:2977   */\n      dup3\n        /* \"#utility.yul\":2967:2971   */\n      0x1f\n        /* \"#utility.yul\":2959:2965   */\n      dup4\n        /* \"#utility.yul\":2955:2972   */\n      add\n        /* \"#utility.yul\":2951:2978   */\n      slt\n        /* \"#utility.yul\":2941:2996   */\n      tag_258\n      jumpi\n        /* \"#utility.yul\":2992:2993   */\n      0x00\n        /* \"#utility.yul\":2989:2990   */\n      dup1\n        /* \"#utility.yul\":2982:2994   */\n      revert\n        /* \"#utility.yul\":2941:2996   */\n    tag_258:\n        /* \"#utility.yul\":3028:3034   */\n      dup2\n        /* \"#utility.yul\":3015:3035   */\n      calldataload\n        /* \"#utility.yul\":3054:3058   */\n      0x20\n        /* \"#utility.yul\":3077:3120   */\n      tag_259\n        /* \"#utility.yul\":3117:3119   */\n      dup3\n        /* \"#utility.yul\":3077:3120   */\n      tag_224\n      jump\t// in\n    tag_259:\n        /* \"#utility.yul\":3149:3151   */\n      0x40\n        /* \"#utility.yul\":3143:3152   */\n      mload\n        /* \"#utility.yul\":3161:3192   */\n      tag_260\n        /* \"#utility.yul\":3189:3191   */\n      dup3\n        /* \"#utility.yul\":3181:3187   */\n      dup3\n        /* \"#utility.yul\":3161:3192   */\n      tag_223\n      jump\t// in\n    tag_260:\n        /* \"#utility.yul\":3227:3245   */\n      dup4\n      dup2\n      mstore\n        /* \"#utility.yul\":3319:3320   */\n      0x05\n        /* \"#utility.yul\":3315:3325   */\n      swap4\n      swap1\n      swap4\n      shl\n        /* \"#utility.yul\":3303:3326   */\n      dup6\n      add\n        /* \"#utility.yul\":3299:3331   */\n      dup3\n      add\n      swap3\n        /* \"#utility.yul\":3261:3276   */\n      dup3\n      dup2\n      add\n      swap2\n      pop\n        /* \"#utility.yul\":3343:3358   */\n      dup7\n      dup5\n      gt\n        /* \"#utility.yul\":3340:3375   */\n      iszero\n      tag_261\n      jumpi\n        /* \"#utility.yul\":3371:3372   */\n      0x00\n        /* \"#utility.yul\":3368:3369   */\n      dup1\n        /* \"#utility.yul\":3361:3373   */\n      revert\n        /* \"#utility.yul\":3340:3375   */\n    tag_261:\n        /* \"#utility.yul\":3407:3409   */\n      dup3\n        /* \"#utility.yul\":3399:3405   */\n      dup7\n        /* \"#utility.yul\":3395:3410   */\n      add\n        /* \"#utility.yul\":3419:3561   */\n    tag_262:\n        /* \"#utility.yul\":3435:3441   */\n      dup5\n        /* \"#utility.yul\":3430:3433   */\n      dup2\n        /* \"#utility.yul\":3427:3442   */\n      lt\n        /* \"#utility.yul\":3419:3561   */\n      iszero\n      tag_264\n      jumpi\n        /* \"#utility.yul\":3501:3518   */\n      dup1\n      calldataload\n        /* \"#utility.yul\":3489:3519   */\n      dup4\n      mstore\n        /* \"#utility.yul\":3539:3551   */\n      swap2\n      dup4\n      add\n      swap2\n        /* \"#utility.yul\":3452:3464   */\n      dup4\n      add\n        /* \"#utility.yul\":3419:3561   */\n      jump(tag_262)\n    tag_264:\n      pop\n        /* \"#utility.yul\":3579:3585   */\n      swap7\n        /* \"#utility.yul\":2867:3591   */\n      swap6\n      pop\n      pop\n      pop\n      pop\n      pop\n      pop\n      jump\t// out\n        /* \"#utility.yul\":3596:4210   */\n    tag_226:\n        /* \"#utility.yul\":3638:3643   */\n      0x00\n        /* \"#utility.yul\":3691:3694   */\n      dup3\n        /* \"#utility.yul\":3684:3688   */\n      0x1f\n        /* \"#utility.yul\":3676:3682   */\n      dup4\n        /* \"#utility.yul\":3672:3689   */\n      add\n        /* \"#utility.yul\":3668:3695   */\n      slt\n        /* \"#utility.yul\":3658:3713   */\n      tag_266\n      jumpi\n        /* \"#utility.yul\":3709:3710   */\n      0x00\n        /* \"#utility.yul\":3706:3707   */\n      dup1\n        /* \"#utility.yul\":3699:3711   */\n      revert\n        /* \"#utility.yul\":3658:3713   */\n    tag_266:\n        /* \"#utility.yul\":3745:3751   */\n      dup2\n        /* \"#utility.yul\":3732:3752   */\n      calldataload\n        /* \"#utility.yul\":3771:3789   */\n      0xffffffffffffffff\n        /* \"#utility.yul\":3767:3769   */\n      dup2\n        /* \"#utility.yul\":3764:3790   */\n      gt\n        /* \"#utility.yul\":3761:3813   */\n      iszero\n      tag_268\n      jumpi\n        /* \"#utility.yul\":3793:3811   */\n      tag_268\n      tag_86\n      jump\t// in\n    tag_268:\n        /* \"#utility.yul\":3842:3844   */\n      0x40\n        /* \"#utility.yul\":3836:3845   */\n      mload\n        /* \"#utility.yul\":3854:3980   */\n      tag_269\n        /* \"#utility.yul\":3974:3978   */\n      0x20\n        /* \"#utility.yul\":3905:3971   */\n      0xffffffffffffffffffffffffffffffffffffffffffffffffffffffffffffffe0\n        /* \"#utility.yul\":3898:3902   */\n      0x1f\n        /* \"#utility.yul\":3894:3896   */\n      dup6\n        /* \"#utility.yul\":3890:3903   */\n      add\n        /* \"#utility.yul\":3886:3972   */\n      and\n        /* \"#utility.yul\":3882:3979   */\n      add\n        /* \"#utility.yul\":3874:3880   */\n      dup3\n        /* \"#utility.yul\":3854:3980   */\n      tag_223\n      jump\t// in\n    tag_269:\n        /* \"#utility.yul\":4004:4006   */\n      dup2\n        /* \"#utility.yul\":3996:4002   */\n      dup2\n        /* \"#utility.yul\":3989:4007   */\n      mstore\n        /* \"#utility.yul\":4050:4053   */\n      dup5\n        /* \"#utility.yul\":4043:4047   */\n      0x20\n        /* \"#utility.yul\":4038:4040   */\n      dup4\n        /* \"#utility.yul\":4030:4036   */\n      dup7\n        /* \"#utility.yul\":4026:4041   */\n      add\n        /* \"#utility.yul\":4022:4048   */\n      add\n        /* \"#utility.yul\":4019:4054   */\n      gt\n        /* \"#utility.yul\":4016:4071   */\n      iszero\n      tag_270\n      jumpi\n        /* \"#utility.yul\":4067:4068   */\n      0x00\n        /* \"#utility.yul\":4064:4065   */\n      dup1\n        /* \"#utility.yul\":4057:4069   */\n      revert\n        /* \"#utility.yul\":4016:4071   */\n    tag_270:\n        /* \"#utility.yul\":4131:4133   */\n      dup2\n        /* \"#utility.yul\":4124:4128   */\n      0x20\n        /* \"#utility.yul\":4116:4122   */\n      dup6\n        /* \"#utility.yul\":4112:4129   */\n      add\n        /* \"#utility.yul\":4105:4109   */\n      0x20\n        /* \"#utility.yul\":4097:4103   */\n      dup4\n        /* \"#utility.yul\":4093:4110   */\n      add\n        /* \"#utility.yul\":4080:4134   */\n      calldatacopy\n        /* \"#utility.yul\":4178:4179   */\n      0x00\n        /* \"#utility.yul\":4154:4169   */\n      swap2\n      dup2\n      add\n        /* \"#utility.yul\":4171:4175   */\n      0x20\n        /* \"#utility.yul\":4150:4176   */\n      add\n        /* \"#utility.yul\":4143:4180   */\n      swap2\n      swap1\n      swap2\n      mstore\n        /* \"#utility.yul\":4158:4164   */\n      swap4\n        /* \"#utility.yul\":3596:4210   */\n      swap3\n      pop\n      pop\n      pop\n      jump\t// out\n        /* \"#utility.yul\":4215:5158   */\n    tag_32:\n        /* \"#utility.yul\":4369:4375   */\n      0x00\n        /* \"#utility.yul\":4377:4383   */\n      dup1\n        /* \"#utility.yul\":4385:4391   */\n      0x00\n        /* \"#utility.yul\":4393:4399   */\n      dup1\n        /* \"#utility.yul\":4401:4407   */\n      0x00\n        /* \"#utility.yul\":4454:4457   */\n      0xa0\n        /* \"#utility.yul\":4442:4451   */\n      dup7\n        /* \"#utility.yul\":4433:4440   */\n      dup9\n        /* \"#utility.yul\":4429:4452   */\n      sub\n        /* \"#utility.yul\":4425:4458   */\n      slt\n        /* \"#utility.yul\":4422:4475   */\n      iszero\n      tag_272\n      jumpi\n        /* \"#utility.yul\":4471:4472   */\n      0x00\n        /* \"#utility.yul\":4468:4469   */\n      dup1\n        /* \"#utility.yul\":4461:4473   */\n      revert\n        /* \"#utility.yul\":4422:4475   */\n    tag_272:\n        /* \"#utility.yul\":4494:4523   */\n      tag_273\n        /* \"#utility.yul\":4513:4522   */\n      dup7\n        /* \"#utility.yul\":4494:4523   */\n      tag_220\n      jump\t// in\n    tag_273:\n        /* \"#utility.yul\":4484:4523   */\n      swap5\n      pop\n        /* \"#utility.yul\":4542:4580   */\n      tag_274\n        /* \"#utility.yul\":4576:4578   */\n      0x20\n        /* \"#utility.yul\":4565:4574   */\n      dup8\n        /* \"#utility.yul\":4561:4579   */\n      add\n        /* \"#utility.yul\":4542:4580   */\n      tag_220\n      jump\t// in\n    tag_274:\n        /* \"#utility.yul\":4532:4580   */\n      swap4\n      pop\n        /* \"#utility.yul\":4631:4633   */\n      0x40\n        /* \"#utility.yul\":4620:4629   */\n      dup7\n        /* \"#utility.yul\":4616:4634   */\n      add\n        /* \"#utility.yul\":4603:4635   */\n      calldataload\n        /* \"#utility.yul\":4654:4672   */\n      0xffffffffffffffff\n        /* \"#utility.yul\":4695:4697   */\n      dup1\n        /* \"#utility.yul\":4687:4693   */\n      dup3\n        /* \"#utility.yul\":4684:4698   */\n      gt\n        /* \"#utility.yul\":4681:4715   */\n      iszero\n      tag_275\n      jumpi\n        /* \"#utility.yul\":4711:4712   */\n      0x00\n        /* \"#utility.yul\":4708:4709   */\n      dup1\n        /* \"#utility.yul\":4701:4713   */\n      revert\n        /* \"#utility.yul\":4681:4715   */\n    tag_275:\n        /* \"#utility.yul\":4734:4795   */\n      tag_276\n        /* \"#utility.yul\":4787:4794   */\n      dup10\n        /* \"#utility.yul\":4778:4784   */\n      dup4\n        /* \"#utility.yul\":4767:4776   */\n      dup11\n        /* \"#utility.yul\":4763:4785   */\n      add\n        /* \"#utility.yul\":4734:4795   */\n      tag_225\n      jump\t// in\n    tag_276:\n        /* \"#utility.yul\":4724:4795   */\n      swap5\n      pop\n        /* \"#utility.yul\":4848:4850   */\n      0x60\n        /* \"#utility.yul\":4837:4846   */\n      dup9\n        /* \"#utility.yul\":4833:4851   */\n      add\n        /* \"#utility.yul\":4820:4852   */\n      calldataload\n        /* \"#utility.yul\":4804:4852   */\n      swap2\n      pop\n        /* \"#utility.yul\":4877:4879   */\n      dup1\n        /* \"#utility.yul\":4867:4875   */\n      dup3\n        /* \"#utility.yul\":4864:4880   */\n      gt\n        /* \"#utility.yul\":4861:4897   */\n      iszero\n      tag_277\n      jumpi\n        /* \"#utility.yul\":4893:4894   */\n      0x00\n        /* \"#utility.yul\":4890:4891   */\n      dup1\n        /* \"#utility.yul\":4883:4895   */\n      revert\n        /* \"#utility.yul\":4861:4897   */\n    tag_277:\n        /* \"#utility.yul\":4916:4979   */\n      tag_278\n        /* \"#utility.yul\":4971:4978   */\n      dup10\n        /* \"#utility.yul\":4960:4968   */\n      dup4\n        /* \"#utility.yul\":4949:4958   */\n      dup11\n        /* \"#utility.yul\":4945:4969   */\n      add\n        /* \"#utility.yul\":4916:4979   */\n      tag_225\n      jump\t// in\n    tag_278:\n        /* \"#utility.yul\":4906:4979   */\n      swap4\n      pop\n        /* \"#utility.yul\":5032:5035   */\n      0x80\n        /* \"#utility.yul\":5021:5030   */\n      dup9\n        /* \"#utility.yul\":5017:5036   */\n      add\n        /* \"#utility.yul\":5004:5037   */\n      calldataload\n        /* \"#utility.yul\":4988:5037   */\n      swap2\n      pop\n        /* \"#utility.yul\":5062:5064   */\n      dup1\n        /* \"#utility.yul\":5052:5060   */\n      dup3\n        /* \"#utility.yul\":5049:5065   */\n      gt\n        /* \"#utility.yul\":5046:5082   */\n      iszero\n      tag_279\n      jumpi\n        /* \"#utility.yul\":5078:5079   */\n      0x00\n        /* \"#utility.yul\":5075:5076   */\n      dup1\n        /* \"#utility.yul\":5068:5080   */\n      revert\n        /* \"#utility.yul\":5046:5082   */\n    tag_279:\n      pop\n        /* \"#utility.yul\":5101:5152   */\n      tag_280\n        /* \"#utility.yul\":5144:5151   */\n      dup9\n        /* \"#utility.yul\":5133:5141   */\n      dup3\n        /* \"#utility.yul\":5122:5131   */\n      dup10\n        /* \"#utility.yul\":5118:5142   */\n      add\n        /* \"#utility.yul\":5101:5152   */\n      tag_226\n      jump\t// in\n    tag_280:\n        /* \"#utility.yul\":5091:5152   */\n      swap2\n      pop\n      pop\n        /* \"#utility.yul\":4215:5158   */\n      swap3\n      swap6\n      pop\n      swap3\n      swap6\n      swap1\n      swap4\n      pop\n      jump\t// out\n        /* \"#utility.yul\":5163:6371   */\n    tag_36:\n        /* \"#utility.yul\":5281:5287   */\n      0x00\n        /* \"#utility.yul\":5289:5295   */\n      dup1\n        /* \"#utility.yul\":5342:5344   */\n      0x40\n        /* \"#utility.yul\":5330:5339   */\n      dup4\n        /* \"#utility.yul\":5321:5328   */\n      dup6\n        /* \"#utility.yul\":5317:5340   */\n      sub\n        /* \"#utility.yul\":5313:5345   */\n      slt\n        /* \"#utility.yul\":5310:5362   */\n      iszero\n      tag_282\n      jumpi\n        /* \"#utility.yul\":5358:5359   */\n      0x00\n        /* \"#utility.yul\":5355:5356   */\n      dup1\n        /* \"#utility.yul\":5348:5360   */\n      revert\n        /* \"#utility.yul\":5310:5362   */\n    tag_282:\n        /* \"#utility.yul\":5398:5407   */\n      dup3\n        /* \"#utility.yul\":5385:5408   */\n      calldataload\n        /* \"#utility.yul\":5427:5445   */\n      0xffffffffffffffff\n        /* \"#utility.yul\":5468:5470   */\n      dup1\n        /* \"#utility.yul\":5460:5466   */\n      dup3\n        /* \"#utility.yul\":5457:5471   */\n      gt\n        /* \"#utility.yul\":5454:5488   */\n      iszero\n      tag_283\n      jumpi\n        /* \"#utility.yul\":5484:5485   */\n      0x00\n        /* \"#utility.yul\":5481:5482   */\n      dup1\n        /* \"#utility.yul\":5474:5486   */\n      revert\n        /* \"#utility.yul\":5454:5488   */\n    tag_283:\n        /* \"#utility.yul\":5522:5528   */\n      dup2\n        /* \"#utility.yul\":5511:5520   */\n      dup6\n        /* \"#utility.yul\":5507:5529   */\n      add\n        /* \"#utility.yul\":5497:5529   */\n      swap2\n      pop\n        /* \"#utility.yul\":5567:5574   */\n      dup6\n        /* \"#utility.yul\":5560:5564   */\n      0x1f\n        /* \"#utility.yul\":5556:5558   */\n      dup4\n        /* \"#utility.yul\":5552:5565   */\n      add\n        /* \"#utility.yul\":5548:5575   */\n      slt\n        /* \"#utility.yul\":5538:5593   */\n      tag_284\n      jumpi\n        /* \"#utility.yul\":5589:5590   */\n      0x00\n        /* \"#utility.yul\":5586:5587   */\n      dup1\n        /* \"#utility.yul\":5579:5591   */\n      revert\n        /* \"#utility.yul\":5538:5593   */\n    tag_284:\n        /* \"#utility.yul\":5625:5627   */\n      dup2\n        /* \"#utility.yul\":5612:5628   */\n      calldataload\n        /* \"#utility.yul\":5647:5651   */\n      0x20\n        /* \"#utility.yul\":5670:5713   */\n      tag_285\n        /* \"#utility.yul\":5710:5712   */\n      dup3\n        /* \"#utility.yul\":5670:5713   */\n      tag_224\n      jump\t// in\n    tag_285:\n        /* \"#utility.yul\":5742:5744   */\n      0x40\n        /* \"#utility.yul\":5736:5745   */\n      mload\n        /* \"#utility.yul\":5754:5785   */\n      tag_286\n        /* \"#utility.yul\":5782:5784   */\n      dup3\n        /* \"#utility.yul\":5774:5780   */\n      dup3\n        /* \"#utility.yul\":5754:5785   */\n      tag_223\n      jump\t// in\n    tag_286:\n        /* \"#utility.yul\":5820:5838   */\n      dup4\n      dup2\n      mstore\n        /* \"#utility.yul\":5908:5909   */\n      0x05\n        /* \"#utility.yul\":5904:5914   */\n      swap4\n      swap1\n      swap4\n      shl\n        /* \"#utility.yul\":5896:5915   */\n      dup6\n      add\n        /* \"#utility.yul\":5892:5920   */\n      dup3\n      add\n      swap3\n        /* \"#utility.yul\":5854:5869   */\n      dup3\n      dup2\n      add\n      swap2\n      pop\n        /* \"#utility.yul\":5932:5951   */\n      dup10\n      dup5\n      gt\n        /* \"#utility.yul\":5929:5968   */\n      iszero\n      tag_287\n      jumpi\n        /* \"#utility.yul\":5964:5965   */\n      0x00\n        /* \"#utility.yul\":5961:5962   */\n      dup1\n        /* \"#utility.yul\":5954:5966   */\n      revert\n        /* \"#utility.yul\":5929:5968   */\n    tag_287:\n        /* \"#utility.yul\":5988:5999   */\n      swap5\n      dup3\n      add\n      swap5\n        /* \"#utility.yul\":6008:6156   */\n    tag_288:\n        /* \"#utility.yul\":6024:6030   */\n      dup4\n        /* \"#utility.yul\":6019:6022   */\n      dup7\n        /* \"#utility.yul\":6016:6031   */\n      lt\n        /* \"#utility.yul\":6008:6156   */\n      iszero\n      tag_290\n      jumpi\n        /* \"#utility.yul\":6090:6113   */\n      tag_291\n        /* \"#utility.yul\":6109:6112   */\n      dup7\n        /* \"#utility.yul\":6090:6113   */\n      tag_220\n      jump\t// in\n    tag_291:\n        /* \"#utility.yul\":6078:6114   */\n      dup3\n      mstore\n        /* \"#utility.yul\":6041:6053   */\n      swap5\n      dup3\n      add\n      swap5\n        /* \"#utility.yul\":6134:6146   */\n      swap1\n      dup3\n      add\n      swap1\n        /* \"#utility.yul\":6008:6156   */\n      jump(tag_288)\n    tag_290:\n        /* \"#utility.yul\":6175:6181   */\n      swap7\n      pop\n      pop\n        /* \"#utility.yul\":6219:6237   */\n      dup7\n      add\n        /* \"#utility.yul\":6206:6238   */\n      calldataload\n      swap3\n      pop\n      pop\n        /* \"#utility.yul\":6250:6266   */\n      dup1\n      dup3\n      gt\n        /* \"#utility.yul\":6247:6283   */\n      iszero\n      tag_292\n      jumpi\n        /* \"#utility.yul\":6279:6280   */\n      0x00\n        /* \"#utility.yul\":6276:6277   */\n      dup1\n        /* \"#utility.yul\":6269:6281   */\n      revert\n        /* \"#utility.yul\":6247:6283   */\n    tag_292:\n      pop\n        /* \"#utility.yul\":6302:6365   */\n      tag_293\n        /* \"#utility.yul\":6357:6364   */\n      dup6\n        /* \"#utility.yul\":6346:6354   */\n      dup3\n        /* \"#utility.yul\":6335:6344   */\n      dup7\n        /* \"#utility.yul\":6331:6355   */\n      add\n        /* \"#utility.yul\":6302:6365   */\n      tag_225\n      jump\t// in\n    tag_293:\n        /* \"#utility.yul\":6292:6365   */\n      swap2\n      pop\n      pop\n        /* \"#utility.yul\":5163:6371   */\n      swap3\n      pop\n      swap3\n      swap1\n      pop\n      jump\t// out\n        /* \"#utility.yul\":6376:6811   */\n    tag_227:\n        /* \"#utility.yul\":6429:6432   */\n      0x00\n        /* \"#utility.yul\":6467:6472   */\n      dup2\n        /* \"#utility.yul\":6461:6473   */\n      mload\n        /* \"#utility.yul\":6494:6500   */\n      dup1\n        /* \"#utility.yul\":6489:6492   */\n      dup5\n        /* \"#utility.yul\":6482:6501   */\n      mstore\n        /* \"#utility.yul\":6520:6524   */\n      0x20\n        /* \"#utility.yul\":6549:6551   */\n      dup1\n        /* \"#utility.yul\":6544:6547   */\n      dup6\n        /* \"#utility.yul\":6540:6552   */\n      add\n        /* \"#utility.yul\":6533:6552   */\n      swap5\n      pop\n        /* \"#utility.yul\":6586:6588   */\n      dup1\n        /* \"#utility.yul\":6579:6584   */\n      dup5\n        /* \"#utility.yul\":6575:6589   */\n      add\n        /* \"#utility.yul\":6607:6608   */\n      0x00\n        /* \"#utility.yul\":6617:6786   */\n    tag_295:\n        /* \"#utility.yul\":6631:6637   */\n      dup4\n        /* \"#utility.yul\":6628:6629   */\n      dup2\n        /* \"#utility.yul\":6625:6638   */\n      lt\n        /* \"#utility.yul\":6617:6786   */\n      iszero\n      tag_297\n      jumpi\n        /* \"#utility.yul\":6692:6705   */\n      dup2\n      mload\n        /* \"#utility.yul\":6680:6706   */\n      dup8\n      mstore\n        /* \"#utility.yul\":6726:6738   */\n      swap6\n      dup3\n      add\n      swap6\n        /* \"#utility.yul\":6761:6776   */\n      swap1\n      dup3\n      add\n      swap1\n        /* \"#utility.yul\":6653:6654   */\n      0x01\n        /* \"#utility.yul\":6646:6655   */\n      add\n        /* \"#utility.yul\":6617:6786   */\n      jump(tag_295)\n    tag_297:\n      pop\n        /* \"#utility.yul\":6802:6805   */\n      swap5\n      swap6\n        /* \"#utility.yul\":6376:6811   */\n      swap5\n      pop\n      pop\n      pop\n      pop\n      pop\n      jump\t// out\n        /* \"#utility.yul\":6816:7077   */\n    tag_39:\n        /* \"#utility.yul\":6995:6997   */\n      0x20\n        /* \"#utility.yul\":6984:6993   */\n      dup2\n        /* \"#utility.yul\":6977:6998   */\n      mstore\n        /* \"#utility.yul\":6958:6962   */\n      0x00\n        /* \"#utility.yul\":7015:7071   */\n      tag_240\n        /* \"#utility.yul\":7067:7069   */\n      0x20\n        /* \"#utility.yul\":7056:7065   */\n      dup4\n        /* \"#utility.yul\":7052:7070   */\n      add\n        /* \"#utility.yul\":7044:7050   */\n      dup5\n        /* \"#utility.yul\":7015:7071   */\n      tag_227\n      jump\t// in\n        /* \"#utility.yul\":7082:7429   */\n    tag_42:\n        /* \"#utility.yul\":7147:7153   */\n      0x00\n        /* \"#utility.yul\":7155:7161   */\n      dup1\n        /* \"#utility.yul\":7208:7210   */\n      0x40\n        /* \"#utility.yul\":7196:7205   */\n      dup4\n        /* \"#utility.yul\":7187:7194   */\n      dup6\n        /* \"#utility.yul\":7183:7206   */\n      sub\n        /* \"#utility.yul\":7179:7211   */\n      slt\n        /* \"#utility.yul\":7176:7228   */\n      iszero\n      tag_301\n      jumpi\n        /* \"#utility.yul\":7224:7225   */\n      0x00\n        /* \"#utility.yul\":7221:7222   */\n      dup1\n        /* \"#utility.yul\":7214:7226   */\n      revert\n        /* \"#utility.yul\":7176:7228   */\n    tag_301:\n        /* \"#utility.yul\":7247:7276   */\n      tag_302\n        /* \"#utility.yul\":7266:7275   */\n      dup4\n        /* \"#utility.yul\":7247:7276   */\n      tag_220\n      jump\t// in\n    tag_302:\n        /* \"#utility.yul\":7237:7276   */\n      swap2\n      pop\n        /* \"#utility.yul\":7326:7328   */\n      0x20\n        /* \"#utility.yul\":7315:7324   */\n      dup4\n        /* \"#utility.yul\":7311:7329   */\n      add\n        /* \"#utility.yul\":7298:7330   */\n      calldataload\n        /* \"#utility.yul\":7373:7378   */\n      dup1\n        /* \"#utility.yul\":7366:7379   */\n      iszero\n        /* \"#utility.yul\":7359:7380   */\n      iszero\n        /* \"#utility.yul\":7352:7357   */\n      dup2\n        /* \"#utility.yul\":7349:7381   */\n      eq\n        /* \"#utility.yul\":7339:7399   */\n      tag_303\n      jumpi\n        /* \"#utility.yul\":7395:7396   */\n      0x00\n        /* \"#utility.yul\":7392:7393   */\n      dup1\n        /* \"#utility.yul\":7385:7397   */\n      revert\n        /* \"#utility.yul\":7339:7399   */\n    tag_303:\n        /* \"#utility.yul\":7418:7423   */\n      dup1\n        /* \"#utility.yul\":7408:7423   */\n      swap2\n      pop\n      pop\n        /* \"#utility.yul\":7082:7429   */\n      swap3\n      pop\n      swap3\n      swap1\n      pop\n      jump\t// out\n        /* \"#utility.yul\":7434:7694   */\n    tag_46:\n        /* \"#utility.yul\":7502:7508   */\n      0x00\n        /* \"#utility.yul\":7510:7516   */\n      dup1\n        /* \"#utility.yul\":7563:7565   */\n      0x40\n        /* \"#utility.yul\":7551:7560   */\n      dup4\n        /* \"#utility.yul\":7542:7549   */\n      dup6\n        /* \"#utility.yul\":7538:7561   */\n      sub\n        /* \"#utility.yul\":7534:7566   */\n      slt\n        /* \"#utility.yul\":7531:7583   */\n      iszero\n      tag_305\n      jumpi\n        /* \"#utility.yul\":7579:7580   */\n      0x00\n        /* \"#utility.yul\":7576:7577   */\n      dup1\n        /* \"#utility.yul\":7569:7581   */\n      revert\n        /* \"#utility.yul\":7531:7583   */\n    tag_305:\n        /* \"#utility.yul\":7602:7631   */\n      tag_306\n        /* \"#utility.yul\":7621:7630   */\n      dup4\n        /* \"#utility.yul\":7602:7631   */\n      tag_220\n      jump\t// in\n    tag_306:\n        /* \"#utility.yul\":7592:7631   */\n      swap2\n      pop\n        /* \"#utility.yul\":7650:7688   */\n      tag_307\n        /* \"#utility.yul\":7684:7686   */\n      0x20\n        /* \"#utility.yul\":7673:7682   */\n      dup5\n        /* \"#utility.yul\":7669:7687   */\n      add\n        /* \"#utility.yul\":7650:7688   */\n      tag_220\n      jump\t// in\n    tag_307:\n        /* \"#utility.yul\":7640:7688   */\n      swap1\n      pop\n        /* \"#utility.yul\":7434:7694   */\n      swap3\n      pop\n      swap3\n      swap1\n      pop\n      jump\t// out\n        /* \"#utility.yul\":7699:8305   */\n    tag_51:\n        /* \"#utility.yul\":7803:7809   */\n      0x00\n        /* \"#utility.yul\":7811:7817   */\n      dup1\n        /* \"#utility.yul\":7819:7825   */\n      0x00\n        /* \"#utility.yul\":7827:7833   */\n      dup1\n        /* \"#utility.yul\":7835:7841   */\n      0x00\n        /* \"#utility.yul\":7888:7891   */\n      0xa0\n        /* \"#utility.yul\":7876:7885   */\n      dup7\n        /* \"#utility.yul\":7867:7874   */\n      dup9\n        /* \"#utility.yul\":7863:7886   */\n      sub\n        /* \"#utility.yul\":7859:7892   */\n      slt\n        /* \"#utility.yul\":7856:7909   */\n      iszero\n      tag_309\n      jumpi\n        /* \"#utility.yul\":7905:7906   */\n      0x00\n        /* \"#utility.yul\":7902:7903   */\n      dup1\n        /* \"#utility.yul\":7895:7907   */\n      revert\n        /* \"#utility.yul\":7856:7909   */\n    tag_309:\n        /* \"#utility.yul\":7928:7957   */\n      tag_310\n        /* \"#utility.yul\":7947:7956   */\n      dup7\n        /* \"#utility.yul\":7928:7957   */\n      tag_220\n      jump\t// in\n    tag_310:\n        /* \"#utility.yul\":7918:7957   */\n      swap5\n      pop\n        /* \"#utility.yul\":7976:8014   */\n      tag_311\n        /* \"#utility.yul\":8010:8012   */\n      0x20\n        /* \"#utility.yul\":7999:8008   */\n      dup8\n        /* \"#utility.yul\":7995:8013   */\n      add\n        /* \"#utility.yul\":7976:8014   */\n      tag_220\n      jump\t// in\n    tag_311:\n        /* \"#utility.yul\":7966:8014   */\n      swap4\n      pop\n        /* \"#utility.yul\":8061:8063   */\n      0x40\n        /* \"#utility.yul\":8050:8059   */\n      dup7\n        /* \"#utility.yul\":8046:8064   */\n      add\n        /* \"#utility.yul\":8033:8065   */\n      calldataload\n        /* \"#utility.yul\":8023:8065   */\n      swap3\n      pop\n        /* \"#utility.yul\":8112:8114   */\n      0x60\n        /* \"#utility.yul\":8101:8110   */\n      dup7\n        /* \"#utility.yul\":8097:8115   */\n      add\n        /* \"#utility.yul\":8084:8116   */\n      calldataload\n        /* \"#utility.yul\":8074:8116   */\n      swap2\n      pop\n        /* \"#utility.yul\":8167:8170   */\n      0x80\n        /* \"#utility.yul\":8156:8165   */\n      dup7\n        /* \"#utility.yul\":8152:8171   */\n      add\n        /* \"#utility.yul\":8139:8172   */\n      calldataload\n        /* \"#utility.yul\":8195:8213   */\n      0xffffffffffffffff\n        /* \"#utility.yul\":8187:8193   */\n      dup2\n        /* \"#utility.yul\":8184:8214   */\n      gt\n        /* \"#utility.yul\":8181:8231   */\n      iszero\n      tag_312\n      jumpi\n        /* \"#utility.yul\":8227:8228   */\n      0x00\n        /* \"#utility.yul\":8224:8225   */\n      dup1\n        /* \"#utility.yul\":8217:8229   */\n      revert\n        /* \"#utility.yul\":8181:8231   */\n    tag_312:\n        /* \"#utility.yul\":8250:8299   */\n      tag_280\n        /* \"#utility.yul\":8291:8298   */\n      dup9\n        /* \"#utility.yul\":8282:8288   */\n      dup3\n        /* \"#utility.yul\":8271:8280   */\n      dup10\n        /* \"#utility.yul\":8267:8289   */\n      add\n        /* \"#utility.yul\":8250:8299   */\n      tag_226\n      jump\t// in\n        /* \"#utility.yul\":8721:9158   */\n    tag_64:\n        /* \"#utility.yul\":8800:8801   */\n      0x01\n        /* \"#utility.yul\":8796:8808   */\n      dup2\n      dup2\n      shr\n      swap1\n        /* \"#utility.yul\":8843:8855   */\n      dup3\n      and\n      dup1\n        /* \"#utility.yul\":8864:8925   */\n      tag_316\n      jumpi\n        /* \"#utility.yul\":8918:8922   */\n      0x7f\n        /* \"#utility.yul\":8910:8916   */\n      dup3\n        /* \"#utility.yul\":8906:8923   */\n      and\n        /* \"#utility.yul\":8896:8923   */\n      swap2\n      pop\n        /* \"#utility.yul\":8864:8925   */\n    tag_316:\n        /* \"#utility.yul\":8971:8973   */\n      0x20\n        /* \"#utility.yul\":8963:8969   */\n      dup3\n        /* \"#utility.yul\":8960:8974   */\n      lt\n        /* \"#utility.yul\":8940:8958   */\n      dup2\n        /* \"#utility.yul\":8937:8975   */\n      sub\n        /* \"#utility.yul\":8934:9152   */\n      tag_317\n      jumpi\n        /* \"#utility.yul\":9008:9085   */\n      0x4e487b7100000000000000000000000000000000000000000000000000000000\n        /* \"#utility.yul\":9005:9006   */\n      0x00\n        /* \"#utility.yul\":8998:9086   */\n      mstore\n        /* \"#utility.yul\":9109:9113   */\n      0x22\n        /* \"#utility.yul\":9106:9107   */\n      0x04\n        /* \"#utility.yul\":9099:9114   */\n      mstore\n        /* \"#utility.yul\":9137:9141   */\n      0x24\n        /* \"#utility.yul\":9134:9135   */\n      0x00\n        /* \"#utility.yul\":9127:9142   */\n      revert\n        /* \"#utility.yul\":8934:9152   */\n    tag_317:\n      pop\n        /* \"#utility.yul\":8721:9158   */\n      swap2\n      swap1\n      pop\n      jump\t// out\n        /* \"#utility.yul\":9988:10172   */\n    tag_94:\n        /* \"#utility.yul\":10040:10117   */\n      0x4e487b7100000000000000000000000000000000000000000000000000000000\n        /* \"#utility.yul\":10037:10038   */\n      0x00\n        /* \"#utility.yul\":10030:10118   */\n      mstore\n        /* \"#utility.yul\":10137:10141   */\n      0x32\n        /* \"#utility.yul\":10134:10135   */\n      0x04\n        /* \"#utility.yul\":10127:10142   */\n      mstore\n        /* \"#utility.yul\":10161:10165   */\n      0x24\n        /* \"#utility.yul\":10158:10159   */\n      0x00\n        /* \"#utility.yul\":10151:10166   */\n      revert\n        /* \"#utility.yul\":10177:10361   */\n    tag_228:\n        /* \"#utility.yul\":10229:10306   */\n      0x4e487b7100000000000000000000000000000000000000000000000000000000\n        /* \"#utility.yul\":10226:10227   */\n      0x00\n        /* \"#utility.yul\":10219:10307   */\n      mstore\n        /* \"#utility.yul\":10326:10330   */\n      0x11\n        /* \"#utility.yul\":10323:10324   */\n      0x04\n        /* \"#utility.yul\":10316:10331   */\n      mstore\n        /* \"#utility.yul\":10350:10354   */\n      0x24\n        /* \"#utility.yul\":10347:10348   */\n      0x00\n        /* \"#utility.yul\":10340:10355   */\n      revert\n        /* \"#utility.yul\":10366:10561   */\n    tag_100:\n        /* \"#utility.yul\":10405:10408   */\n      0x00\n        /* \"#utility.yul\":10436:10502   */\n      0xffffffffffffffffffffffffffffffffffffffffffffffffffffffffffffffff\n        /* \"#utility.yul\":10429:10434   */\n      dup3\n        /* \"#utility.yul\":10426:10503   */\n      sub\n        /* \"#utility.yul\":10423:10526   */\n      tag_324\n      jumpi\n        /* \"#utility.yul\":10506:10524   */\n      tag_324\n      tag_228\n      jump\t// in\n    tag_324:\n      pop\n        /* \"#utility.yul\":10553:10554   */\n      0x01\n        /* \"#utility.yul\":10542:10555   */\n      add\n      swap1\n        /* \"#utility.yul\":10366:10561   */\n      jump\t// out\n        /* \"#utility.yul\":11792:11917   */\n    tag_138:\n        /* \"#utility.yul\":11857:11866   */\n      dup1\n      dup3\n      add\n        /* \"#utility.yul\":11878:11888   */\n      dup1\n      dup3\n      gt\n        /* \"#utility.yul\":11875:11911   */\n      iszero\n      tag_53\n      jumpi\n        /* \"#utility.yul\":11891:11909   */\n      tag_53\n      tag_228\n      jump\t// in\n        /* \"#utility.yul\":11922:12387   */\n    tag_141:\n        /* \"#utility.yul\":12179:12181   */\n      0x40\n        /* \"#utility.yul\":12168:12177   */\n      dup2\n        /* \"#utility.yul\":12161:12182   */\n      mstore\n        /* \"#utility.yul\":12142:12146   */\n      0x00\n        /* \"#utility.yul\":12205:12261   */\n      tag_332\n        /* \"#utility.yul\":12257:12259   */\n      0x40\n        /* \"#utility.yul\":12246:12255   */\n      dup4\n        /* \"#utility.yul\":12242:12260   */\n      add\n        /* \"#utility.yul\":12234:12240   */\n      dup6\n        /* \"#utility.yul\":12205:12261   */\n      tag_227\n      jump\t// in\n    tag_332:\n        /* \"#utility.yul\":12309:12318   */\n      dup3\n        /* \"#utility.yul\":12301:12307   */\n      dup2\n        /* \"#utility.yul\":12297:12319   */\n      sub\n        /* \"#utility.yul\":12292:12294   */\n      0x20\n        /* \"#utility.yul\":12281:12290   */\n      dup5\n        /* \"#utility.yul\":12277:12295   */\n      add\n        /* \"#utility.yul\":12270:12320   */\n      mstore\n        /* \"#utility.yul\":12337:12381   */\n      tag_333\n        /* \"#utility.yul\":12374:12380   */\n      dup2\n        /* \"#utility.yul\":12366:12372   */\n      dup6\n        /* \"#utility.yul\":12337:12381   */\n      tag_227\n      jump\t// in\n    tag_333:\n        /* \"#utility.yul\":12329:12381   */\n      swap6\n        /* \"#utility.yul\":11922:12387   */\n      swap5\n      pop\n      pop\n      pop\n      pop\n      pop\n      jump\t// out\n        /* \"#utility.yul\":13055:13905   */\n    tag_174:\n        /* \"#utility.yul\":13377:13381   */\n      0x00\n        /* \"#utility.yul\":13406:13448   */\n      0xffffffffffffffffffffffffffffffffffffffff\n        /* \"#utility.yul\":13487:13489   */\n      dup1\n        /* \"#utility.yul\":13479:13485   */\n      dup9\n        /* \"#utility.yul\":13475:13490   */\n      and\n        /* \"#utility.yul\":13464:13473   */\n      dup4\n        /* \"#utility.yul\":13457:13491   */\n      mstore\n        /* \"#utility.yul\":13539:13541   */\n      dup1\n        /* \"#utility.yul\":13531:13537   */\n      dup8\n        /* \"#utility.yul\":13527:13542   */\n      and\n        /* \"#utility.yul\":13522:13524   */\n      0x20\n        /* \"#utility.yul\":13511:13520   */\n      dup5\n        /* \"#utility.yul\":13507:13525   */\n      add\n        /* \"#utility.yul\":13500:13543   */\n      mstore\n      pop\n        /* \"#utility.yul\":13579:13582   */\n      0xa0\n        /* \"#utility.yul\":13574:13576   */\n      0x40\n        /* \"#utility.yul\":13563:13572   */\n      dup4\n        /* \"#utility.yul\":13559:13577   */\n      add\n        /* \"#utility.yul\":13552:13583   */\n      mstore\n        /* \"#utility.yul\":13606:13663   */\n      tag_337\n        /* \"#utility.yul\":13658:13661   */\n      0xa0\n        /* \"#utility.yul\":13647:13656   */\n      dup4\n        /* \"#utility.yul\":13643:13662   */\n      add\n        /* \"#utility.yul\":13635:13641   */\n      dup7\n        /* \"#utility.yul\":13606:13663   */\n      tag_227\n      jump\t// in\n    tag_337:\n        /* \"#utility.yul\":13711:13720   */\n      dup3\n        /* \"#utility.yul\":13703:13709   */\n      dup2\n        /* \"#utility.yul\":13699:13721   */\n      sub\n        /* \"#utility.yul\":13694:13696   */\n      0x60\n        /* \"#utility.yul\":13683:13692   */\n      dup5\n        /* \"#utility.yul\":13679:13697   */\n      add\n        /* \"#utility.yul\":13672:13722   */\n      mstore\n        /* \"#utility.yul\":13745:13789   */\n      tag_338\n        /* \"#utility.yul\":13782:13788   */\n      dup2\n        /* \"#utility.yul\":13774:13780   */\n      dup7\n        /* \"#utility.yul\":13745:13789   */\n      tag_227\n      jump\t// in\n    tag_338:\n        /* \"#utility.yul\":13731:13789   */\n      swap1\n      pop\n        /* \"#utility.yul\":13838:13847   */\n      dup3\n        /* \"#utility.yul\":13830:13836   */\n      dup2\n        /* \"#utility.yul\":13826:13848   */\n      sub\n        /* \"#utility.yul\":13820:13823   */\n      0x80\n        /* \"#utility.yul\":13809:13818   */\n      dup5\n        /* \"#utility.yul\":13805:13824   */\n      add\n        /* \"#utility.yul\":13798:13849   */\n      mstore\n        /* \"#utility.yul\":13866:13899   */\n      tag_339\n        /* \"#utility.yul\":13892:13898   */\n      dup2\n        /* \"#utility.yul\":13884:13890   */\n      dup6\n        /* \"#utility.yul\":13866:13899   */\n      tag_222\n      jump\t// in\n    tag_339:\n        /* \"#utility.yul\":13858:13899   */\n      swap9\n        /* \"#utility.yul\":13055:13905   */\n      swap8\n      pop\n      pop\n      pop\n      pop\n      pop\n      pop\n      pop\n      pop\n      jump\t// out\n        /* \"#utility.yul\":13910:14159   */\n    tag_177:\n        /* \"#utility.yul\":13979:13985   */\n      0x00\n        /* \"#utility.yul\":14032:14034   */\n      0x20\n        /* \"#utility.yul\":14020:14029   */\n      dup3\n        /* \"#utility.yul\":14011:14018   */\n      dup5\n        /* \"#utility.yul\":14007:14030   */\n      sub\n        /* \"#utility.yul\":14003:14035   */\n      slt\n        /* \"#utility.yul\":14000:14052   */\n      iszero\n      tag_341\n      jumpi\n        /* \"#utility.yul\":14048:14049   */\n      0x00\n        /* \"#utility.yul\":14045:14046   */\n      dup1\n        /* \"#utility.yul\":14038:14050   */\n      revert\n        /* \"#utility.yul\":14000:14052   */\n    tag_341:\n        /* \"#utility.yul\":14080:14089   */\n      dup2\n        /* \"#utility.yul\":14074:14090   */\n      mload\n        /* \"#utility.yul\":14099:14129   */\n      tag_240\n        /* \"#utility.yul\":14123:14128   */\n      dup2\n        /* \"#utility.yul\":14099:14129   */\n      tag_221\n      jump\t// in\n        /* \"#utility.yul\":14164:14343   */\n    tag_183:\n        /* \"#utility.yul\":14199:14202   */\n      0x00\n        /* \"#utility.yul\":14241:14242   */\n      0x03\n        /* \"#utility.yul\":14223:14239   */\n      returndatasize\n        /* \"#utility.yul\":14220:14243   */\n      gt\n        /* \"#utility.yul\":14217:14337   */\n      iszero\n      tag_344\n      jumpi\n        /* \"#utility.yul\":14287:14288   */\n      0x04\n        /* \"#utility.yul\":14284:14285   */\n      0x00\n        /* \"#utility.yul\":14281:14282   */\n      dup1\n        /* \"#utility.yul\":14266:14289   */\n      returndatacopy\n      pop\n        /* \"#utility.yul\":14324:14325   */\n      0x00\n        /* \"#utility.yul\":14318:14326   */\n      mload\n        /* \"#utility.yul\":14313:14316   */\n      0xe0\n        /* \"#utility.yul\":14309:14327   */\n      shr\n        /* \"#utility.yul\":14217:14337   */\n    tag_344:\n        /* \"#utility.yul\":14164:14343   */\n      swap1\n      jump\t// out\n        /* \"#utility.yul\":14348:15079   */\n    tag_185:\n        /* \"#utility.yul\":14387:14390   */\n      0x00\n        /* \"#utility.yul\":14429:14433   */\n      0x44\n        /* \"#utility.yul\":14411:14427   */\n      returndatasize\n        /* \"#utility.yul\":14408:14434   */\n      lt\n        /* \"#utility.yul\":14405:14444   */\n      iszero\n      tag_346\n      jumpi\n        /* \"#utility.yul\":14348:15079   */\n      swap1\n      jump\t// out\n        /* \"#utility.yul\":14405:14444   */\n    tag_346:\n        /* \"#utility.yul\":14471:14473   */\n      0x40\n        /* \"#utility.yul\":14465:14474   */\n      mload\n        /* \"#utility.yul\":14493:14559   */\n      0xfffffffffffffffffffffffffffffffffffffffffffffffffffffffffffffffc\n        /* \"#utility.yul\":14614:14616   */\n      dup1\n        /* \"#utility.yul\":14596:14612   */\n      returndatasize\n        /* \"#utility.yul\":14592:14617   */\n      add\n        /* \"#utility.yul\":14589:14590   */\n      0x04\n        /* \"#utility.yul\":14583:14587   */\n      dup4\n        /* \"#utility.yul\":14568:14618   */\n      returndatacopy\n        /* \"#utility.yul\":14647:14651   */\n      dup2\n        /* \"#utility.yul\":14641:14652   */\n      mload\n        /* \"#utility.yul\":14671:14687   */\n      returndatasize\n        /* \"#utility.yul\":14706:14724   */\n      0xffffffffffffffff\n        /* \"#utility.yul\":14777:14779   */\n      dup2\n        /* \"#utility.yul\":14770:14774   */\n      0x24\n        /* \"#utility.yul\":14762:14768   */\n      dup5\n        /* \"#utility.yul\":14758:14775   */\n      add\n        /* \"#utility.yul\":14755:14780   */\n      gt\n        /* \"#utility.yul\":14750:14752   */\n      dup2\n        /* \"#utility.yul\":14742:14748   */\n      dup5\n        /* \"#utility.yul\":14739:14753   */\n      gt\n        /* \"#utility.yul\":14736:14781   */\n      or\n        /* \"#utility.yul\":14733:14791   */\n      iszero\n      tag_347\n      jumpi\n        /* \"#utility.yul\":14784:14789   */\n      pop\n      pop\n      pop\n      pop\n      pop\n        /* \"#utility.yul\":14348:15079   */\n      swap1\n      jump\t// out\n        /* \"#utility.yul\":14733:14791   */\n    tag_347:\n        /* \"#utility.yul\":14821:14827   */\n      dup3\n        /* \"#utility.yul\":14815:14819   */\n      dup6\n        /* \"#utility.yul\":14811:14828   */\n      add\n        /* \"#utility.yul\":14800:14828   */\n      swap2\n      pop\n        /* \"#utility.yul\":14857:14860   */\n      dup2\n        /* \"#utility.yul\":14851:14861   */\n      mload\n        /* \"#utility.yul\":14884:14886   */\n      dup2\n        /* \"#utility.yul\":14876:14882   */\n      dup2\n        /* \"#utility.yul\":14873:14887   */\n      gt\n        /* \"#utility.yul\":14870:14897   */\n      iszero\n      tag_348\n      jumpi\n        /* \"#utility.yul\":14890:14895   */\n      pop\n      pop\n      pop\n      pop\n      pop\n      pop\n        /* \"#utility.yul\":14348:15079   */\n      swap1\n      jump\t// out\n        /* \"#utility.yul\":14870:14897   */\n    tag_348:\n        /* \"#utility.yul\":14974:14976   */\n      dup5\n        /* \"#utility.yul\":14955:14971   */\n      returndatasize\n        /* \"#utility.yul\":14949:14953   */\n      dup8\n        /* \"#utility.yul\":14945:14972   */\n      add\n        /* \"#utility.yul\":14941:14977   */\n      add\n        /* \"#utility.yul\":14934:14938   */\n      0x20\n        /* \"#utility.yul\":14925:14931   */\n      dup3\n        /* \"#utility.yul\":14920:14923   */\n      dup6\n        /* \"#utility.yul\":14916:14932   */\n      add\n        /* \"#utility.yul\":14912:14939   */\n      add\n        /* \"#utility.yul\":14909:14978   */\n      gt\n        /* \"#utility.yul\":14906:14988   */\n      iszero\n      tag_349\n      jumpi\n        /* \"#utility.yul\":14981:14986   */\n      pop\n      pop\n      pop\n      pop\n      pop\n      pop\n        /* \"#utility.yul\":14348:15079   */\n      swap1\n      jump\t// out\n        /* \"#utility.yul\":14906:14988   */\n    tag_349:\n        /* \"#utility.yul\":14997:15054   */\n      tag_350\n        /* \"#utility.yul\":15048:15052   */\n      0x20\n        /* \"#utility.yul\":15039:15045   */\n      dup3\n        /* \"#utility.yul\":15031:15037   */\n      dup7\n        /* \"#utility.yul\":15027:15046   */\n      add\n        /* \"#utility.yul\":15023:15053   */\n      add\n        /* \"#utility.yul\":15017:15021   */\n      dup8\n        /* \"#utility.yul\":14997:15054   */\n      tag_223\n      jump\t// in\n    tag_350:\n      pop\n        /* \"#utility.yul\":15070:15073   */\n      swap1\n      swap6\n        /* \"#utility.yul\":14348:15079   */\n      swap5\n      pop\n      pop\n      pop\n      pop\n      pop\n      jump\t// out\n        /* \"#utility.yul\":15914:16498   */\n    tag_204:\n        /* \"#utility.yul\":16136:16140   */\n      0x00\n        /* \"#utility.yul\":16165:16207   */\n      0xffffffffffffffffffffffffffffffffffffffff\n        /* \"#utility.yul\":16246:16248   */\n      dup1\n        /* \"#utility.yul\":16238:16244   */\n      dup9\n        /* \"#utility.yul\":16234:16249   */\n      and\n        /* \"#utility.yul\":16223:16232   */\n      dup4\n        /* \"#utility.yul\":16216:16250   */\n      mstore\n        /* \"#utility.yul\":16298:16300   */\n      dup1\n        /* \"#utility.yul\":16290:16296   */\n      dup8\n        /* \"#utility.yul\":16286:16301   */\n      and\n        /* \"#utility.yul\":16281:16283   */\n      0x20\n        /* \"#utility.yul\":16270:16279   */\n      dup5\n        /* \"#utility.yul\":16266:16284   */\n      add\n        /* \"#utility.yul\":16259:16302   */\n      mstore\n      pop\n        /* \"#utility.yul\":16338:16344   */\n      dup5\n        /* \"#utility.yul\":16333:16335   */\n      0x40\n        /* \"#utility.yul\":16322:16331   */\n      dup4\n        /* \"#utility.yul\":16318:16336   */\n      add\n        /* \"#utility.yul\":16311:16345   */\n      mstore\n        /* \"#utility.yul\":16381:16387   */\n      dup4\n        /* \"#utility.yul\":16376:16378   */\n      0x60\n        /* \"#utility.yul\":16365:16374   */\n      dup4\n        /* \"#utility.yul\":16361:16379   */\n      add\n        /* \"#utility.yul\":16354:16388   */\n      mstore\n        /* \"#utility.yul\":16425:16428   */\n      0xa0\n        /* \"#utility.yul\":16419:16422   */\n      0x80\n        /* \"#utility.yul\":16408:16417   */\n      dup4\n        /* \"#utility.yul\":16404:16423   */\n      add\n        /* \"#utility.yul\":16397:16429   */\n      mstore\n        /* \"#utility.yul\":16446:16492   */\n      tag_354\n        /* \"#utility.yul\":16487:16490   */\n      0xa0\n        /* \"#utility.yul\":16476:16485   */\n      dup4\n        /* \"#utility.yul\":16472:16491   */\n      add\n        /* \"#utility.yul\":16464:16470   */\n      dup5\n        /* \"#utility.yul\":16446:16492   */\n      tag_222\n      jump\t// in\n    tag_354:\n        /* \"#utility.yul\":16438:16492   */\n      swap8\n        /* \"#utility.yul\":15914:16498   */\n      swap7\n      pop\n      pop\n      pop\n      pop\n      pop\n      pop\n      pop\n      jump\t// out\n\n    auxdata: 0xa26469706673582212202594e6eb873d4d3252e8dd49e505d0fd966a66ef37f599aa78770f49059cd3f664736f6c63430008110033\n}\n",
				"bytecode": {
					"linkReferences": {},
					"object": "60806040523480156200001157600080fd5b5060405162001be638038062001be683398101604081905262000034916200006e565b6200003f8162000046565b506200029e565b6002620000548282620001d2565b5050565b634e487b7160e01b600052604160045260246000fd5b600060208083850312156200008257600080fd5b82516001600160401b03808211156200009a57600080fd5b818501915085601f830112620000af57600080fd5b815181811115620000c457620000c462000058565b604051601f8201601f19908116603f01168101908382118183101715620000ef57620000ef62000058565b8160405282815288868487010111156200010857600080fd5b600093505b828410156200012c57848401860151818501870152928501926200010d565b600086848301015280965050505050505092915050565b600181811c908216806200015857607f821691505b6020821081036200017957634e487b7160e01b600052602260045260246000fd5b50919050565b601f821115620001cd57600081815260208120601f850160051c81016020861015620001a85750805b601f850160051c820191505b81811015620001c957828155600101620001b4565b5050505b505050565b81516001600160401b03811115620001ee57620001ee62000058565b6200020681620001ff845462000143565b846200017f565b602080601f8311600181146200023e5760008415620002255750858301515b600019600386901b1c1916600185901b178555620001c9565b600085815260208120601f198616915b828110156200026f578886015182559484019460019091019084016200024e565b50858210156200028e5787850151600019600388901b60f8161c191681555b5050505050600190811b01905550565b61193880620002ae6000396000f3fe608060405234801561001057600080fd5b50600436106100875760003560e01c80634e1273f41161005b5780634e1273f41461010a578063a22cb4651461012a578063e985e9c51461013d578063f242432a1461018657600080fd5b8062fdd58e1461008c57806301ffc9a7146100b25780630e89341c146100d55780632eb2c2d6146100f5575b600080fd5b61009f61009a3660046110f5565b610199565b6040519081526020015b60405180910390f35b6100c56100c0366004611150565b61025f565b60405190151581526020016100a9565b6100e86100e3366004611174565b610342565b6040516100a991906111f1565b6101086101033660046113a5565b6103d6565b005b61011d61011836600461144f565b610485565b6040516100a99190611555565b610108610138366004611568565b6105c3565b6100c561014b3660046115a4565b73ffffffffffffffffffffffffffffffffffffffff918216600090815260016020908152604080832093909416825291909152205460ff1690565b6101086101943660046115d7565b6105d2565b600073ffffffffffffffffffffffffffffffffffffffff83166102295760405162461bcd60e51b815260206004820152602a60248201527f455243313135353a2061646472657373207a65726f206973206e6f742061207660448201527f616c6964206f776e65720000000000000000000000000000000000000000000060648201526084015b60405180910390fd5b5060008181526020818152604080832073ffffffffffffffffffffffffffffffffffffffff861684529091529020545b92915050565b60007fffffffff0000000000000000000000000000000000000000000000000000000082167fd9b67a260000000000000000000000000000000000000000000000000000000014806102f257507fffffffff0000000000000000000000000000000000000000000000000000000082167f0e89341c00000000000000000000000000000000000000000000000000000000145b8061025957507f01ffc9a7000000000000000000000000000000000000000000000000000000007fffffffff00000000000000000000000000000000000000000000000000000000831614610259565b6060600280546103519061163c565b80601f016020809104026020016040519081016040528092919081815260200182805461037d9061163c565b80156103ca5780601f1061039f576101008083540402835291602001916103ca565b820191906000526020600020905b8154815290600101906020018083116103ad57829003601f168201915b50505050509050919050565b73ffffffffffffffffffffffffffffffffffffffff85163314806103ff57506103ff853361014b565b6104715760405162461bcd60e51b815260206004820152602e60248201527f455243313135353a2063616c6c6572206973206e6f7420746f6b656e206f776e60448201527f6572206f7220617070726f7665640000000000000000000000000000000000006064820152608401610220565b61047e858585858561067a565b5050505050565b606081518351146104fe5760405162461bcd60e51b815260206004820152602960248201527f455243313135353a206163636f756e747320616e6420696473206c656e67746860448201527f206d69736d6174636800000000000000000000000000000000000000000000006064820152608401610220565b6000835167ffffffffffffffff81111561051a5761051a611204565b604051908082528060200260200182016040528015610543578160200160208202803683370190505b50905060005b84518110156105bb5761058e8582815181106105675761056761168f565b60200260200101518583815181106105815761058161168f565b6020026020010151610199565b8282815181106105a0576105a061168f565b60209081029190910101526105b4816116ed565b9050610549565b509392505050565b6105ce338383610966565b5050565b73ffffffffffffffffffffffffffffffffffffffff85163314806105fb57506105fb853361014b565b61066d5760405162461bcd60e51b815260206004820152602e60248201527f455243313135353a2063616c6c6572206973206e6f7420746f6b656e206f776e60448201527f6572206f7220617070726f7665640000000000000000000000000000000000006064820152608401610220565b61047e8585858585610a9f565b81518351146106f15760405162461bcd60e51b815260206004820152602860248201527f455243313135353a2069647320616e6420616d6f756e7473206c656e6774682060448201527f6d69736d617463680000000000000000000000000000000000000000000000006064820152608401610220565b73ffffffffffffffffffffffffffffffffffffffff841661077a5760405162461bcd60e51b815260206004820152602560248201527f455243313135353a207472616e7366657220746f20746865207a65726f20616460448201527f64726573730000000000000000000000000000000000000000000000000000006064820152608401610220565b3360005b84518110156108d157600085828151811061079b5761079b61168f565b6020026020010151905060008583815181106107b9576107b961168f565b6020908102919091018101516000848152808352604080822073ffffffffffffffffffffffffffffffffffffffff8e16835290935291909120549091508181101561086c5760405162461bcd60e51b815260206004820152602a60248201527f455243313135353a20696e73756666696369656e742062616c616e636520666f60448201527f72207472616e73666572000000000000000000000000000000000000000000006064820152608401610220565b60008381526020818152604080832073ffffffffffffffffffffffffffffffffffffffff8e8116855292528083208585039055908b168252812080548492906108b6908490611725565b92505081905550505050806108ca906116ed565b905061077e565b508473ffffffffffffffffffffffffffffffffffffffff168673ffffffffffffffffffffffffffffffffffffffff168273ffffffffffffffffffffffffffffffffffffffff167f4a39dc06d4c0dbc64b70af90fd698a233a518aa5d07e595d983b8c0526c8f7fb8787604051610948929190611738565b60405180910390a461095e818787878787610ca9565b505050505050565b8173ffffffffffffffffffffffffffffffffffffffff168373ffffffffffffffffffffffffffffffffffffffff1603610a075760405162461bcd60e51b815260206004820152602960248201527f455243313135353a2073657474696e6720617070726f76616c2073746174757360448201527f20666f722073656c6600000000000000000000000000000000000000000000006064820152608401610220565b73ffffffffffffffffffffffffffffffffffffffff83811660008181526001602090815260408083209487168084529482529182902080547fffffffffffffffffffffffffffffffffffffffffffffffffffffffffffffff001686151590811790915591519182527f17307eab39ab6107e8899845ad3d59bd9653f200f220920489ca2b5937696c31910160405180910390a3505050565b73ffffffffffffffffffffffffffffffffffffffff8416610b285760405162461bcd60e51b815260206004820152602560248201527f455243313135353a207472616e7366657220746f20746865207a65726f20616460448201527f64726573730000000000000000000000000000000000000000000000000000006064820152608401610220565b336000610b3485610eee565b90506000610b4185610eee565b905060008681526020818152604080832073ffffffffffffffffffffffffffffffffffffffff8c16845290915290205485811015610be75760405162461bcd60e51b815260206004820152602a60248201527f455243313135353a20696e73756666696369656e742062616c616e636520666f60448201527f72207472616e73666572000000000000000000000000000000000000000000006064820152608401610220565b60008781526020818152604080832073ffffffffffffffffffffffffffffffffffffffff8d8116855292528083208985039055908a16825281208054889290610c31908490611725565b9091555050604080518881526020810188905273ffffffffffffffffffffffffffffffffffffffff808b16928c821692918816917fc3d58168c5ae7397731d063d5bbf3d657854427343f4c083240f7aacaa2d0f62910160405180910390a4610c9e848a8a8a8a8a610f39565b505050505050505050565b73ffffffffffffffffffffffffffffffffffffffff84163b1561095e576040517fbc197c8100000000000000000000000000000000000000000000000000000000815273ffffffffffffffffffffffffffffffffffffffff85169063bc197c8190610d209089908990889088908890600401611766565b6020604051808303816000875af1925050508015610d79575060408051601f3d9081017fffffffffffffffffffffffffffffffffffffffffffffffffffffffffffffffe0168201909252610d76918101906117d1565b60015b610e2e57610d856117ee565b806308c379a003610dbe5750610d9961180a565b80610da45750610dc0565b8060405162461bcd60e51b815260040161022091906111f1565b505b60405162461bcd60e51b815260206004820152603460248201527f455243313135353a207472616e7366657220746f206e6f6e2d4552433131353560448201527f526563656976657220696d706c656d656e7465720000000000000000000000006064820152608401610220565b7fffffffff0000000000000000000000000000000000000000000000000000000081167fbc197c810000000000000000000000000000000000000000000000000000000014610ee55760405162461bcd60e51b815260206004820152602860248201527f455243313135353a204552433131353552656365697665722072656a6563746560448201527f6420746f6b656e730000000000000000000000000000000000000000000000006064820152608401610220565b50505050505050565b60408051600180825281830190925260609160009190602080830190803683370190505090508281600081518110610f2857610f2861168f565b602090810291909101015292915050565b73ffffffffffffffffffffffffffffffffffffffff84163b1561095e576040517ff23a6e6100000000000000000000000000000000000000000000000000000000815273ffffffffffffffffffffffffffffffffffffffff85169063f23a6e6190610fb090899089908890889088906004016118b2565b6020604051808303816000875af1925050508015611009575060408051601f3d9081017fffffffffffffffffffffffffffffffffffffffffffffffffffffffffffffffe0168201909252611006918101906117d1565b60015b61101557610d856117ee565b7fffffffff0000000000000000000000000000000000000000000000000000000081167ff23a6e610000000000000000000000000000000000000000000000000000000014610ee55760405162461bcd60e51b815260206004820152602860248201527f455243313135353a204552433131353552656365697665722072656a6563746560448201527f6420746f6b656e730000000000000000000000000000000000000000000000006064820152608401610220565b803573ffffffffffffffffffffffffffffffffffffffff811681146110f057600080fd5b919050565b6000806040838503121561110857600080fd5b611111836110cc565b946020939093013593505050565b7fffffffff000000000000000000000000000000000000000000000000000000008116811461114d57600080fd5b50565b60006020828403121561116257600080fd5b813561116d8161111f565b9392505050565b60006020828403121561118657600080fd5b5035919050565b6000815180845260005b818110156111b357602081850181015186830182015201611197565b5060006020828601015260207fffffffffffffffffffffffffffffffffffffffffffffffffffffffffffffffe0601f83011685010191505092915050565b60208152600061116d602083018461118d565b7f4e487b7100000000000000000000000000000000000000000000000000000000600052604160045260246000fd5b7fffffffffffffffffffffffffffffffffffffffffffffffffffffffffffffffe0601f830116810181811067ffffffffffffffff8211171561127757611277611204565b6040525050565b600067ffffffffffffffff82111561129857611298611204565b5060051b60200190565b600082601f8301126112b357600080fd5b813560206112c08261127e565b6040516112cd8282611233565b83815260059390931b85018201928281019150868411156112ed57600080fd5b8286015b8481101561130857803583529183019183016112f1565b509695505050505050565b600082601f83011261132457600080fd5b813567ffffffffffffffff81111561133e5761133e611204565b60405161137360207fffffffffffffffffffffffffffffffffffffffffffffffffffffffffffffffe0601f8501160182611233565b81815284602083860101111561138857600080fd5b816020850160208301376000918101602001919091529392505050565b600080600080600060a086880312156113bd57600080fd5b6113c6866110cc565b94506113d4602087016110cc565b9350604086013567ffffffffffffffff808211156113f157600080fd5b6113fd89838a016112a2565b9450606088013591508082111561141357600080fd5b61141f89838a016112a2565b9350608088013591508082111561143557600080fd5b5061144288828901611313565b9150509295509295909350565b6000806040838503121561146257600080fd5b823567ffffffffffffffff8082111561147a57600080fd5b818501915085601f83011261148e57600080fd5b8135602061149b8261127e565b6040516114a88282611233565b83815260059390931b85018201928281019150898411156114c857600080fd5b948201945b838610156114ed576114de866110cc565b825294820194908201906114cd565b9650508601359250508082111561150357600080fd5b50611510858286016112a2565b9150509250929050565b600081518084526020808501945080840160005b8381101561154a5781518752958201959082019060010161152e565b509495945050505050565b60208152600061116d602083018461151a565b6000806040838503121561157b57600080fd5b611584836110cc565b91506020830135801515811461159957600080fd5b809150509250929050565b600080604083850312156115b757600080fd5b6115c0836110cc565b91506115ce602084016110cc565b90509250929050565b600080600080600060a086880312156115ef57600080fd5b6115f8866110cc565b9450611606602087016110cc565b93506040860135925060608601359150608086013567ffffffffffffffff81111561163057600080fd5b61144288828901611313565b600181811c9082168061165057607f821691505b602082108103611689577f4e487b7100000000000000000000000000000000000000000000000000000000600052602260045260246000fd5b50919050565b7f4e487b7100000000000000000000000000000000000000000000000000000000600052603260045260246000fd5b7f4e487b7100000000000000000000000000000000000000000000000000000000600052601160045260246000fd5b60007fffffffffffffffffffffffffffffffffffffffffffffffffffffffffffffffff820361171e5761171e6116be565b5060010190565b80820180821115610259576102596116be565b60408152600061174b604083018561151a565b828103602084015261175d818561151a565b95945050505050565b600073ffffffffffffffffffffffffffffffffffffffff808816835280871660208401525060a0604083015261179f60a083018661151a565b82810360608401526117b1818661151a565b905082810360808401526117c5818561118d565b98975050505050505050565b6000602082840312156117e357600080fd5b815161116d8161111f565b600060033d11156118075760046000803e5060005160e01c5b90565b600060443d10156118185790565b6040517ffffffffffffffffffffffffffffffffffffffffffffffffffffffffffffffffc803d016004833e81513d67ffffffffffffffff816024840111818411171561186657505050505090565b828501915081518181111561187e5750505050505090565b843d87010160208285010111156118985750505050505090565b6118a760208286010187611233565b509095945050505050565b600073ffffffffffffffffffffffffffffffffffffffff808816835280871660208401525084604083015283606083015260a060808301526118f760a083018461118d565b97965050505050505056fea26469706673582212202594e6eb873d4d3252e8dd49e505d0fd966a66ef37f599aa78770f49059cd3f664736f6c63430008110033",
					"opcodes": "PUSH1 0x80 PUSH1 0x40 MSTORE CALLVALUE DUP1 ISZERO PUSH3 0x11 JUMPI PUSH1 0x0 DUP1 REVERT JUMPDEST POP PUSH1 0x40 MLOAD PUSH3 0x1BE6 CODESIZE SUB DUP1 PUSH3 0x1BE6 DUP4 CODECOPY DUP2 ADD PUSH1 0x40 DUP2 SWAP1 MSTORE PUSH3 0x34 SWAP2 PUSH3 0x6E JUMP JUMPDEST PUSH3 0x3F DUP2 PUSH3 0x46 JUMP JUMPDEST POP PUSH3 0x29E JUMP JUMPDEST PUSH1 0x2 PUSH3 0x54 DUP3 DUP3 PUSH3 0x1D2 JUMP JUMPDEST POP POP JUMP JUMPDEST PUSH4 0x4E487B71 PUSH1 0xE0 SHL PUSH1 0x0 MSTORE PUSH1 0x41 PUSH1 0x4 MSTORE PUSH1 0x24 PUSH1 0x0 REVERT JUMPDEST PUSH1 0x0 PUSH1 0x20 DUP1 DUP4 DUP6 SUB SLT ISZERO PUSH3 0x82 JUMPI PUSH1 0x0 DUP1 REVERT JUMPDEST DUP3 MLOAD PUSH1 0x1 PUSH1 0x1 PUSH1 0x40 SHL SUB DUP1 DUP3 GT ISZERO PUSH3 0x9A JUMPI PUSH1 0x0 DUP1 REVERT JUMPDEST DUP2 DUP6 ADD SWAP2 POP DUP6 PUSH1 0x1F DUP4 ADD SLT PUSH3 0xAF JUMPI PUSH1 0x0 DUP1 REVERT JUMPDEST DUP2 MLOAD DUP2 DUP2 GT ISZERO PUSH3 0xC4 JUMPI PUSH3 0xC4 PUSH3 0x58 JUMP JUMPDEST PUSH1 0x40 MLOAD PUSH1 0x1F DUP3 ADD PUSH1 0x1F NOT SWAP1 DUP2 AND PUSH1 0x3F ADD AND DUP2 ADD SWAP1 DUP4 DUP3 GT DUP2 DUP4 LT OR ISZERO PUSH3 0xEF JUMPI PUSH3 0xEF PUSH3 0x58 JUMP JUMPDEST DUP2 PUSH1 0x40 MSTORE DUP3 DUP2 MSTORE DUP9 DUP7 DUP5 DUP8 ADD ADD GT ISZERO PUSH3 0x108 JUMPI PUSH1 0x0 DUP1 REVERT JUMPDEST PUSH1 0x0 SWAP4 POP JUMPDEST DUP3 DUP5 LT ISZERO PUSH3 0x12C JUMPI DUP5 DUP5 ADD DUP7 ADD MLOAD DUP2 DUP6 ADD DUP8 ADD MSTORE SWAP3 DUP6 ADD SWAP3 PUSH3 0x10D JUMP JUMPDEST PUSH1 0x0 DUP7 DUP5 DUP4 ADD ADD MSTORE DUP1 SWAP7 POP POP POP POP POP POP POP SWAP3 SWAP2 POP POP JUMP JUMPDEST PUSH1 0x1 DUP2 DUP2 SHR SWAP1 DUP3 AND DUP1 PUSH3 0x158 JUMPI PUSH1 0x7F DUP3 AND SWAP2 POP JUMPDEST PUSH1 0x20 DUP3 LT DUP2 SUB PUSH3 0x179 JUMPI PUSH4 0x4E487B71 PUSH1 0xE0 SHL PUSH1 0x0 MSTORE PUSH1 0x22 PUSH1 0x4 MSTORE PUSH1 0x24 PUSH1 0x0 REVERT JUMPDEST POP SWAP2 SWAP1 POP JUMP JUMPDEST PUSH1 0x1F DUP3 GT ISZERO PUSH3 0x1CD JUMPI PUSH1 0x0 DUP2 DUP2 MSTORE PUSH1 0x20 DUP2 KECCAK256 PUSH1 0x1F DUP6 ADD PUSH1 0x5 SHR DUP2 ADD PUSH1 0x20 DUP7 LT ISZERO PUSH3 0x1A8 JUMPI POP DUP1 JUMPDEST PUSH1 0x1F DUP6 ADD PUSH1 0x5 SHR DUP3 ADD SWAP2 POP JUMPDEST DUP2 DUP2 LT ISZERO PUSH3 0x1C9 JUMPI DUP3 DUP2 SSTORE PUSH1 0x1 ADD PUSH3 0x1B4 JUMP JUMPDEST POP POP POP JUMPDEST POP POP POP JUMP JUMPDEST DUP2 MLOAD PUSH1 0x1 PUSH1 0x1 PUSH1 0x40 SHL SUB DUP2 GT ISZERO PUSH3 0x1EE JUMPI PUSH3 0x1EE PUSH3 0x58 JUMP JUMPDEST PUSH3 0x206 DUP2 PUSH3 0x1FF DUP5 SLOAD PUSH3 0x143 JUMP JUMPDEST DUP5 PUSH3 0x17F JUMP JUMPDEST PUSH1 0x20 DUP1 PUSH1 0x1F DUP4 GT PUSH1 0x1 DUP2 EQ PUSH3 0x23E JUMPI PUSH1 0x0 DUP5 ISZERO PUSH3 0x225 JUMPI POP DUP6 DUP4 ADD MLOAD JUMPDEST PUSH1 0x0 NOT PUSH1 0x3 DUP7 SWAP1 SHL SHR NOT AND PUSH1 0x1 DUP6 SWAP1 SHL OR DUP6 SSTORE PUSH3 0x1C9 JUMP JUMPDEST PUSH1 0x0 DUP6 DUP2 MSTORE PUSH1 0x20 DUP2 KECCAK256 PUSH1 0x1F NOT DUP7 AND SWAP2 JUMPDEST DUP3 DUP2 LT ISZERO PUSH3 0x26F JUMPI DUP9 DUP7 ADD MLOAD DUP3 SSTORE SWAP5 DUP5 ADD SWAP5 PUSH1 0x1 SWAP1 SWAP2 ADD SWAP1 DUP5 ADD PUSH3 0x24E JUMP JUMPDEST POP DUP6 DUP3 LT ISZERO PUSH3 0x28E JUMPI DUP8 DUP6 ADD MLOAD PUSH1 0x0 NOT PUSH1 0x3 DUP9 SWAP1 SHL PUSH1 0xF8 AND SHR NOT AND DUP2 SSTORE JUMPDEST POP POP POP POP POP PUSH1 0x1 SWAP1 DUP2 SHL ADD SWAP1 SSTORE POP JUMP JUMPDEST PUSH2 0x1938 DUP1 PUSH3 0x2AE PUSH1 0x0 CODECOPY PUSH1 0x0 RETURN INVALID PUSH1 0x80 PUSH1 0x40 MSTORE CALLVALUE DUP1 ISZERO PUSH2 0x10 JUMPI PUSH1 0x0 DUP1 REVERT JUMPDEST POP PUSH1 0x4 CALLDATASIZE LT PUSH2 0x87 JUMPI PUSH1 0x0 CALLDATALOAD PUSH1 0xE0 SHR DUP1 PUSH4 0x4E1273F4 GT PUSH2 0x5B JUMPI DUP1 PUSH4 0x4E1273F4 EQ PUSH2 0x10A JUMPI DUP1 PUSH4 0xA22CB465 EQ PUSH2 0x12A JUMPI DUP1 PUSH4 0xE985E9C5 EQ PUSH2 0x13D JUMPI DUP1 PUSH4 0xF242432A EQ PUSH2 0x186 JUMPI PUSH1 0x0 DUP1 REVERT JUMPDEST DUP1 PUSH3 0xFDD58E EQ PUSH2 0x8C JUMPI DUP1 PUSH4 0x1FFC9A7 EQ PUSH2 0xB2 JUMPI DUP1 PUSH4 0xE89341C EQ PUSH2 0xD5 JUMPI DUP1 PUSH4 0x2EB2C2D6 EQ PUSH2 0xF5 JUMPI JUMPDEST PUSH1 0x0 DUP1 REVERT JUMPDEST PUSH2 0x9F PUSH2 0x9A CALLDATASIZE PUSH1 0x4 PUSH2 0x10F5 JUMP JUMPDEST PUSH2 0x199 JUMP JUMPDEST PUSH1 0x40 MLOAD SWAP1 DUP2 MSTORE PUSH1 0x20 ADD JUMPDEST PUSH1 0x40 MLOAD DUP1 SWAP2 SUB SWAP1 RETURN JUMPDEST PUSH2 0xC5 PUSH2 0xC0 CALLDATASIZE PUSH1 0x4 PUSH2 0x1150 JUMP JUMPDEST PUSH2 0x25F JUMP JUMPDEST PUSH1 0x40 MLOAD SWAP1 ISZERO ISZERO DUP2 MSTORE PUSH1 0x20 ADD PUSH2 0xA9 JUMP JUMPDEST PUSH2 0xE8 PUSH2 0xE3 CALLDATASIZE PUSH1 0x4 PUSH2 0x1174 JUMP JUMPDEST PUSH2 0x342 JUMP JUMPDEST PUSH1 0x40 MLOAD PUSH2 0xA9 SWAP2 SWAP1 PUSH2 0x11F1 JUMP JUMPDEST PUSH2 0x108 PUSH2 0x103 CALLDATASIZE PUSH1 0x4 PUSH2 0x13A5 JUMP JUMPDEST PUSH2 0x3D6 JUMP JUMPDEST STOP JUMPDEST PUSH2 0x11D PUSH2 0x118 CALLDATASIZE PUSH1 0x4 PUSH2 0x144F JUMP JUMPDEST PUSH2 0x485 JUMP JUMPDEST PUSH1 0x40 MLOAD PUSH2 0xA9 SWAP2 SWAP1 PUSH2 0x1555 JUMP JUMPDEST PUSH2 0x108 PUSH2 0x138 CALLDATASIZE PUSH1 0x4 PUSH2 0x1568 JUMP JUMPDEST PUSH2 0x5C3 JUMP JUMPDEST PUSH2 0xC5 PUSH2 0x14B CALLDATASIZE PUSH1 0x4 PUSH2 0x15A4 JUMP JUMPDEST PUSH20 0xFFFFFFFFFFFFFFFFFFFFFFFFFFFFFFFFFFFFFFFF SWAP2 DUP3 AND PUSH1 0x0 SWAP1 DUP2 MSTORE PUSH1 0x1 PUSH1 0x20 SWAP1 DUP2 MSTORE PUSH1 0x40 DUP1 DUP4 KECCAK256 SWAP4 SWAP1 SWAP5 AND DUP3 MSTORE SWAP2 SWAP1 SWAP2 MSTORE KECCAK256 SLOAD PUSH1 0xFF AND SWAP1 JUMP JUMPDEST PUSH2 0x108 PUSH2 0x194 CALLDATASIZE PUSH1 0x4 PUSH2 0x15D7 JUMP JUMPDEST PUSH2 0x5D2 JUMP JUMPDEST PUSH1 0x0 PUSH20 0xFFFFFFFFFFFFFFFFFFFFFFFFFFFFFFFFFFFFFFFF DUP4 AND PUSH2 0x229 JUMPI PUSH1 0x40 MLOAD PUSH3 0x461BCD PUSH1 0xE5 SHL DUP2 MSTORE PUSH1 0x20 PUSH1 0x4 DUP3 ADD MSTORE PUSH1 0x2A PUSH1 0x24 DUP3 ADD MSTORE PUSH32 0x455243313135353A2061646472657373207A65726F206973206E6F7420612076 PUSH1 0x44 DUP3 ADD MSTORE PUSH32 0x616C6964206F776E657200000000000000000000000000000000000000000000 PUSH1 0x64 DUP3 ADD MSTORE PUSH1 0x84 ADD JUMPDEST PUSH1 0x40 MLOAD DUP1 SWAP2 SUB SWAP1 REVERT JUMPDEST POP PUSH1 0x0 DUP2 DUP2 MSTORE PUSH1 0x20 DUP2 DUP2 MSTORE PUSH1 0x40 DUP1 DUP4 KECCAK256 PUSH20 0xFFFFFFFFFFFFFFFFFFFFFFFFFFFFFFFFFFFFFFFF DUP7 AND DUP5 MSTORE SWAP1 SWAP2 MSTORE SWAP1 KECCAK256 SLOAD JUMPDEST SWAP3 SWAP2 POP POP JUMP JUMPDEST PUSH1 0x0 PUSH32 0xFFFFFFFF00000000000000000000000000000000000000000000000000000000 DUP3 AND PUSH32 0xD9B67A2600000000000000000000000000000000000000000000000000000000 EQ DUP1 PUSH2 0x2F2 JUMPI POP PUSH32 0xFFFFFFFF00000000000000000000000000000000000000000000000000000000 DUP3 AND PUSH32 0xE89341C00000000000000000000000000000000000000000000000000000000 EQ JUMPDEST DUP1 PUSH2 0x259 JUMPI POP PUSH32 0x1FFC9A700000000000000000000000000000000000000000000000000000000 PUSH32 0xFFFFFFFF00000000000000000000000000000000000000000000000000000000 DUP4 AND EQ PUSH2 0x259 JUMP JUMPDEST PUSH1 0x60 PUSH1 0x2 DUP1 SLOAD PUSH2 0x351 SWAP1 PUSH2 0x163C JUMP JUMPDEST DUP1 PUSH1 0x1F ADD PUSH1 0x20 DUP1 SWAP2 DIV MUL PUSH1 0x20 ADD PUSH1 0x40 MLOAD SWAP1 DUP2 ADD PUSH1 0x40 MSTORE DUP1 SWAP3 SWAP2 SWAP1 DUP2 DUP2 MSTORE PUSH1 0x20 ADD DUP3 DUP1 SLOAD PUSH2 0x37D SWAP1 PUSH2 0x163C JUMP JUMPDEST DUP1 ISZERO PUSH2 0x3CA JUMPI DUP1 PUSH1 0x1F LT PUSH2 0x39F JUMPI PUSH2 0x100 DUP1 DUP4 SLOAD DIV MUL DUP4 MSTORE SWAP2 PUSH1 0x20 ADD SWAP2 PUSH2 0x3CA JUMP JUMPDEST DUP3 ADD SWAP2 SWAP1 PUSH1 0x0 MSTORE PUSH1 0x20 PUSH1 0x0 KECCAK256 SWAP1 JUMPDEST DUP2 SLOAD DUP2 MSTORE SWAP1 PUSH1 0x1 ADD SWAP1 PUSH1 0x20 ADD DUP1 DUP4 GT PUSH2 0x3AD JUMPI DUP3 SWAP1 SUB PUSH1 0x1F AND DUP3 ADD SWAP2 JUMPDEST POP POP POP POP POP SWAP1 POP SWAP2 SWAP1 POP JUMP JUMPDEST PUSH20 0xFFFFFFFFFFFFFFFFFFFFFFFFFFFFFFFFFFFFFFFF DUP6 AND CALLER EQ DUP1 PUSH2 0x3FF JUMPI POP PUSH2 0x3FF DUP6 CALLER PUSH2 0x14B JUMP JUMPDEST PUSH2 0x471 JUMPI PUSH1 0x40 MLOAD PUSH3 0x461BCD PUSH1 0xE5 SHL DUP2 MSTORE PUSH1 0x20 PUSH1 0x4 DUP3 ADD MSTORE PUSH1 0x2E PUSH1 0x24 DUP3 ADD MSTORE PUSH32 0x455243313135353A2063616C6C6572206973206E6F7420746F6B656E206F776E PUSH1 0x44 DUP3 ADD MSTORE PUSH32 0x6572206F7220617070726F766564000000000000000000000000000000000000 PUSH1 0x64 DUP3 ADD MSTORE PUSH1 0x84 ADD PUSH2 0x220 JUMP JUMPDEST PUSH2 0x47E DUP6 DUP6 DUP6 DUP6 DUP6 PUSH2 0x67A JUMP JUMPDEST POP POP POP POP POP JUMP JUMPDEST PUSH1 0x60 DUP2 MLOAD DUP4 MLOAD EQ PUSH2 0x4FE JUMPI PUSH1 0x40 MLOAD PUSH3 0x461BCD PUSH1 0xE5 SHL DUP2 MSTORE PUSH1 0x20 PUSH1 0x4 DUP3 ADD MSTORE PUSH1 0x29 PUSH1 0x24 DUP3 ADD MSTORE PUSH32 0x455243313135353A206163636F756E747320616E6420696473206C656E677468 PUSH1 0x44 DUP3 ADD MSTORE PUSH32 0x206D69736D617463680000000000000000000000000000000000000000000000 PUSH1 0x64 DUP3 ADD MSTORE PUSH1 0x84 ADD PUSH2 0x220 JUMP JUMPDEST PUSH1 0x0 DUP4 MLOAD PUSH8 0xFFFFFFFFFFFFFFFF DUP2 GT ISZERO PUSH2 0x51A JUMPI PUSH2 0x51A PUSH2 0x1204 JUMP JUMPDEST PUSH1 0x40 MLOAD SWAP1 DUP1 DUP3 MSTORE DUP1 PUSH1 0x20 MUL PUSH1 0x20 ADD DUP3 ADD PUSH1 0x40 MSTORE DUP1 ISZERO PUSH2 0x543 JUMPI DUP2 PUSH1 0x20 ADD PUSH1 0x20 DUP3 MUL DUP1 CALLDATASIZE DUP4 CALLDATACOPY ADD SWAP1 POP JUMPDEST POP SWAP1 POP PUSH1 0x0 JUMPDEST DUP5 MLOAD DUP2 LT ISZERO PUSH2 0x5BB JUMPI PUSH2 0x58E DUP6 DUP3 DUP2 MLOAD DUP2 LT PUSH2 0x567 JUMPI PUSH2 0x567 PUSH2 0x168F JUMP JUMPDEST PUSH1 0x20 MUL PUSH1 0x20 ADD ADD MLOAD DUP6 DUP4 DUP2 MLOAD DUP2 LT PUSH2 0x581 JUMPI PUSH2 0x581 PUSH2 0x168F JUMP JUMPDEST PUSH1 0x20 MUL PUSH1 0x20 ADD ADD MLOAD PUSH2 0x199 JUMP JUMPDEST DUP3 DUP3 DUP2 MLOAD DUP2 LT PUSH2 0x5A0 JUMPI PUSH2 0x5A0 PUSH2 0x168F JUMP JUMPDEST PUSH1 0x20 SWAP1 DUP2 MUL SWAP2 SWAP1 SWAP2 ADD ADD MSTORE PUSH2 0x5B4 DUP2 PUSH2 0x16ED JUMP JUMPDEST SWAP1 POP PUSH2 0x549 JUMP JUMPDEST POP SWAP4 SWAP3 POP POP POP JUMP JUMPDEST PUSH2 0x5CE CALLER DUP4 DUP4 PUSH2 0x966 JUMP JUMPDEST POP POP JUMP JUMPDEST PUSH20 0xFFFFFFFFFFFFFFFFFFFFFFFFFFFFFFFFFFFFFFFF DUP6 AND CALLER EQ DUP1 PUSH2 0x5FB JUMPI POP PUSH2 0x5FB DUP6 CALLER PUSH2 0x14B JUMP JUMPDEST PUSH2 0x66D JUMPI PUSH1 0x40 MLOAD PUSH3 0x461BCD PUSH1 0xE5 SHL DUP2 MSTORE PUSH1 0x20 PUSH1 0x4 DUP3 ADD MSTORE PUSH1 0x2E PUSH1 0x24 DUP3 ADD MSTORE PUSH32 0x455243313135353A2063616C6C6572206973206E6F7420746F6B656E206F776E PUSH1 0x44 DUP3 ADD MSTORE PUSH32 0x6572206F7220617070726F766564000000000000000000000000000000000000 PUSH1 0x64 DUP3 ADD MSTORE PUSH1 0x84 ADD PUSH2 0x220 JUMP JUMPDEST PUSH2 0x47E DUP6 DUP6 DUP6 DUP6 DUP6 PUSH2 0xA9F JUMP JUMPDEST DUP2 MLOAD DUP4 MLOAD EQ PUSH2 0x6F1 JUMPI PUSH1 0x40 MLOAD PUSH3 0x461BCD PUSH1 0xE5 SHL DUP2 MSTORE PUSH1 0x20 PUSH1 0x4 DUP3 ADD MSTORE PUSH1 0x28 PUSH1 0x24 DUP3 ADD MSTORE PUSH32 0x455243313135353A2069647320616E6420616D6F756E7473206C656E67746820 PUSH1 0x44 DUP3 ADD MSTORE PUSH32 0x6D69736D61746368000000000000000000000000000000000000000000000000 PUSH1 0x64 DUP3 ADD MSTORE PUSH1 0x84 ADD PUSH2 0x220 JUMP JUMPDEST PUSH20 0xFFFFFFFFFFFFFFFFFFFFFFFFFFFFFFFFFFFFFFFF DUP5 AND PUSH2 0x77A JUMPI PUSH1 0x40 MLOAD PUSH3 0x461BCD PUSH1 0xE5 SHL DUP2 MSTORE PUSH1 0x20 PUSH1 0x4 DUP3 ADD MSTORE PUSH1 0x25 PUSH1 0x24 DUP3 ADD MSTORE PUSH32 0x455243313135353A207472616E7366657220746F20746865207A65726F206164 PUSH1 0x44 DUP3 ADD MSTORE PUSH32 0x6472657373000000000000000000000000000000000000000000000000000000 PUSH1 0x64 DUP3 ADD MSTORE PUSH1 0x84 ADD PUSH2 0x220 JUMP JUMPDEST CALLER PUSH1 0x0 JUMPDEST DUP5 MLOAD DUP2 LT ISZERO PUSH2 0x8D1 JUMPI PUSH1 0x0 DUP6 DUP3 DUP2 MLOAD DUP2 LT PUSH2 0x79B JUMPI PUSH2 0x79B PUSH2 0x168F JUMP JUMPDEST PUSH1 0x20 MUL PUSH1 0x20 ADD ADD MLOAD SWAP1 POP PUSH1 0x0 DUP6 DUP4 DUP2 MLOAD DUP2 LT PUSH2 0x7B9 JUMPI PUSH2 0x7B9 PUSH2 0x168F JUMP JUMPDEST PUSH1 0x20 SWAP1 DUP2 MUL SWAP2 SWAP1 SWAP2 ADD DUP2 ADD MLOAD PUSH1 0x0 DUP5 DUP2 MSTORE DUP1 DUP4 MSTORE PUSH1 0x40 DUP1 DUP3 KECCAK256 PUSH20 0xFFFFFFFFFFFFFFFFFFFFFFFFFFFFFFFFFFFFFFFF DUP15 AND DUP4 MSTORE SWAP1 SWAP4 MSTORE SWAP2 SWAP1 SWAP2 KECCAK256 SLOAD SWAP1 SWAP2 POP DUP2 DUP2 LT ISZERO PUSH2 0x86C JUMPI PUSH1 0x40 MLOAD PUSH3 0x461BCD PUSH1 0xE5 SHL DUP2 MSTORE PUSH1 0x20 PUSH1 0x4 DUP3 ADD MSTORE PUSH1 0x2A PUSH1 0x24 DUP3 ADD MSTORE PUSH32 0x455243313135353A20696E73756666696369656E742062616C616E636520666F PUSH1 0x44 DUP3 ADD MSTORE PUSH32 0x72207472616E7366657200000000000000000000000000000000000000000000 PUSH1 0x64 DUP3 ADD MSTORE PUSH1 0x84 ADD PUSH2 0x220 JUMP JUMPDEST PUSH1 0x0 DUP4 DUP2 MSTORE PUSH1 0x20 DUP2 DUP2 MSTORE PUSH1 0x40 DUP1 DUP4 KECCAK256 PUSH20 0xFFFFFFFFFFFFFFFFFFFFFFFFFFFFFFFFFFFFFFFF DUP15 DUP2 AND DUP6 MSTORE SWAP3 MSTORE DUP1 DUP4 KECCAK256 DUP6 DUP6 SUB SWAP1 SSTORE SWAP1 DUP12 AND DUP3 MSTORE DUP2 KECCAK256 DUP1 SLOAD DUP5 SWAP3 SWAP1 PUSH2 0x8B6 SWAP1 DUP5 SWAP1 PUSH2 0x1725 JUMP JUMPDEST SWAP3 POP POP DUP2 SWAP1 SSTORE POP POP POP POP DUP1 PUSH2 0x8CA SWAP1 PUSH2 0x16ED JUMP JUMPDEST SWAP1 POP PUSH2 0x77E JUMP JUMPDEST POP DUP5 PUSH20 0xFFFFFFFFFFFFFFFFFFFFFFFFFFFFFFFFFFFFFFFF AND DUP7 PUSH20 0xFFFFFFFFFFFFFFFFFFFFFFFFFFFFFFFFFFFFFFFF AND DUP3 PUSH20 0xFFFFFFFFFFFFFFFFFFFFFFFFFFFFFFFFFFFFFFFF AND PUSH32 0x4A39DC06D4C0DBC64B70AF90FD698A233A518AA5D07E595D983B8C0526C8F7FB DUP8 DUP8 PUSH1 0x40 MLOAD PUSH2 0x948 SWAP3 SWAP2 SWAP1 PUSH2 0x1738 JUMP JUMPDEST PUSH1 0x40 MLOAD DUP1 SWAP2 SUB SWAP1 LOG4 PUSH2 0x95E DUP2 DUP8 DUP8 DUP8 DUP8 DUP8 PUSH2 0xCA9 JUMP JUMPDEST POP POP POP POP POP POP JUMP JUMPDEST DUP2 PUSH20 0xFFFFFFFFFFFFFFFFFFFFFFFFFFFFFFFFFFFFFFFF AND DUP4 PUSH20 0xFFFFFFFFFFFFFFFFFFFFFFFFFFFFFFFFFFFFFFFF AND SUB PUSH2 0xA07 JUMPI PUSH1 0x40 MLOAD PUSH3 0x461BCD PUSH1 0xE5 SHL DUP2 MSTORE PUSH1 0x20 PUSH1 0x4 DUP3 ADD MSTORE PUSH1 0x29 PUSH1 0x24 DUP3 ADD MSTORE PUSH32 0x455243313135353A2073657474696E6720617070726F76616C20737461747573 PUSH1 0x44 DUP3 ADD MSTORE PUSH32 0x20666F722073656C660000000000000000000000000000000000000000000000 PUSH1 0x64 DUP3 ADD MSTORE PUSH1 0x84 ADD PUSH2 0x220 JUMP JUMPDEST PUSH20 0xFFFFFFFFFFFFFFFFFFFFFFFFFFFFFFFFFFFFFFFF DUP4 DUP2 AND PUSH1 0x0 DUP2 DUP2 MSTORE PUSH1 0x1 PUSH1 0x20 SWAP1 DUP2 MSTORE PUSH1 0x40 DUP1 DUP4 KECCAK256 SWAP5 DUP8 AND DUP1 DUP5 MSTORE SWAP5 DUP3 MSTORE SWAP2 DUP3 SWAP1 KECCAK256 DUP1 SLOAD PUSH32 0xFFFFFFFFFFFFFFFFFFFFFFFFFFFFFFFFFFFFFFFFFFFFFFFFFFFFFFFFFFFFFF00 AND DUP7 ISZERO ISZERO SWAP1 DUP2 OR SWAP1 SWAP2 SSTORE SWAP2 MLOAD SWAP2 DUP3 MSTORE PUSH32 0x17307EAB39AB6107E8899845AD3D59BD9653F200F220920489CA2B5937696C31 SWAP2 ADD PUSH1 0x40 MLOAD DUP1 SWAP2 SUB SWAP1 LOG3 POP POP POP JUMP JUMPDEST PUSH20 0xFFFFFFFFFFFFFFFFFFFFFFFFFFFFFFFFFFFFFFFF DUP5 AND PUSH2 0xB28 JUMPI PUSH1 0x40 MLOAD PUSH3 0x461BCD PUSH1 0xE5 SHL DUP2 MSTORE PUSH1 0x20 PUSH1 0x4 DUP3 ADD MSTORE PUSH1 0x25 PUSH1 0x24 DUP3 ADD MSTORE PUSH32 0x455243313135353A207472616E7366657220746F20746865207A65726F206164 PUSH1 0x44 DUP3 ADD MSTORE PUSH32 0x6472657373000000000000000000000000000000000000000000000000000000 PUSH1 0x64 DUP3 ADD MSTORE PUSH1 0x84 ADD PUSH2 0x220 JUMP JUMPDEST CALLER PUSH1 0x0 PUSH2 0xB34 DUP6 PUSH2 0xEEE JUMP JUMPDEST SWAP1 POP PUSH1 0x0 PUSH2 0xB41 DUP6 PUSH2 0xEEE JUMP JUMPDEST SWAP1 POP PUSH1 0x0 DUP7 DUP2 MSTORE PUSH1 0x20 DUP2 DUP2 MSTORE PUSH1 0x40 DUP1 DUP4 KECCAK256 PUSH20 0xFFFFFFFFFFFFFFFFFFFFFFFFFFFFFFFFFFFFFFFF DUP13 AND DUP5 MSTORE SWAP1 SWAP2 MSTORE SWAP1 KECCAK256 SLOAD DUP6 DUP2 LT ISZERO PUSH2 0xBE7 JUMPI PUSH1 0x40 MLOAD PUSH3 0x461BCD PUSH1 0xE5 SHL DUP2 MSTORE PUSH1 0x20 PUSH1 0x4 DUP3 ADD MSTORE PUSH1 0x2A PUSH1 0x24 DUP3 ADD MSTORE PUSH32 0x455243313135353A20696E73756666696369656E742062616C616E636520666F PUSH1 0x44 DUP3 ADD MSTORE PUSH32 0x72207472616E7366657200000000000000000000000000000000000000000000 PUSH1 0x64 DUP3 ADD MSTORE PUSH1 0x84 ADD PUSH2 0x220 JUMP JUMPDEST PUSH1 0x0 DUP8 DUP2 MSTORE PUSH1 0x20 DUP2 DUP2 MSTORE PUSH1 0x40 DUP1 DUP4 KECCAK256 PUSH20 0xFFFFFFFFFFFFFFFFFFFFFFFFFFFFFFFFFFFFFFFF DUP14 DUP2 AND DUP6 MSTORE SWAP3 MSTORE DUP1 DUP4 KECCAK256 DUP10 DUP6 SUB SWAP1 SSTORE SWAP1 DUP11 AND DUP3 MSTORE DUP2 KECCAK256 DUP1 SLOAD DUP9 SWAP3 SWAP1 PUSH2 0xC31 SWAP1 DUP5 SWAP1 PUSH2 0x1725 JUMP JUMPDEST SWAP1 SWAP2 SSTORE POP POP PUSH1 0x40 DUP1 MLOAD DUP9 DUP2 MSTORE PUSH1 0x20 DUP2 ADD DUP9 SWAP1 MSTORE PUSH20 0xFFFFFFFFFFFFFFFFFFFFFFFFFFFFFFFFFFFFFFFF DUP1 DUP12 AND SWAP3 DUP13 DUP3 AND SWAP3 SWAP2 DUP9 AND SWAP2 PUSH32 0xC3D58168C5AE7397731D063D5BBF3D657854427343F4C083240F7AACAA2D0F62 SWAP2 ADD PUSH1 0x40 MLOAD DUP1 SWAP2 SUB SWAP1 LOG4 PUSH2 0xC9E DUP5 DUP11 DUP11 DUP11 DUP11 DUP11 PUSH2 0xF39 JUMP JUMPDEST POP POP POP POP POP POP POP POP POP JUMP JUMPDEST PUSH20 0xFFFFFFFFFFFFFFFFFFFFFFFFFFFFFFFFFFFFFFFF DUP5 AND EXTCODESIZE ISZERO PUSH2 0x95E JUMPI PUSH1 0x40 MLOAD PUSH32 0xBC197C8100000000000000000000000000000000000000000000000000000000 DUP2 MSTORE PUSH20 0xFFFFFFFFFFFFFFFFFFFFFFFFFFFFFFFFFFFFFFFF DUP6 AND SWAP1 PUSH4 0xBC197C81 SWAP1 PUSH2 0xD20 SWAP1 DUP10 SWAP1 DUP10 SWAP1 DUP9 SWAP1 DUP9 SWAP1 DUP9 SWAP1 PUSH1 0x4 ADD PUSH2 0x1766 JUMP JUMPDEST PUSH1 0x20 PUSH1 0x40 MLOAD DUP1 DUP4 SUB DUP2 PUSH1 0x0 DUP8 GAS CALL SWAP3 POP POP POP DUP1 ISZERO PUSH2 0xD79 JUMPI POP PUSH1 0x40 DUP1 MLOAD PUSH1 0x1F RETURNDATASIZE SWAP1 DUP2 ADD PUSH32 0xFFFFFFFFFFFFFFFFFFFFFFFFFFFFFFFFFFFFFFFFFFFFFFFFFFFFFFFFFFFFFFE0 AND DUP3 ADD SWAP1 SWAP3 MSTORE PUSH2 0xD76 SWAP2 DUP2 ADD SWAP1 PUSH2 0x17D1 JUMP JUMPDEST PUSH1 0x1 JUMPDEST PUSH2 0xE2E JUMPI PUSH2 0xD85 PUSH2 0x17EE JUMP JUMPDEST DUP1 PUSH4 0x8C379A0 SUB PUSH2 0xDBE JUMPI POP PUSH2 0xD99 PUSH2 0x180A JUMP JUMPDEST DUP1 PUSH2 0xDA4 JUMPI POP PUSH2 0xDC0 JUMP JUMPDEST DUP1 PUSH1 0x40 MLOAD PUSH3 0x461BCD PUSH1 0xE5 SHL DUP2 MSTORE PUSH1 0x4 ADD PUSH2 0x220 SWAP2 SWAP1 PUSH2 0x11F1 JUMP JUMPDEST POP JUMPDEST PUSH1 0x40 MLOAD PUSH3 0x461BCD PUSH1 0xE5 SHL DUP2 MSTORE PUSH1 0x20 PUSH1 0x4 DUP3 ADD MSTORE PUSH1 0x34 PUSH1 0x24 DUP3 ADD MSTORE PUSH32 0x455243313135353A207472616E7366657220746F206E6F6E2D45524331313535 PUSH1 0x44 DUP3 ADD MSTORE PUSH32 0x526563656976657220696D706C656D656E746572000000000000000000000000 PUSH1 0x64 DUP3 ADD MSTORE PUSH1 0x84 ADD PUSH2 0x220 JUMP JUMPDEST PUSH32 0xFFFFFFFF00000000000000000000000000000000000000000000000000000000 DUP2 AND PUSH32 0xBC197C8100000000000000000000000000000000000000000000000000000000 EQ PUSH2 0xEE5 JUMPI PUSH1 0x40 MLOAD PUSH3 0x461BCD PUSH1 0xE5 SHL DUP2 MSTORE PUSH1 0x20 PUSH1 0x4 DUP3 ADD MSTORE PUSH1 0x28 PUSH1 0x24 DUP3 ADD MSTORE PUSH32 0x455243313135353A204552433131353552656365697665722072656A65637465 PUSH1 0x44 DUP3 ADD MSTORE PUSH32 0x6420746F6B656E73000000000000000000000000000000000000000000000000 PUSH1 0x64 DUP3 ADD MSTORE PUSH1 0x84 ADD PUSH2 0x220 JUMP JUMPDEST POP POP POP POP POP POP POP JUMP JUMPDEST PUSH1 0x40 DUP1 MLOAD PUSH1 0x1 DUP1 DUP3 MSTORE DUP2 DUP4 ADD SWAP1 SWAP3 MSTORE PUSH1 0x60 SWAP2 PUSH1 0x0 SWAP2 SWAP1 PUSH1 0x20 DUP1 DUP4 ADD SWAP1 DUP1 CALLDATASIZE DUP4 CALLDATACOPY ADD SWAP1 POP POP SWAP1 POP DUP3 DUP2 PUSH1 0x0 DUP2 MLOAD DUP2 LT PUSH2 0xF28 JUMPI PUSH2 0xF28 PUSH2 0x168F JUMP JUMPDEST PUSH1 0x20 SWAP1 DUP2 MUL SWAP2 SWAP1 SWAP2 ADD ADD MSTORE SWAP3 SWAP2 POP POP JUMP JUMPDEST PUSH20 0xFFFFFFFFFFFFFFFFFFFFFFFFFFFFFFFFFFFFFFFF DUP5 AND EXTCODESIZE ISZERO PUSH2 0x95E JUMPI PUSH1 0x40 MLOAD PUSH32 0xF23A6E6100000000000000000000000000000000000000000000000000000000 DUP2 MSTORE PUSH20 0xFFFFFFFFFFFFFFFFFFFFFFFFFFFFFFFFFFFFFFFF DUP6 AND SWAP1 PUSH4 0xF23A6E61 SWAP1 PUSH2 0xFB0 SWAP1 DUP10 SWAP1 DUP10 SWAP1 DUP9 SWAP1 DUP9 SWAP1 DUP9 SWAP1 PUSH1 0x4 ADD PUSH2 0x18B2 JUMP JUMPDEST PUSH1 0x20 PUSH1 0x40 MLOAD DUP1 DUP4 SUB DUP2 PUSH1 0x0 DUP8 GAS CALL SWAP3 POP POP POP DUP1 ISZERO PUSH2 0x1009 JUMPI POP PUSH1 0x40 DUP1 MLOAD PUSH1 0x1F RETURNDATASIZE SWAP1 DUP2 ADD PUSH32 0xFFFFFFFFFFFFFFFFFFFFFFFFFFFFFFFFFFFFFFFFFFFFFFFFFFFFFFFFFFFFFFE0 AND DUP3 ADD SWAP1 SWAP3 MSTORE PUSH2 0x1006 SWAP2 DUP2 ADD SWAP1 PUSH2 0x17D1 JUMP JUMPDEST PUSH1 0x1 JUMPDEST PUSH2 0x1015 JUMPI PUSH2 0xD85 PUSH2 0x17EE JUMP JUMPDEST PUSH32 0xFFFFFFFF00000000000000000000000000000000000000000000000000000000 DUP2 AND PUSH32 0xF23A6E6100000000000000000000000000000000000000000000000000000000 EQ PUSH2 0xEE5 JUMPI PUSH1 0x40 MLOAD PUSH3 0x461BCD PUSH1 0xE5 SHL DUP2 MSTORE PUSH1 0x20 PUSH1 0x4 DUP3 ADD MSTORE PUSH1 0x28 PUSH1 0x24 DUP3 ADD MSTORE PUSH32 0x455243313135353A204552433131353552656365697665722072656A65637465 PUSH1 0x44 DUP3 ADD MSTORE PUSH32 0x6420746F6B656E73000000000000000000000000000000000000000000000000 PUSH1 0x64 DUP3 ADD MSTORE PUSH1 0x84 ADD PUSH2 0x220 JUMP JUMPDEST DUP1 CALLDATALOAD PUSH20 0xFFFFFFFFFFFFFFFFFFFFFFFFFFFFFFFFFFFFFFFF DUP2 AND DUP2 EQ PUSH2 0x10F0 JUMPI PUSH1 0x0 DUP1 REVERT JUMPDEST SWAP2 SWAP1 POP JUMP JUMPDEST PUSH1 0x0 DUP1 PUSH1 0x40 DUP4 DUP6 SUB SLT ISZERO PUSH2 0x1108 JUMPI PUSH1 0x0 DUP1 REVERT JUMPDEST PUSH2 0x1111 DUP4 PUSH2 0x10CC JUMP JUMPDEST SWAP5 PUSH1 0x20 SWAP4 SWAP1 SWAP4 ADD CALLDATALOAD SWAP4 POP POP POP JUMP JUMPDEST PUSH32 0xFFFFFFFF00000000000000000000000000000000000000000000000000000000 DUP2 AND DUP2 EQ PUSH2 0x114D JUMPI PUSH1 0x0 DUP1 REVERT JUMPDEST POP JUMP JUMPDEST PUSH1 0x0 PUSH1 0x20 DUP3 DUP5 SUB SLT ISZERO PUSH2 0x1162 JUMPI PUSH1 0x0 DUP1 REVERT JUMPDEST DUP2 CALLDATALOAD PUSH2 0x116D DUP2 PUSH2 0x111F JUMP JUMPDEST SWAP4 SWAP3 POP POP POP JUMP JUMPDEST PUSH1 0x0 PUSH1 0x20 DUP3 DUP5 SUB SLT ISZERO PUSH2 0x1186 JUMPI PUSH1 0x0 DUP1 REVERT JUMPDEST POP CALLDATALOAD SWAP2 SWAP1 POP JUMP JUMPDEST PUSH1 0x0 DUP2 MLOAD DUP1 DUP5 MSTORE PUSH1 0x0 JUMPDEST DUP2 DUP2 LT ISZERO PUSH2 0x11B3 JUMPI PUSH1 0x20 DUP2 DUP6 ADD DUP2 ADD MLOAD DUP7 DUP4 ADD DUP3 ADD MSTORE ADD PUSH2 0x1197 JUMP JUMPDEST POP PUSH1 0x0 PUSH1 0x20 DUP3 DUP7 ADD ADD MSTORE PUSH1 0x20 PUSH32 0xFFFFFFFFFFFFFFFFFFFFFFFFFFFFFFFFFFFFFFFFFFFFFFFFFFFFFFFFFFFFFFE0 PUSH1 0x1F DUP4 ADD AND DUP6 ADD ADD SWAP2 POP POP SWAP3 SWAP2 POP POP JUMP JUMPDEST PUSH1 0x20 DUP2 MSTORE PUSH1 0x0 PUSH2 0x116D PUSH1 0x20 DUP4 ADD DUP5 PUSH2 0x118D JUMP JUMPDEST PUSH32 0x4E487B7100000000000000000000000000000000000000000000000000000000 PUSH1 0x0 MSTORE PUSH1 0x41 PUSH1 0x4 MSTORE PUSH1 0x24 PUSH1 0x0 REVERT JUMPDEST PUSH32 0xFFFFFFFFFFFFFFFFFFFFFFFFFFFFFFFFFFFFFFFFFFFFFFFFFFFFFFFFFFFFFFE0 PUSH1 0x1F DUP4 ADD AND DUP2 ADD DUP2 DUP2 LT PUSH8 0xFFFFFFFFFFFFFFFF DUP3 GT OR ISZERO PUSH2 0x1277 JUMPI PUSH2 0x1277 PUSH2 0x1204 JUMP JUMPDEST PUSH1 0x40 MSTORE POP POP JUMP JUMPDEST PUSH1 0x0 PUSH8 0xFFFFFFFFFFFFFFFF DUP3 GT ISZERO PUSH2 0x1298 JUMPI PUSH2 0x1298 PUSH2 0x1204 JUMP JUMPDEST POP PUSH1 0x5 SHL PUSH1 0x20 ADD SWAP1 JUMP JUMPDEST PUSH1 0x0 DUP3 PUSH1 0x1F DUP4 ADD SLT PUSH2 0x12B3 JUMPI PUSH1 0x0 DUP1 REVERT JUMPDEST DUP2 CALLDATALOAD PUSH1 0x20 PUSH2 0x12C0 DUP3 PUSH2 0x127E JUMP JUMPDEST PUSH1 0x40 MLOAD PUSH2 0x12CD DUP3 DUP3 PUSH2 0x1233 JUMP JUMPDEST DUP4 DUP2 MSTORE PUSH1 0x5 SWAP4 SWAP1 SWAP4 SHL DUP6 ADD DUP3 ADD SWAP3 DUP3 DUP2 ADD SWAP2 POP DUP7 DUP5 GT ISZERO PUSH2 0x12ED JUMPI PUSH1 0x0 DUP1 REVERT JUMPDEST DUP3 DUP7 ADD JUMPDEST DUP5 DUP2 LT ISZERO PUSH2 0x1308 JUMPI DUP1 CALLDATALOAD DUP4 MSTORE SWAP2 DUP4 ADD SWAP2 DUP4 ADD PUSH2 0x12F1 JUMP JUMPDEST POP SWAP7 SWAP6 POP POP POP POP POP POP JUMP JUMPDEST PUSH1 0x0 DUP3 PUSH1 0x1F DUP4 ADD SLT PUSH2 0x1324 JUMPI PUSH1 0x0 DUP1 REVERT JUMPDEST DUP2 CALLDATALOAD PUSH8 0xFFFFFFFFFFFFFFFF DUP2 GT ISZERO PUSH2 0x133E JUMPI PUSH2 0x133E PUSH2 0x1204 JUMP JUMPDEST PUSH1 0x40 MLOAD PUSH2 0x1373 PUSH1 0x20 PUSH32 0xFFFFFFFFFFFFFFFFFFFFFFFFFFFFFFFFFFFFFFFFFFFFFFFFFFFFFFFFFFFFFFE0 PUSH1 0x1F DUP6 ADD AND ADD DUP3 PUSH2 0x1233 JUMP JUMPDEST DUP2 DUP2 MSTORE DUP5 PUSH1 0x20 DUP4 DUP7 ADD ADD GT ISZERO PUSH2 0x1388 JUMPI PUSH1 0x0 DUP1 REVERT JUMPDEST DUP2 PUSH1 0x20 DUP6 ADD PUSH1 0x20 DUP4 ADD CALLDATACOPY PUSH1 0x0 SWAP2 DUP2 ADD PUSH1 0x20 ADD SWAP2 SWAP1 SWAP2 MSTORE SWAP4 SWAP3 POP POP POP JUMP JUMPDEST PUSH1 0x0 DUP1 PUSH1 0x0 DUP1 PUSH1 0x0 PUSH1 0xA0 DUP7 DUP9 SUB SLT ISZERO PUSH2 0x13BD JUMPI PUSH1 0x0 DUP1 REVERT JUMPDEST PUSH2 0x13C6 DUP7 PUSH2 0x10CC JUMP JUMPDEST SWAP5 POP PUSH2 0x13D4 PUSH1 0x20 DUP8 ADD PUSH2 0x10CC JUMP JUMPDEST SWAP4 POP PUSH1 0x40 DUP7 ADD CALLDATALOAD PUSH8 0xFFFFFFFFFFFFFFFF DUP1 DUP3 GT ISZERO PUSH2 0x13F1 JUMPI PUSH1 0x0 DUP1 REVERT JUMPDEST PUSH2 0x13FD DUP10 DUP4 DUP11 ADD PUSH2 0x12A2 JUMP JUMPDEST SWAP5 POP PUSH1 0x60 DUP9 ADD CALLDATALOAD SWAP2 POP DUP1 DUP3 GT ISZERO PUSH2 0x1413 JUMPI PUSH1 0x0 DUP1 REVERT JUMPDEST PUSH2 0x141F DUP10 DUP4 DUP11 ADD PUSH2 0x12A2 JUMP JUMPDEST SWAP4 POP PUSH1 0x80 DUP9 ADD CALLDATALOAD SWAP2 POP DUP1 DUP3 GT ISZERO PUSH2 0x1435 JUMPI PUSH1 0x0 DUP1 REVERT JUMPDEST POP PUSH2 0x1442 DUP9 DUP3 DUP10 ADD PUSH2 0x1313 JUMP JUMPDEST SWAP2 POP POP SWAP3 SWAP6 POP SWAP3 SWAP6 SWAP1 SWAP4 POP JUMP JUMPDEST PUSH1 0x0 DUP1 PUSH1 0x40 DUP4 DUP6 SUB SLT ISZERO PUSH2 0x1462 JUMPI PUSH1 0x0 DUP1 REVERT JUMPDEST DUP3 CALLDATALOAD PUSH8 0xFFFFFFFFFFFFFFFF DUP1 DUP3 GT ISZERO PUSH2 0x147A JUMPI PUSH1 0x0 DUP1 REVERT JUMPDEST DUP2 DUP6 ADD SWAP2 POP DUP6 PUSH1 0x1F DUP4 ADD SLT PUSH2 0x148E JUMPI PUSH1 0x0 DUP1 REVERT JUMPDEST DUP2 CALLDATALOAD PUSH1 0x20 PUSH2 0x149B DUP3 PUSH2 0x127E JUMP JUMPDEST PUSH1 0x40 MLOAD PUSH2 0x14A8 DUP3 DUP3 PUSH2 0x1233 JUMP JUMPDEST DUP4 DUP2 MSTORE PUSH1 0x5 SWAP4 SWAP1 SWAP4 SHL DUP6 ADD DUP3 ADD SWAP3 DUP3 DUP2 ADD SWAP2 POP DUP10 DUP5 GT ISZERO PUSH2 0x14C8 JUMPI PUSH1 0x0 DUP1 REVERT JUMPDEST SWAP5 DUP3 ADD SWAP5 JUMPDEST DUP4 DUP7 LT ISZERO PUSH2 0x14ED JUMPI PUSH2 0x14DE DUP7 PUSH2 0x10CC JUMP JUMPDEST DUP3 MSTORE SWAP5 DUP3 ADD SWAP5 SWAP1 DUP3 ADD SWAP1 PUSH2 0x14CD JUMP JUMPDEST SWAP7 POP POP DUP7 ADD CALLDATALOAD SWAP3 POP POP DUP1 DUP3 GT ISZERO PUSH2 0x1503 JUMPI PUSH1 0x0 DUP1 REVERT JUMPDEST POP PUSH2 0x1510 DUP6 DUP3 DUP7 ADD PUSH2 0x12A2 JUMP JUMPDEST SWAP2 POP POP SWAP3 POP SWAP3 SWAP1 POP JUMP JUMPDEST PUSH1 0x0 DUP2 MLOAD DUP1 DUP5 MSTORE PUSH1 0x20 DUP1 DUP6 ADD SWAP5 POP DUP1 DUP5 ADD PUSH1 0x0 JUMPDEST DUP4 DUP2 LT ISZERO PUSH2 0x154A JUMPI DUP2 MLOAD DUP8 MSTORE SWAP6 DUP3 ADD SWAP6 SWAP1 DUP3 ADD SWAP1 PUSH1 0x1 ADD PUSH2 0x152E JUMP JUMPDEST POP SWAP5 SWAP6 SWAP5 POP POP POP POP POP JUMP JUMPDEST PUSH1 0x20 DUP2 MSTORE PUSH1 0x0 PUSH2 0x116D PUSH1 0x20 DUP4 ADD DUP5 PUSH2 0x151A JUMP JUMPDEST PUSH1 0x0 DUP1 PUSH1 0x40 DUP4 DUP6 SUB SLT ISZERO PUSH2 0x157B JUMPI PUSH1 0x0 DUP1 REVERT JUMPDEST PUSH2 0x1584 DUP4 PUSH2 0x10CC JUMP JUMPDEST SWAP2 POP PUSH1 0x20 DUP4 ADD CALLDATALOAD DUP1 ISZERO ISZERO DUP2 EQ PUSH2 0x1599 JUMPI PUSH1 0x0 DUP1 REVERT JUMPDEST DUP1 SWAP2 POP POP SWAP3 POP SWAP3 SWAP1 POP JUMP JUMPDEST PUSH1 0x0 DUP1 PUSH1 0x40 DUP4 DUP6 SUB SLT ISZERO PUSH2 0x15B7 JUMPI PUSH1 0x0 DUP1 REVERT JUMPDEST PUSH2 0x15C0 DUP4 PUSH2 0x10CC JUMP JUMPDEST SWAP2 POP PUSH2 0x15CE PUSH1 0x20 DUP5 ADD PUSH2 0x10CC JUMP JUMPDEST SWAP1 POP SWAP3 POP SWAP3 SWAP1 POP JUMP JUMPDEST PUSH1 0x0 DUP1 PUSH1 0x0 DUP1 PUSH1 0x0 PUSH1 0xA0 DUP7 DUP9 SUB SLT ISZERO PUSH2 0x15EF JUMPI PUSH1 0x0 DUP1 REVERT JUMPDEST PUSH2 0x15F8 DUP7 PUSH2 0x10CC JUMP JUMPDEST SWAP5 POP PUSH2 0x1606 PUSH1 0x20 DUP8 ADD PUSH2 0x10CC JUMP JUMPDEST SWAP4 POP PUSH1 0x40 DUP7 ADD CALLDATALOAD SWAP3 POP PUSH1 0x60 DUP7 ADD CALLDATALOAD SWAP2 POP PUSH1 0x80 DUP7 ADD CALLDATALOAD PUSH8 0xFFFFFFFFFFFFFFFF DUP2 GT ISZERO PUSH2 0x1630 JUMPI PUSH1 0x0 DUP1 REVERT JUMPDEST PUSH2 0x1442 DUP9 DUP3 DUP10 ADD PUSH2 0x1313 JUMP JUMPDEST PUSH1 0x1 DUP2 DUP2 SHR SWAP1 DUP3 AND DUP1 PUSH2 0x1650 JUMPI PUSH1 0x7F DUP3 AND SWAP2 POP JUMPDEST PUSH1 0x20 DUP3 LT DUP2 SUB PUSH2 0x1689 JUMPI PUSH32 0x4E487B7100000000000000000000000000000000000000000000000000000000 PUSH1 0x0 MSTORE PUSH1 0x22 PUSH1 0x4 MSTORE PUSH1 0x24 PUSH1 0x0 REVERT JUMPDEST POP SWAP2 SWAP1 POP JUMP JUMPDEST PUSH32 0x4E487B7100000000000000000000000000000000000000000000000000000000 PUSH1 0x0 MSTORE PUSH1 0x32 PUSH1 0x4 MSTORE PUSH1 0x24 PUSH1 0x0 REVERT JUMPDEST PUSH32 0x4E487B7100000000000000000000000000000000000000000000000000000000 PUSH1 0x0 MSTORE PUSH1 0x11 PUSH1 0x4 MSTORE PUSH1 0x24 PUSH1 0x0 REVERT JUMPDEST PUSH1 0x0 PUSH32 0xFFFFFFFFFFFFFFFFFFFFFFFFFFFFFFFFFFFFFFFFFFFFFFFFFFFFFFFFFFFFFFFF DUP3 SUB PUSH2 0x171E JUMPI PUSH2 0x171E PUSH2 0x16BE JUMP JUMPDEST POP PUSH1 0x1 ADD SWAP1 JUMP JUMPDEST DUP1 DUP3 ADD DUP1 DUP3 GT ISZERO PUSH2 0x259 JUMPI PUSH2 0x259 PUSH2 0x16BE JUMP JUMPDEST PUSH1 0x40 DUP2 MSTORE PUSH1 0x0 PUSH2 0x174B PUSH1 0x40 DUP4 ADD DUP6 PUSH2 0x151A JUMP JUMPDEST DUP3 DUP2 SUB PUSH1 0x20 DUP5 ADD MSTORE PUSH2 0x175D DUP2 DUP6 PUSH2 0x151A JUMP JUMPDEST SWAP6 SWAP5 POP POP POP POP POP JUMP JUMPDEST PUSH1 0x0 PUSH20 0xFFFFFFFFFFFFFFFFFFFFFFFFFFFFFFFFFFFFFFFF DUP1 DUP9 AND DUP4 MSTORE DUP1 DUP8 AND PUSH1 0x20 DUP5 ADD MSTORE POP PUSH1 0xA0 PUSH1 0x40 DUP4 ADD MSTORE PUSH2 0x179F PUSH1 0xA0 DUP4 ADD DUP7 PUSH2 0x151A JUMP JUMPDEST DUP3 DUP2 SUB PUSH1 0x60 DUP5 ADD MSTORE PUSH2 0x17B1 DUP2 DUP7 PUSH2 0x151A JUMP JUMPDEST SWAP1 POP DUP3 DUP2 SUB PUSH1 0x80 DUP5 ADD MSTORE PUSH2 0x17C5 DUP2 DUP6 PUSH2 0x118D JUMP JUMPDEST SWAP9 SWAP8 POP POP POP POP POP POP POP POP JUMP JUMPDEST PUSH1 0x0 PUSH1 0x20 DUP3 DUP5 SUB SLT ISZERO PUSH2 0x17E3 JUMPI PUSH1 0x0 DUP1 REVERT JUMPDEST DUP2 MLOAD PUSH2 0x116D DUP2 PUSH2 0x111F JUMP JUMPDEST PUSH1 0x0 PUSH1 0x3 RETURNDATASIZE GT ISZERO PUSH2 0x1807 JUMPI PUSH1 0x4 PUSH1 0x0 DUP1 RETURNDATACOPY POP PUSH1 0x0 MLOAD PUSH1 0xE0 SHR JUMPDEST SWAP1 JUMP JUMPDEST PUSH1 0x0 PUSH1 0x44 RETURNDATASIZE LT ISZERO PUSH2 0x1818 JUMPI SWAP1 JUMP JUMPDEST PUSH1 0x40 MLOAD PUSH32 0xFFFFFFFFFFFFFFFFFFFFFFFFFFFFFFFFFFFFFFFFFFFFFFFFFFFFFFFFFFFFFFFC DUP1 RETURNDATASIZE ADD PUSH1 0x4 DUP4 RETURNDATACOPY DUP2 MLOAD RETURNDATASIZE PUSH8 0xFFFFFFFFFFFFFFFF DUP2 PUSH1 0x24 DUP5 ADD GT DUP2 DUP5 GT OR ISZERO PUSH2 0x1866 JUMPI POP POP POP POP POP SWAP1 JUMP JUMPDEST DUP3 DUP6 ADD SWAP2 POP DUP2 MLOAD DUP2 DUP2 GT ISZERO PUSH2 0x187E JUMPI POP POP POP POP POP POP SWAP1 JUMP JUMPDEST DUP5 RETURNDATASIZE DUP8 ADD ADD PUSH1 0x20 DUP3 DUP6 ADD ADD GT ISZERO PUSH2 0x1898 JUMPI POP POP POP POP POP POP SWAP1 JUMP JUMPDEST PUSH2 0x18A7 PUSH1 0x20 DUP3 DUP7 ADD ADD DUP8 PUSH2 0x1233 JUMP JUMPDEST POP SWAP1 SWAP6 SWAP5 POP POP POP POP POP JUMP JUMPDEST PUSH1 0x0 PUSH20 0xFFFFFFFFFFFFFFFFFFFFFFFFFFFFFFFFFFFFFFFF DUP1 DUP9 AND DUP4 MSTORE DUP1 DUP8 AND PUSH1 0x20 DUP5 ADD MSTORE POP DUP5 PUSH1 0x40 DUP4 ADD MSTORE DUP4 PUSH1 0x60 DUP4 ADD MSTORE PUSH1 0xA0 PUSH1 0x80 DUP4 ADD MSTORE PUSH2 0x18F7 PUSH1 0xA0 DUP4 ADD DUP5 PUSH2 0x118D JUMP JUMPDEST SWAP8 SWAP7 POP POP POP POP POP POP POP JUMP INVALID LOG2 PUSH5 0x6970667358 0x22 SLT KECCAK256 0x25 SWAP5 0xE6 0xEB DUP8 RETURNDATASIZE 0x4D ORIGIN MSTORE 0xE8 0xDD 0x49 0xE5 SDIV 0xD0 REVERT SWAP7 PUSH11 0x66EF37F599AA78770F4905 SWAP13 0xD3 0xF6 PUSH5 0x736F6C6343 STOP ADDMOD GT STOP CALLER "
				},
				"gasEstimates": {
					"creation": {
						"codeDepositCost": "1291200",
						"executionCost": "infinite",
						"totalCost": "infinite"
					},
					"external": {
						"balanceOf(address,uint256)": "2641",
						"balanceOfBatch(address[],uint256[])": "infinite",
						"isApprovedForAll(address,address)": "infinite",
						"safeBatchTransferFrom(address,address,uint256[],uint256[],bytes)": "infinite",
						"safeTransferFrom(address,address,uint256,uint256,bytes)": "infinite",
						"setApprovalForAll(address,bool)": "26654",
						"supportsInterface(bytes4)": "477",
						"uri(uint256)": "infinite"
					},
					"internal": {
						"_afterTokenTransfer(address,address,address,uint256[] memory,uint256[] memory,bytes memory)": "infinite",
						"_asSingletonArray(uint256)": "infinite",
						"_beforeTokenTransfer(address,address,address,uint256[] memory,uint256[] memory,bytes memory)": "infinite",
						"_burn(address,uint256,uint256)": "infinite",
						"_burnBatch(address,uint256[] memory,uint256[] memory)": "infinite",
						"_doSafeBatchTransferAcceptanceCheck(address,address,address,uint256[] memory,uint256[] memory,bytes memory)": "infinite",
						"_doSafeTransferAcceptanceCheck(address,address,address,uint256,uint256,bytes memory)": "infinite",
						"_mint(address,uint256,uint256,bytes memory)": "infinite",
						"_mintBatch(address,uint256[] memory,uint256[] memory,bytes memory)": "infinite",
						"_safeBatchTransferFrom(address,address,uint256[] memory,uint256[] memory,bytes memory)": "infinite",
						"_safeTransferFrom(address,address,uint256,uint256,bytes memory)": "infinite",
						"_setApprovalForAll(address,address,bool)": "infinite",
						"_setURI(string memory)": "infinite"
					}
				},
				"methodIdentifiers": {
					"balanceOf(address,uint256)": "00fdd58e",
					"balanceOfBatch(address[],uint256[])": "4e1273f4",
					"isApprovedForAll(address,address)": "e985e9c5",
					"safeBatchTransferFrom(address,address,uint256[],uint256[],bytes)": "2eb2c2d6",
					"safeTransferFrom(address,address,uint256,uint256,bytes)": "f242432a",
					"setApprovalForAll(address,bool)": "a22cb465",
					"supportsInterface(bytes4)": "01ffc9a7",
					"uri(uint256)": "0e89341c"
				}
			},
			"storageLayout": {
				"storage": [
					{
						"astId": 25,
						"contract": ".deps/npm/@openzeppelin/contracts/token/ERC1155/ERC1155.sol:ERC1155",
						"label": "_balances",
						"offset": 0,
						"slot": "0",
						"type": "t_mapping(t_uint256,t_mapping(t_address,t_uint256))"
					},
					{
						"astId": 31,
						"contract": ".deps/npm/@openzeppelin/contracts/token/ERC1155/ERC1155.sol:ERC1155",
						"label": "_operatorApprovals",
						"offset": 0,
						"slot": "1",
						"type": "t_mapping(t_address,t_mapping(t_address,t_bool))"
					},
					{
						"astId": 33,
						"contract": ".deps/npm/@openzeppelin/contracts/token/ERC1155/ERC1155.sol:ERC1155",
						"label": "_uri",
						"offset": 0,
						"slot": "2",
						"type": "t_string_storage"
					}
				],
				"types": {
					"t_address": {
						"encoding": "inplace",
						"label": "address",
						"numberOfBytes": "20"
					},
					"t_bool": {
						"encoding": "inplace",
						"label": "bool",
						"numberOfBytes": "1"
					},
					"t_mapping(t_address,t_bool)": {
						"encoding": "mapping",
						"key": "t_address",
						"label": "mapping(address => bool)",
						"numberOfBytes": "32",
						"value": "t_bool"
					},
					"t_mapping(t_address,t_mapping(t_address,t_bool))": {
						"encoding": "mapping",
						"key": "t_address",
						"label": "mapping(address => mapping(address => bool))",
						"numberOfBytes": "32",
						"value": "t_mapping(t_address,t_bool)"
					},
					"t_mapping(t_address,t_uint256)": {
						"encoding": "mapping",
						"key": "t_address",
						"label": "mapping(address => uint256)",
						"numberOfBytes": "32",
						"value": "t_uint256"
					},
					"t_mapping(t_uint256,t_mapping(t_address,t_uint256))": {
						"encoding": "mapping",
						"key": "t_uint256",
						"label": "mapping(uint256 => mapping(address => uint256))",
						"numberOfBytes": "32",
						"value": "t_mapping(t_address,t_uint256)"
					},
					"t_string_storage": {
						"encoding": "bytes",
						"label": "string",
						"numberOfBytes": "32"
					},
					"t_uint256": {
						"encoding": "inplace",
						"label": "uint256",
						"numberOfBytes": "32"
					}
				}
			},
			"userdoc": {
				"kind": "user",
				"methods": {},
				"version": 1
			}
		}
	}
}